{"project/contracts/LendingPool.sol":{"LendingPool":{"abi":[{"inputs":[{"internalType":"address","name":"_usdc","type":"address"},{"internalType":"address","name":"_oracle","type":"address"}],"stateMutability":"nonpayable","type":"constructor"},{"anonymous":false,"inputs":[{"indexed":true,"internalType":"address","name":"previousOwner","type":"address"},{"indexed":true,"internalType":"address","name":"newOwner","type":"address"}],"name":"OwnershipTransferred","type":"event"},{"inputs":[{"internalType":"address","name":"user","type":"address"}],"name":"_collateralValue","outputs":[{"internalType":"uint256","name":"val1e18","type":"uint256"}],"stateMutability":"view","type":"function"},{"inputs":[{"internalType":"address","name":"asset","type":"address"},{"internalType":"uint256","name":"_ltv1e18","type":"uint256"},{"internalType":"uint256","name":"_liqTh1e18","type":"uint256"},{"internalType":"uint256","name":"_liqBonus1e18","type":"uint256"}],"name":"addCollateralAsset","outputs":[],"stateMutability":"nonpayable","type":"function"},{"inputs":[{"internalType":"uint256","name":"amountUSDC","type":"uint256"}],"name":"borrow","outputs":[],"stateMutability":"nonpayable","type":"function"},{"inputs":[],"name":"borrowAPR1e18","outputs":[{"internalType":"uint256","name":"","type":"uint256"}],"stateMutability":"view","type":"function"},{"inputs":[{"internalType":"address","name":"","type":"address"},{"internalType":"address","name":"","type":"address"}],"name":"collateralOf","outputs":[{"internalType":"uint256","name":"","type":"uint256"}],"stateMutability":"view","type":"function"},{"inputs":[{"internalType":"uint256","name":"","type":"uint256"}],"name":"collaterals","outputs":[{"internalType":"address","name":"","type":"address"}],"stateMutability":"view","type":"function"},{"inputs":[{"internalType":"uint256","name":"amount","type":"uint256"}],"name":"defundUSDC","outputs":[],"stateMutability":"nonpayable","type":"function"},{"inputs":[{"internalType":"address","name":"asset","type":"address"},{"internalType":"uint256","name":"amount","type":"uint256"}],"name":"depositCollateral","outputs":[],"stateMutability":"nonpayable","type":"function"},{"inputs":[{"internalType":"uint256","name":"amount","type":"uint256"}],"name":"fundUSDC","outputs":[],"stateMutability":"nonpayable","type":"function"},{"inputs":[{"internalType":"address","name":"user","type":"address"}],"name":"healthFactor","outputs":[{"internalType":"uint256","name":"hf1e18","type":"uint256"}],"stateMutability":"view","type":"function"},{"inputs":[{"internalType":"address","name":"","type":"address"}],"name":"isCollateral","outputs":[{"internalType":"bool","name":"","type":"bool"}],"stateMutability":"view","type":"function"},{"inputs":[{"internalType":"address","name":"","type":"address"}],"name":"lastAccrual","outputs":[{"internalType":"uint256","name":"","type":"uint256"}],"stateMutability":"view","type":"function"},{"inputs":[{"internalType":"address","name":"","type":"address"}],"name":"liqBonus1e18","outputs":[{"internalType":"uint256","name":"","type":"uint256"}],"stateMutability":"view","type":"function"},{"inputs":[{"internalType":"address","name":"","type":"address"}],"name":"liqThreshold1e18","outputs":[{"internalType":"uint256","name":"","type":"uint256"}],"stateMutability":"view","type":"function"},{"inputs":[{"internalType":"address","name":"user","type":"address"},{"internalType":"uint256","name":"repayUSDC","type":"uint256"},{"internalType":"address","name":"collateralAsset","type":"address"}],"name":"liquidate","outputs":[],"stateMutability":"nonpayable","type":"function"},{"inputs":[{"internalType":"address","name":"","type":"address"}],"name":"ltv1e18","outputs":[{"internalType":"uint256","name":"","type":"uint256"}],"stateMutability":"view","type":"function"},{"inputs":[{"internalType":"address","name":"user","type":"address"}],"name":"maxBorrowable","outputs":[{"internalType":"uint256","name":"","type":"uint256"}],"stateMutability":"view","type":"function"},{"inputs":[],"name":"oracle","outputs":[{"internalType":"contract IPriceOracle","name":"","type":"address"}],"stateMutability":"view","type":"function"},{"inputs":[],"name":"owner","outputs":[{"internalType":"address","name":"","type":"address"}],"stateMutability":"view","type":"function"},{"inputs":[{"internalType":"uint256","name":"amountUSDC","type":"uint256"}],"name":"repay","outputs":[],"stateMutability":"nonpayable","type":"function"},{"inputs":[{"internalType":"uint256","name":"apr1e18","type":"uint256"}],"name":"setBorrowAPR","outputs":[],"stateMutability":"nonpayable","type":"function"},{"inputs":[{"internalType":"address","name":"newOwner","type":"address"}],"name":"transferOwnership","outputs":[],"stateMutability":"nonpayable","type":"function"},{"inputs":[],"name":"usdc","outputs":[{"internalType":"contract IERC20Ex","name":"","type":"address"}],"stateMutability":"view","type":"function"},{"inputs":[{"internalType":"address","name":"","type":"address"}],"name":"users","outputs":[{"internalType":"uint256","name":"debtUSDC","type":"uint256"}],"stateMutability":"view","type":"function"},{"inputs":[{"internalType":"address","name":"asset","type":"address"},{"internalType":"uint256","name":"amount","type":"uint256"}],"name":"withdrawCollateral","outputs":[],"stateMutability":"nonpayable","type":"function"}],"evm":{"bytecode":{"linkReferences":{},"object":"60c060405267011c37937e0800006008553480156200001c575f80fd5b50604051620019bc380380620019bc8339810160408190526200003f91620000b4565b6001600160a01b03808316608052811660a0525f80546001600160a01b0319163390811782556040519091907f8be0079c531659141344cd1fd0a4f28419497f9722a3daafe3b4186f6b6457e0908290a35050620000ea565b80516001600160a01b0381168114620000af575f80fd5b919050565b5f8060408385031215620000c6575f80fd5b620000d18362000098565b9150620000e16020840162000098565b90509250929050565b60805160a0516118716200014b5f395f81816102e5015281816104b301528181610b3e01528181610dd20152610f3001525f81816102400152818161075c0152818161095d01528181610a5c01528181611208015261134401526118715ff3fe608060405234801561000f575f80fd5b506004361061016d575f3560e01c80636ad9f9df116100d9578063c00337c911610093578063d8b7575d1161006e578063d8b7575d14610399578063f2fde38b146103c3578063f6785c8c146103d6578063fadd12a2146103e9575f80fd5b8063c00337c91461035e578063c5ebeaec14610367578063c823411c1461037a575f80fd5b80636ad9f9df146102cd5780637dc0d1d0146102e05780638da5cb5b14610307578063a5d5db0c14610319578063a87430ba1461032c578063b1ba3b741461034b575f80fd5b80633e413bee1161012a5780633e413bee1461023b57806340b2118d1461026257806347c63733146102755780634914c008146102885780634a3a60391461029b57806353696eb8146102ba575f80fd5b806301d24bff146101715780630ee21e54146101a357806324c1173b146101d557806325506d4e14610200578063350c35e914610213578063371fd8e614610228575b5f80fd5b61019061017f3660046115d7565b60096020525f908152604090205481565b6040519081526020015b60405180910390f35b6101c56101b13660046115d7565b60026020525f908152604090205460ff1681565b604051901515815260200161019a565b6101e86101e33660046115f7565b610408565b6040516001600160a01b03909116815260200161019a565b61019061020e3660046115d7565b610430565b61022661022136600461160e565b61055b565b005b6102266102363660046115f7565b6106e6565b6101e87f000000000000000000000000000000000000000000000000000000000000000081565b610226610270366004611636565b610817565b6102266102833660046115f7565b61091d565b61022661029636600461166c565b6109f5565b6101906102a93660046115d7565b60036020525f908152604090205481565b6101906102c83660046115d7565b610d4e565b6101906102db3660046115d7565b610eab565b6101e87f000000000000000000000000000000000000000000000000000000000000000081565b5f546101e8906001600160a01b031681565b61022661032736600461160e565b611067565b61019061033a3660046115d7565b60066020525f908152604090205481565b6102266103593660046115f7565b6111c3565b61019060085481565b6102266103753660046115f7565b61123f565b6101906103883660046115d7565b60056020525f908152604090205481565b6101906103a73660046116a5565b600760209081525f928352604080842090915290825290205481565b6102266103d13660046115d7565b6113ca565b6102266103e43660046115f7565b611491565b6101906103f73660046115d7565b60046020525f908152604090205481565b60018181548110610417575f80fd5b5f918252602090912001546001600160a01b0316905081565b5f805b600154811015610555575f60018281548110610451576104516116d6565b5f9182526020808320909101546001600160a01b0387811684526007835260408085209190921680855292528220549092509081900361049257505061054d565b6040516341976e0960e01b81526001600160a01b0383811660048301525f917f0000000000000000000000000000000000000000000000000000000000000000909116906341976e09906024016040805180830381865afa1580156104f9573d5f803e3d5ffd5b505050506040513d601f19601f8201168201806040525081019061051d91906116ea565b509050670de0b6b3a76400006105338284611720565b61053d919061173d565b610547908661175c565b94505050505b600101610433565b50919050565b610564336114bf565b5f811180156105955750335f9081526007602090815260408083206001600160a01b03861684529091529020548111155b6105d35760405162461bcd60e51b815260206004820152600a60248201526910905117d05353d5539560b21b60448201526064015b60405180910390fd5b335f9081526007602090815260408083206001600160a01b03861684529091528120805483929061060590849061176f565b90915550670de0b6b3a7640000905061061d33610eab565b10156106585760405162461bcd60e51b815260206004820152600a60248201526948465f544f4f5f4c4f5760b01b60448201526064016105ca565b60405163a9059cbb60e01b8152336004820152602481018290526001600160a01b0383169063a9059cbb906044016020604051808303815f875af11580156106a2573d5f803e3d5ffd5b505050506040513d601f19601f820116820180604052508101906106c69190611782565b6106e25760405162461bcd60e51b81526004016105ca906117a1565b5050565b6106ef336114bf565b5f8111801561070c5750335f908152600660205260409020548111155b6107455760405162461bcd60e51b815260206004820152600a60248201526910905117d05353d5539560b21b60448201526064016105ca565b6040516323b872dd60e01b81526001600160a01b037f000000000000000000000000000000000000000000000000000000000000000016906323b872dd90610795903390309086906004016117c8565b6020604051808303815f875af11580156107b1573d5f803e3d5ffd5b505050506040513d601f19601f820116820180604052508101906107d59190611782565b6107f15760405162461bcd60e51b81526004016105ca906117ec565b335f908152600660205260408120805483929061080f90849061176f565b909155505050565b5f546001600160a01b031633146108405760405162461bcd60e51b81526004016105ca90611818565b6001600160a01b0384165f9081526002602052604090205460ff16156108985760405162461bcd60e51b815260206004820152600d60248201526c1053149150511657d051111151609a1b60448201526064016105ca565b6001600160a01b039093165f818152600260209081526040808320805460ff1916600190811790915580548082019091557fb10e2d527612073b26eecdfd717e6a320cf44b4afac2b0732d9fcbe2b7fa0cf60180546001600160a01b031916851790559282526003815282822094909455600484528181209290925560059092522055565b5f546001600160a01b031633146109465760405162461bcd60e51b81526004016105ca90611818565b6040516323b872dd60e01b81526001600160a01b037f000000000000000000000000000000000000000000000000000000000000000016906323b872dd90610996903390309086906004016117c8565b6020604051808303815f875af11580156109b2573d5f803e3d5ffd5b505050506040513d601f19601f820116820180604052508101906109d69190611782565b6109f25760405162461bcd60e51b81526004016105ca906117ec565b50565b6109fe836114bf565b670de0b6b3a7640000610a1084610eab565b10610a455760405162461bcd60e51b815260206004820152600560248201526448465f4f4b60d81b60448201526064016105ca565b6040516323b872dd60e01b81526001600160a01b037f000000000000000000000000000000000000000000000000000000000000000016906323b872dd90610a95903390309087906004016117c8565b6020604051808303815f875af1158015610ab1573d5f803e3d5ffd5b505050506040513d601f19601f82011682018060405250810190610ad59190611782565b610af15760405162461bcd60e51b81526004016105ca906117ec565b6001600160a01b0383165f9081526006602052604081208054849290610b1890849061176f565b90915550506040516341976e0960e01b81526001600160a01b0382811660048301525f917f0000000000000000000000000000000000000000000000000000000000000000909116906341976e09906024016040805180830381865afa158015610b84573d5f803e3d5ffd5b505050506040513d601f19601f82011682018060405250810190610ba891906116ea565b506001600160a01b0383165f9081526005602052604081205491925082610bd786670de0b6b3a7640000611720565b610be1919061173d565b9050670de0b6b3a7640000610bf68383611720565b610c00919061173d565b610c0a908261175c565b6001600160a01b038088165f90815260076020908152604080832093891683529290522054909150811115610c815760405162461bcd60e51b815260206004820152601760248201527f494e53554646494349454e545f434f4c4c41544552414c00000000000000000060448201526064016105ca565b6001600160a01b038087165f90815260076020908152604080832093881683529290529081208054839290610cb790849061176f565b909155505060405163a9059cbb60e01b8152336004820152602481018290526001600160a01b0385169063a9059cbb906044016020604051808303815f875af1158015610d06573d5f803e3d5ffd5b505050506040513d601f19601f82011682018060405250810190610d2a9190611782565b610d465760405162461bcd60e51b81526004016105ca906117a1565b505050505050565b5f805f5b600154811015610ea4575f60018281548110610d7057610d706116d6565b5f9182526020808320909101546001600160a01b03888116845260078352604080852091909216808552925282205490925090819003610db1575050610e9c565b6040516341976e0960e01b81526001600160a01b0383811660048301525f917f0000000000000000000000000000000000000000000000000000000000000000909116906341976e09906024016040805180830381865afa158015610e18573d5f803e3d5ffd5b505050506040513d601f19601f82011682018060405250810190610e3c91906116ea565b506001600160a01b0384165f90815260036020526040902054909150670de0b6b3a76400008181610e6d8587611720565b610e77919061173d565b610e819190611720565b610e8b919061173d565b610e95908761175c565b9550505050505b600101610d52565b5092915050565b5f805f805b600154811015611002575f60018281548110610ece57610ece6116d6565b5f9182526020808320909101546001600160a01b03898116845260078352604080852091909216808552925282205490925090819003610f0f575050610ffa565b6040516341976e0960e01b81526001600160a01b0383811660048301525f917f0000000000000000000000000000000000000000000000000000000000000000909116906341976e09906024016040805180830381865afa158015610f76573d5f803e3d5ffd5b505050506040513d601f19601f82011682018060405250810190610f9a91906116ea565b506001600160a01b0384165f90815260046020526040902054909150670de0b6b3a76400008181610fcb8587611720565b610fd5919061173d565b610fdf9190611720565b610fe9919061173d565b610ff3908761175c565b9550505050505b600101610eb0565b506001600160a01b0384165f90815260066020526040812054900361102b57505f199392505050565b6001600160a01b0384165f9081526006602052604090205461105582670de0b6b3a7640000611720565b61105f919061173d565b949350505050565b6001600160a01b0382165f9081526002602052604090205460ff166110bc5760405162461bcd60e51b815260206004820152600b60248201526a1393d517d0531313d5d15160aa1b60448201526064016105ca565b5f81116110f95760405162461bcd60e51b815260206004820152600b60248201526a414d4f554e545f5a45524f60a81b60448201526064016105ca565b6040516323b872dd60e01b815282906001600160a01b038216906323b872dd9061112b903390309087906004016117c8565b6020604051808303815f875af1158015611147573d5f803e3d5ffd5b505050506040513d601f19601f8201168201806040525081019061116b9190611782565b6111875760405162461bcd60e51b81526004016105ca906117a1565b335f9081526007602090815260408083206001600160a01b0387168452909152812080548492906111b990849061175c565b9091555050505050565b5f546001600160a01b031633146111ec5760405162461bcd60e51b81526004016105ca90611818565b60405163a9059cbb60e01b8152336004820152602481018290527f00000000000000000000000000000000000000000000000000000000000000006001600160a01b03169063a9059cbb90604401610996565b611248336114bf565b5f81116112855760405162461bcd60e51b815260206004820152600b60248201526a414d4f554e545f5a45524f60a81b60448201526064016105ca565b5f61128f33610d4e565b335f9081526006602052604090205490915081906112ae90849061175c565b11156112ea5760405162461bcd60e51b815260206004820152600b60248201526a22ac21a2a2a229afa62a2b60a91b60448201526064016105ca565b335f908152600660205260408120805484929061130890849061175c565b9091555050335f81815260096020526040908190204290555163a9059cbb60e01b81526004810191909152602481018390526001600160a01b037f0000000000000000000000000000000000000000000000000000000000000000169063a9059cbb906044016020604051808303815f875af115801561138a573d5f803e3d5ffd5b505050506040513d601f19601f820116820180604052508101906113ae9190611782565b6106e25760405162461bcd60e51b81526004016105ca906117ec565b5f546001600160a01b031633146113f35760405162461bcd60e51b81526004016105ca90611818565b6001600160a01b0381166114385760405162461bcd60e51b815260206004820152600c60248201526b5a45524f5f4144445245535360a01b60448201526064016105ca565b5f80546040516001600160a01b03808516939216917f8be0079c531659141344cd1fd0a4f28419497f9722a3daafe3b4186f6b6457e091a35f80546001600160a01b0319166001600160a01b0392909216919091179055565b5f546001600160a01b031633146114ba5760405162461bcd60e51b81526004016105ca90611818565b600855565b6001600160a01b0381165f90815260096020526040812054908190036114fb57506001600160a01b03165f908152600960205260409020429055565b5f611506824261176f565b9050805f0361151457505050565b6008546001600160a01b0384165f908152600660205260408120549091670de0b6b3a7640000916301e1338091859161154d9190611720565b6115579190611720565b611561919061173d565b61156b919061173d565b6001600160a01b0385165f9081526006602052604081208054929350839290919061159790849061175c565b9091555050506001600160a01b039092165f9081526009602052604090204290555050565b80356001600160a01b03811681146115d2575f80fd5b919050565b5f602082840312156115e7575f80fd5b6115f0826115bc565b9392505050565b5f60208284031215611607575f80fd5b5035919050565b5f806040838503121561161f575f80fd5b611628836115bc565b946020939093013593505050565b5f805f8060808587031215611649575f80fd5b611652856115bc565b966020860135965060408601359560600135945092505050565b5f805f6060848603121561167e575f80fd5b611687846115bc565b92506020840135915061169c604085016115bc565b90509250925092565b5f80604083850312156116b6575f80fd5b6116bf836115bc565b91506116cd602084016115bc565b90509250929050565b634e487b7160e01b5f52603260045260245ffd5b5f80604083850312156116fb575f80fd5b505080516020909101519092909150565b634e487b7160e01b5f52601160045260245ffd5b80820281158282048414176117375761173761170c565b92915050565b5f8261175757634e487b7160e01b5f52601260045260245ffd5b500490565b808201808211156117375761173761170c565b818103818111156117375761173761170c565b5f60208284031215611792575f80fd5b815180151581146115f0575f80fd5b6020808252600d908201526c1514905394d1915497d1905253609a1b604082015260600190565b6001600160a01b039384168152919092166020820152604081019190915260600190565b6020808252601290820152711554d110d7d514905394d1915497d190525360721b604082015260600190565b6020808252600990820152682727aa2fa7aba722a960b91b60408201526060019056fea26469706673582212204d10aaa5e7fcf07f971585e5d54661839d3b5310b55fcda3961032066079600a64736f6c63430008170033","opcodes":"PUSH1 0xC0 PUSH1 0x40 MSTORE PUSH8 0x11C37937E080000 PUSH1 0x8 SSTORE CALLVALUE DUP1 ISZERO PUSH3 0x1C JUMPI PUSH0 DUP1 REVERT JUMPDEST POP PUSH1 0x40 MLOAD PUSH3 0x19BC CODESIZE SUB DUP1 PUSH3 0x19BC DUP4 CODECOPY DUP2 ADD PUSH1 0x40 DUP2 SWAP1 MSTORE PUSH3 0x3F SWAP2 PUSH3 0xB4 JUMP JUMPDEST PUSH1 0x1 PUSH1 0x1 PUSH1 0xA0 SHL SUB DUP1 DUP4 AND PUSH1 0x80 MSTORE DUP2 AND PUSH1 0xA0 MSTORE PUSH0 DUP1 SLOAD PUSH1 0x1 PUSH1 0x1 PUSH1 0xA0 SHL SUB NOT AND CALLER SWAP1 DUP2 OR DUP3 SSTORE PUSH1 0x40 MLOAD SWAP1 SWAP2 SWAP1 PUSH32 0x8BE0079C531659141344CD1FD0A4F28419497F9722A3DAAFE3B4186F6B6457E0 SWAP1 DUP3 SWAP1 LOG3 POP POP PUSH3 0xEA JUMP JUMPDEST DUP1 MLOAD PUSH1 0x1 PUSH1 0x1 PUSH1 0xA0 SHL SUB DUP2 AND DUP2 EQ PUSH3 0xAF JUMPI PUSH0 DUP1 REVERT JUMPDEST SWAP2 SWAP1 POP JUMP JUMPDEST PUSH0 DUP1 PUSH1 0x40 DUP4 DUP6 SUB SLT ISZERO PUSH3 0xC6 JUMPI PUSH0 DUP1 REVERT JUMPDEST PUSH3 0xD1 DUP4 PUSH3 0x98 JUMP JUMPDEST SWAP2 POP PUSH3 0xE1 PUSH1 0x20 DUP5 ADD PUSH3 0x98 JUMP JUMPDEST SWAP1 POP SWAP3 POP SWAP3 SWAP1 POP JUMP JUMPDEST PUSH1 0x80 MLOAD PUSH1 0xA0 MLOAD PUSH2 0x1871 PUSH3 0x14B PUSH0 CODECOPY PUSH0 DUP2 DUP2 PUSH2 0x2E5 ADD MSTORE DUP2 DUP2 PUSH2 0x4B3 ADD MSTORE DUP2 DUP2 PUSH2 0xB3E ADD MSTORE DUP2 DUP2 PUSH2 0xDD2 ADD MSTORE PUSH2 0xF30 ADD MSTORE PUSH0 DUP2 DUP2 PUSH2 0x240 ADD MSTORE DUP2 DUP2 PUSH2 0x75C ADD MSTORE DUP2 DUP2 PUSH2 0x95D ADD MSTORE DUP2 DUP2 PUSH2 0xA5C ADD MSTORE DUP2 DUP2 PUSH2 0x1208 ADD MSTORE PUSH2 0x1344 ADD MSTORE PUSH2 0x1871 PUSH0 RETURN INVALID PUSH1 0x80 PUSH1 0x40 MSTORE CALLVALUE DUP1 ISZERO PUSH2 0xF JUMPI PUSH0 DUP1 REVERT JUMPDEST POP PUSH1 0x4 CALLDATASIZE LT PUSH2 0x16D JUMPI PUSH0 CALLDATALOAD PUSH1 0xE0 SHR DUP1 PUSH4 0x6AD9F9DF GT PUSH2 0xD9 JUMPI DUP1 PUSH4 0xC00337C9 GT PUSH2 0x93 JUMPI DUP1 PUSH4 0xD8B7575D GT PUSH2 0x6E JUMPI DUP1 PUSH4 0xD8B7575D EQ PUSH2 0x399 JUMPI DUP1 PUSH4 0xF2FDE38B EQ PUSH2 0x3C3 JUMPI DUP1 PUSH4 0xF6785C8C EQ PUSH2 0x3D6 JUMPI DUP1 PUSH4 0xFADD12A2 EQ PUSH2 0x3E9 JUMPI PUSH0 DUP1 REVERT JUMPDEST DUP1 PUSH4 0xC00337C9 EQ PUSH2 0x35E JUMPI DUP1 PUSH4 0xC5EBEAEC EQ PUSH2 0x367 JUMPI DUP1 PUSH4 0xC823411C EQ PUSH2 0x37A JUMPI PUSH0 DUP1 REVERT JUMPDEST DUP1 PUSH4 0x6AD9F9DF EQ PUSH2 0x2CD JUMPI DUP1 PUSH4 0x7DC0D1D0 EQ PUSH2 0x2E0 JUMPI DUP1 PUSH4 0x8DA5CB5B EQ PUSH2 0x307 JUMPI DUP1 PUSH4 0xA5D5DB0C EQ PUSH2 0x319 JUMPI DUP1 PUSH4 0xA87430BA EQ PUSH2 0x32C JUMPI DUP1 PUSH4 0xB1BA3B74 EQ PUSH2 0x34B JUMPI PUSH0 DUP1 REVERT JUMPDEST DUP1 PUSH4 0x3E413BEE GT PUSH2 0x12A JUMPI DUP1 PUSH4 0x3E413BEE EQ PUSH2 0x23B JUMPI DUP1 PUSH4 0x40B2118D EQ PUSH2 0x262 JUMPI DUP1 PUSH4 0x47C63733 EQ PUSH2 0x275 JUMPI DUP1 PUSH4 0x4914C008 EQ PUSH2 0x288 JUMPI DUP1 PUSH4 0x4A3A6039 EQ PUSH2 0x29B JUMPI DUP1 PUSH4 0x53696EB8 EQ PUSH2 0x2BA JUMPI PUSH0 DUP1 REVERT JUMPDEST DUP1 PUSH4 0x1D24BFF EQ PUSH2 0x171 JUMPI DUP1 PUSH4 0xEE21E54 EQ PUSH2 0x1A3 JUMPI DUP1 PUSH4 0x24C1173B EQ PUSH2 0x1D5 JUMPI DUP1 PUSH4 0x25506D4E EQ PUSH2 0x200 JUMPI DUP1 PUSH4 0x350C35E9 EQ PUSH2 0x213 JUMPI DUP1 PUSH4 0x371FD8E6 EQ PUSH2 0x228 JUMPI JUMPDEST PUSH0 DUP1 REVERT JUMPDEST PUSH2 0x190 PUSH2 0x17F CALLDATASIZE PUSH1 0x4 PUSH2 0x15D7 JUMP JUMPDEST PUSH1 0x9 PUSH1 0x20 MSTORE PUSH0 SWAP1 DUP2 MSTORE PUSH1 0x40 SWAP1 KECCAK256 SLOAD DUP2 JUMP JUMPDEST PUSH1 0x40 MLOAD SWAP1 DUP2 MSTORE PUSH1 0x20 ADD JUMPDEST PUSH1 0x40 MLOAD DUP1 SWAP2 SUB SWAP1 RETURN JUMPDEST PUSH2 0x1C5 PUSH2 0x1B1 CALLDATASIZE PUSH1 0x4 PUSH2 0x15D7 JUMP JUMPDEST PUSH1 0x2 PUSH1 0x20 MSTORE PUSH0 SWAP1 DUP2 MSTORE PUSH1 0x40 SWAP1 KECCAK256 SLOAD PUSH1 0xFF AND DUP2 JUMP JUMPDEST PUSH1 0x40 MLOAD SWAP1 ISZERO ISZERO DUP2 MSTORE PUSH1 0x20 ADD PUSH2 0x19A JUMP JUMPDEST PUSH2 0x1E8 PUSH2 0x1E3 CALLDATASIZE PUSH1 0x4 PUSH2 0x15F7 JUMP JUMPDEST PUSH2 0x408 JUMP JUMPDEST PUSH1 0x40 MLOAD PUSH1 0x1 PUSH1 0x1 PUSH1 0xA0 SHL SUB SWAP1 SWAP2 AND DUP2 MSTORE PUSH1 0x20 ADD PUSH2 0x19A JUMP JUMPDEST PUSH2 0x190 PUSH2 0x20E CALLDATASIZE PUSH1 0x4 PUSH2 0x15D7 JUMP JUMPDEST PUSH2 0x430 JUMP JUMPDEST PUSH2 0x226 PUSH2 0x221 CALLDATASIZE PUSH1 0x4 PUSH2 0x160E JUMP JUMPDEST PUSH2 0x55B JUMP JUMPDEST STOP JUMPDEST PUSH2 0x226 PUSH2 0x236 CALLDATASIZE PUSH1 0x4 PUSH2 0x15F7 JUMP JUMPDEST PUSH2 0x6E6 JUMP JUMPDEST PUSH2 0x1E8 PUSH32 0x0 DUP2 JUMP JUMPDEST PUSH2 0x226 PUSH2 0x270 CALLDATASIZE PUSH1 0x4 PUSH2 0x1636 JUMP JUMPDEST PUSH2 0x817 JUMP JUMPDEST PUSH2 0x226 PUSH2 0x283 CALLDATASIZE PUSH1 0x4 PUSH2 0x15F7 JUMP JUMPDEST PUSH2 0x91D JUMP JUMPDEST PUSH2 0x226 PUSH2 0x296 CALLDATASIZE PUSH1 0x4 PUSH2 0x166C JUMP JUMPDEST PUSH2 0x9F5 JUMP JUMPDEST PUSH2 0x190 PUSH2 0x2A9 CALLDATASIZE PUSH1 0x4 PUSH2 0x15D7 JUMP JUMPDEST PUSH1 0x3 PUSH1 0x20 MSTORE PUSH0 SWAP1 DUP2 MSTORE PUSH1 0x40 SWAP1 KECCAK256 SLOAD DUP2 JUMP JUMPDEST PUSH2 0x190 PUSH2 0x2C8 CALLDATASIZE PUSH1 0x4 PUSH2 0x15D7 JUMP JUMPDEST PUSH2 0xD4E JUMP JUMPDEST PUSH2 0x190 PUSH2 0x2DB CALLDATASIZE PUSH1 0x4 PUSH2 0x15D7 JUMP JUMPDEST PUSH2 0xEAB JUMP JUMPDEST PUSH2 0x1E8 PUSH32 0x0 DUP2 JUMP JUMPDEST PUSH0 SLOAD PUSH2 0x1E8 SWAP1 PUSH1 0x1 PUSH1 0x1 PUSH1 0xA0 SHL SUB AND DUP2 JUMP JUMPDEST PUSH2 0x226 PUSH2 0x327 CALLDATASIZE PUSH1 0x4 PUSH2 0x160E JUMP JUMPDEST PUSH2 0x1067 JUMP JUMPDEST PUSH2 0x190 PUSH2 0x33A CALLDATASIZE PUSH1 0x4 PUSH2 0x15D7 JUMP JUMPDEST PUSH1 0x6 PUSH1 0x20 MSTORE PUSH0 SWAP1 DUP2 MSTORE PUSH1 0x40 SWAP1 KECCAK256 SLOAD DUP2 JUMP JUMPDEST PUSH2 0x226 PUSH2 0x359 CALLDATASIZE PUSH1 0x4 PUSH2 0x15F7 JUMP JUMPDEST PUSH2 0x11C3 JUMP JUMPDEST PUSH2 0x190 PUSH1 0x8 SLOAD DUP2 JUMP JUMPDEST PUSH2 0x226 PUSH2 0x375 CALLDATASIZE PUSH1 0x4 PUSH2 0x15F7 JUMP JUMPDEST PUSH2 0x123F JUMP JUMPDEST PUSH2 0x190 PUSH2 0x388 CALLDATASIZE PUSH1 0x4 PUSH2 0x15D7 JUMP JUMPDEST PUSH1 0x5 PUSH1 0x20 MSTORE PUSH0 SWAP1 DUP2 MSTORE PUSH1 0x40 SWAP1 KECCAK256 SLOAD DUP2 JUMP JUMPDEST PUSH2 0x190 PUSH2 0x3A7 CALLDATASIZE PUSH1 0x4 PUSH2 0x16A5 JUMP JUMPDEST PUSH1 0x7 PUSH1 0x20 SWAP1 DUP2 MSTORE PUSH0 SWAP3 DUP4 MSTORE PUSH1 0x40 DUP1 DUP5 KECCAK256 SWAP1 SWAP2 MSTORE SWAP1 DUP3 MSTORE SWAP1 KECCAK256 SLOAD DUP2 JUMP JUMPDEST PUSH2 0x226 PUSH2 0x3D1 CALLDATASIZE PUSH1 0x4 PUSH2 0x15D7 JUMP JUMPDEST PUSH2 0x13CA JUMP JUMPDEST PUSH2 0x226 PUSH2 0x3E4 CALLDATASIZE PUSH1 0x4 PUSH2 0x15F7 JUMP JUMPDEST PUSH2 0x1491 JUMP JUMPDEST PUSH2 0x190 PUSH2 0x3F7 CALLDATASIZE PUSH1 0x4 PUSH2 0x15D7 JUMP JUMPDEST PUSH1 0x4 PUSH1 0x20 MSTORE PUSH0 SWAP1 DUP2 MSTORE PUSH1 0x40 SWAP1 KECCAK256 SLOAD DUP2 JUMP JUMPDEST PUSH1 0x1 DUP2 DUP2 SLOAD DUP2 LT PUSH2 0x417 JUMPI PUSH0 DUP1 REVERT JUMPDEST PUSH0 SWAP2 DUP3 MSTORE PUSH1 0x20 SWAP1 SWAP2 KECCAK256 ADD SLOAD PUSH1 0x1 PUSH1 0x1 PUSH1 0xA0 SHL SUB AND SWAP1 POP DUP2 JUMP JUMPDEST PUSH0 DUP1 JUMPDEST PUSH1 0x1 SLOAD DUP2 LT ISZERO PUSH2 0x555 JUMPI PUSH0 PUSH1 0x1 DUP3 DUP2 SLOAD DUP2 LT PUSH2 0x451 JUMPI PUSH2 0x451 PUSH2 0x16D6 JUMP JUMPDEST PUSH0 SWAP2 DUP3 MSTORE PUSH1 0x20 DUP1 DUP4 KECCAK256 SWAP1 SWAP2 ADD SLOAD PUSH1 0x1 PUSH1 0x1 PUSH1 0xA0 SHL SUB DUP8 DUP2 AND DUP5 MSTORE PUSH1 0x7 DUP4 MSTORE PUSH1 0x40 DUP1 DUP6 KECCAK256 SWAP2 SWAP1 SWAP3 AND DUP1 DUP6 MSTORE SWAP3 MSTORE DUP3 KECCAK256 SLOAD SWAP1 SWAP3 POP SWAP1 DUP2 SWAP1 SUB PUSH2 0x492 JUMPI POP POP PUSH2 0x54D JUMP JUMPDEST PUSH1 0x40 MLOAD PUSH4 0x41976E09 PUSH1 0xE0 SHL DUP2 MSTORE PUSH1 0x1 PUSH1 0x1 PUSH1 0xA0 SHL SUB DUP4 DUP2 AND PUSH1 0x4 DUP4 ADD MSTORE PUSH0 SWAP2 PUSH32 0x0 SWAP1 SWAP2 AND SWAP1 PUSH4 0x41976E09 SWAP1 PUSH1 0x24 ADD PUSH1 0x40 DUP1 MLOAD DUP1 DUP4 SUB DUP2 DUP7 GAS STATICCALL ISZERO DUP1 ISZERO PUSH2 0x4F9 JUMPI RETURNDATASIZE PUSH0 DUP1 RETURNDATACOPY RETURNDATASIZE PUSH0 REVERT JUMPDEST POP POP POP POP PUSH1 0x40 MLOAD RETURNDATASIZE PUSH1 0x1F NOT PUSH1 0x1F DUP3 ADD AND DUP3 ADD DUP1 PUSH1 0x40 MSTORE POP DUP2 ADD SWAP1 PUSH2 0x51D SWAP2 SWAP1 PUSH2 0x16EA JUMP JUMPDEST POP SWAP1 POP PUSH8 0xDE0B6B3A7640000 PUSH2 0x533 DUP3 DUP5 PUSH2 0x1720 JUMP JUMPDEST PUSH2 0x53D SWAP2 SWAP1 PUSH2 0x173D JUMP JUMPDEST PUSH2 0x547 SWAP1 DUP7 PUSH2 0x175C JUMP JUMPDEST SWAP5 POP POP POP POP JUMPDEST PUSH1 0x1 ADD PUSH2 0x433 JUMP JUMPDEST POP SWAP2 SWAP1 POP JUMP JUMPDEST PUSH2 0x564 CALLER PUSH2 0x14BF JUMP JUMPDEST PUSH0 DUP2 GT DUP1 ISZERO PUSH2 0x595 JUMPI POP CALLER PUSH0 SWAP1 DUP2 MSTORE PUSH1 0x7 PUSH1 0x20 SWAP1 DUP2 MSTORE PUSH1 0x40 DUP1 DUP4 KECCAK256 PUSH1 0x1 PUSH1 0x1 PUSH1 0xA0 SHL SUB DUP7 AND DUP5 MSTORE SWAP1 SWAP2 MSTORE SWAP1 KECCAK256 SLOAD DUP2 GT ISZERO JUMPDEST PUSH2 0x5D3 JUMPI PUSH1 0x40 MLOAD PUSH3 0x461BCD PUSH1 0xE5 SHL DUP2 MSTORE PUSH1 0x20 PUSH1 0x4 DUP3 ADD MSTORE PUSH1 0xA PUSH1 0x24 DUP3 ADD MSTORE PUSH10 0x10905117D05353D55395 PUSH1 0xB2 SHL PUSH1 0x44 DUP3 ADD MSTORE PUSH1 0x64 ADD JUMPDEST PUSH1 0x40 MLOAD DUP1 SWAP2 SUB SWAP1 REVERT JUMPDEST CALLER PUSH0 SWAP1 DUP2 MSTORE PUSH1 0x7 PUSH1 0x20 SWAP1 DUP2 MSTORE PUSH1 0x40 DUP1 DUP4 KECCAK256 PUSH1 0x1 PUSH1 0x1 PUSH1 0xA0 SHL SUB DUP7 AND DUP5 MSTORE SWAP1 SWAP2 MSTORE DUP2 KECCAK256 DUP1 SLOAD DUP4 SWAP3 SWAP1 PUSH2 0x605 SWAP1 DUP5 SWAP1 PUSH2 0x176F JUMP JUMPDEST SWAP1 SWAP2 SSTORE POP PUSH8 0xDE0B6B3A7640000 SWAP1 POP PUSH2 0x61D CALLER PUSH2 0xEAB JUMP JUMPDEST LT ISZERO PUSH2 0x658 JUMPI PUSH1 0x40 MLOAD PUSH3 0x461BCD PUSH1 0xE5 SHL DUP2 MSTORE PUSH1 0x20 PUSH1 0x4 DUP3 ADD MSTORE PUSH1 0xA PUSH1 0x24 DUP3 ADD MSTORE PUSH10 0x48465F544F4F5F4C4F57 PUSH1 0xB0 SHL PUSH1 0x44 DUP3 ADD MSTORE PUSH1 0x64 ADD PUSH2 0x5CA JUMP JUMPDEST PUSH1 0x40 MLOAD PUSH4 0xA9059CBB PUSH1 0xE0 SHL DUP2 MSTORE CALLER PUSH1 0x4 DUP3 ADD MSTORE PUSH1 0x24 DUP2 ADD DUP3 SWAP1 MSTORE PUSH1 0x1 PUSH1 0x1 PUSH1 0xA0 SHL SUB DUP4 AND SWAP1 PUSH4 0xA9059CBB SWAP1 PUSH1 0x44 ADD PUSH1 0x20 PUSH1 0x40 MLOAD DUP1 DUP4 SUB DUP2 PUSH0 DUP8 GAS CALL ISZERO DUP1 ISZERO PUSH2 0x6A2 JUMPI RETURNDATASIZE PUSH0 DUP1 RETURNDATACOPY RETURNDATASIZE PUSH0 REVERT JUMPDEST POP POP POP POP PUSH1 0x40 MLOAD RETURNDATASIZE PUSH1 0x1F NOT PUSH1 0x1F DUP3 ADD AND DUP3 ADD DUP1 PUSH1 0x40 MSTORE POP DUP2 ADD SWAP1 PUSH2 0x6C6 SWAP2 SWAP1 PUSH2 0x1782 JUMP JUMPDEST PUSH2 0x6E2 JUMPI PUSH1 0x40 MLOAD PUSH3 0x461BCD PUSH1 0xE5 SHL DUP2 MSTORE PUSH1 0x4 ADD PUSH2 0x5CA SWAP1 PUSH2 0x17A1 JUMP JUMPDEST POP POP JUMP JUMPDEST PUSH2 0x6EF CALLER PUSH2 0x14BF JUMP JUMPDEST PUSH0 DUP2 GT DUP1 ISZERO PUSH2 0x70C JUMPI POP CALLER PUSH0 SWAP1 DUP2 MSTORE PUSH1 0x6 PUSH1 0x20 MSTORE PUSH1 0x40 SWAP1 KECCAK256 SLOAD DUP2 GT ISZERO JUMPDEST PUSH2 0x745 JUMPI PUSH1 0x40 MLOAD PUSH3 0x461BCD PUSH1 0xE5 SHL DUP2 MSTORE PUSH1 0x20 PUSH1 0x4 DUP3 ADD MSTORE PUSH1 0xA PUSH1 0x24 DUP3 ADD MSTORE PUSH10 0x10905117D05353D55395 PUSH1 0xB2 SHL PUSH1 0x44 DUP3 ADD MSTORE PUSH1 0x64 ADD PUSH2 0x5CA JUMP JUMPDEST PUSH1 0x40 MLOAD PUSH4 0x23B872DD PUSH1 0xE0 SHL DUP2 MSTORE PUSH1 0x1 PUSH1 0x1 PUSH1 0xA0 SHL SUB PUSH32 0x0 AND SWAP1 PUSH4 0x23B872DD SWAP1 PUSH2 0x795 SWAP1 CALLER SWAP1 ADDRESS SWAP1 DUP7 SWAP1 PUSH1 0x4 ADD PUSH2 0x17C8 JUMP JUMPDEST PUSH1 0x20 PUSH1 0x40 MLOAD DUP1 DUP4 SUB DUP2 PUSH0 DUP8 GAS CALL ISZERO DUP1 ISZERO PUSH2 0x7B1 JUMPI RETURNDATASIZE PUSH0 DUP1 RETURNDATACOPY RETURNDATASIZE PUSH0 REVERT JUMPDEST POP POP POP POP PUSH1 0x40 MLOAD RETURNDATASIZE PUSH1 0x1F NOT PUSH1 0x1F DUP3 ADD AND DUP3 ADD DUP1 PUSH1 0x40 MSTORE POP DUP2 ADD SWAP1 PUSH2 0x7D5 SWAP2 SWAP1 PUSH2 0x1782 JUMP JUMPDEST PUSH2 0x7F1 JUMPI PUSH1 0x40 MLOAD PUSH3 0x461BCD PUSH1 0xE5 SHL DUP2 MSTORE PUSH1 0x4 ADD PUSH2 0x5CA SWAP1 PUSH2 0x17EC JUMP JUMPDEST CALLER PUSH0 SWAP1 DUP2 MSTORE PUSH1 0x6 PUSH1 0x20 MSTORE PUSH1 0x40 DUP2 KECCAK256 DUP1 SLOAD DUP4 SWAP3 SWAP1 PUSH2 0x80F SWAP1 DUP5 SWAP1 PUSH2 0x176F JUMP JUMPDEST SWAP1 SWAP2 SSTORE POP POP POP JUMP JUMPDEST PUSH0 SLOAD PUSH1 0x1 PUSH1 0x1 PUSH1 0xA0 SHL SUB AND CALLER EQ PUSH2 0x840 JUMPI PUSH1 0x40 MLOAD PUSH3 0x461BCD PUSH1 0xE5 SHL DUP2 MSTORE PUSH1 0x4 ADD PUSH2 0x5CA SWAP1 PUSH2 0x1818 JUMP JUMPDEST PUSH1 0x1 PUSH1 0x1 PUSH1 0xA0 SHL SUB DUP5 AND PUSH0 SWAP1 DUP2 MSTORE PUSH1 0x2 PUSH1 0x20 MSTORE PUSH1 0x40 SWAP1 KECCAK256 SLOAD PUSH1 0xFF AND ISZERO PUSH2 0x898 JUMPI PUSH1 0x40 MLOAD PUSH3 0x461BCD PUSH1 0xE5 SHL DUP2 MSTORE PUSH1 0x20 PUSH1 0x4 DUP3 ADD MSTORE PUSH1 0xD PUSH1 0x24 DUP3 ADD MSTORE PUSH13 0x1053149150511657D051111151 PUSH1 0x9A SHL PUSH1 0x44 DUP3 ADD MSTORE PUSH1 0x64 ADD PUSH2 0x5CA JUMP JUMPDEST PUSH1 0x1 PUSH1 0x1 PUSH1 0xA0 SHL SUB SWAP1 SWAP4 AND PUSH0 DUP2 DUP2 MSTORE PUSH1 0x2 PUSH1 0x20 SWAP1 DUP2 MSTORE PUSH1 0x40 DUP1 DUP4 KECCAK256 DUP1 SLOAD PUSH1 0xFF NOT AND PUSH1 0x1 SWAP1 DUP2 OR SWAP1 SWAP2 SSTORE DUP1 SLOAD DUP1 DUP3 ADD SWAP1 SWAP2 SSTORE PUSH32 0xB10E2D527612073B26EECDFD717E6A320CF44B4AFAC2B0732D9FCBE2B7FA0CF6 ADD DUP1 SLOAD PUSH1 0x1 PUSH1 0x1 PUSH1 0xA0 SHL SUB NOT AND DUP6 OR SWAP1 SSTORE SWAP3 DUP3 MSTORE PUSH1 0x3 DUP2 MSTORE DUP3 DUP3 KECCAK256 SWAP5 SWAP1 SWAP5 SSTORE PUSH1 0x4 DUP5 MSTORE DUP2 DUP2 KECCAK256 SWAP3 SWAP1 SWAP3 SSTORE PUSH1 0x5 SWAP1 SWAP3 MSTORE KECCAK256 SSTORE JUMP JUMPDEST PUSH0 SLOAD PUSH1 0x1 PUSH1 0x1 PUSH1 0xA0 SHL SUB AND CALLER EQ PUSH2 0x946 JUMPI PUSH1 0x40 MLOAD PUSH3 0x461BCD PUSH1 0xE5 SHL DUP2 MSTORE PUSH1 0x4 ADD PUSH2 0x5CA SWAP1 PUSH2 0x1818 JUMP JUMPDEST PUSH1 0x40 MLOAD PUSH4 0x23B872DD PUSH1 0xE0 SHL DUP2 MSTORE PUSH1 0x1 PUSH1 0x1 PUSH1 0xA0 SHL SUB PUSH32 0x0 AND SWAP1 PUSH4 0x23B872DD SWAP1 PUSH2 0x996 SWAP1 CALLER SWAP1 ADDRESS SWAP1 DUP7 SWAP1 PUSH1 0x4 ADD PUSH2 0x17C8 JUMP JUMPDEST PUSH1 0x20 PUSH1 0x40 MLOAD DUP1 DUP4 SUB DUP2 PUSH0 DUP8 GAS CALL ISZERO DUP1 ISZERO PUSH2 0x9B2 JUMPI RETURNDATASIZE PUSH0 DUP1 RETURNDATACOPY RETURNDATASIZE PUSH0 REVERT JUMPDEST POP POP POP POP PUSH1 0x40 MLOAD RETURNDATASIZE PUSH1 0x1F NOT PUSH1 0x1F DUP3 ADD AND DUP3 ADD DUP1 PUSH1 0x40 MSTORE POP DUP2 ADD SWAP1 PUSH2 0x9D6 SWAP2 SWAP1 PUSH2 0x1782 JUMP JUMPDEST PUSH2 0x9F2 JUMPI PUSH1 0x40 MLOAD PUSH3 0x461BCD PUSH1 0xE5 SHL DUP2 MSTORE PUSH1 0x4 ADD PUSH2 0x5CA SWAP1 PUSH2 0x17EC JUMP JUMPDEST POP JUMP JUMPDEST PUSH2 0x9FE DUP4 PUSH2 0x14BF JUMP JUMPDEST PUSH8 0xDE0B6B3A7640000 PUSH2 0xA10 DUP5 PUSH2 0xEAB JUMP JUMPDEST LT PUSH2 0xA45 JUMPI PUSH1 0x40 MLOAD PUSH3 0x461BCD PUSH1 0xE5 SHL DUP2 MSTORE PUSH1 0x20 PUSH1 0x4 DUP3 ADD MSTORE PUSH1 0x5 PUSH1 0x24 DUP3 ADD MSTORE PUSH5 0x48465F4F4B PUSH1 0xD8 SHL PUSH1 0x44 DUP3 ADD MSTORE PUSH1 0x64 ADD PUSH2 0x5CA JUMP JUMPDEST PUSH1 0x40 MLOAD PUSH4 0x23B872DD PUSH1 0xE0 SHL DUP2 MSTORE PUSH1 0x1 PUSH1 0x1 PUSH1 0xA0 SHL SUB PUSH32 0x0 AND SWAP1 PUSH4 0x23B872DD SWAP1 PUSH2 0xA95 SWAP1 CALLER SWAP1 ADDRESS SWAP1 DUP8 SWAP1 PUSH1 0x4 ADD PUSH2 0x17C8 JUMP JUMPDEST PUSH1 0x20 PUSH1 0x40 MLOAD DUP1 DUP4 SUB DUP2 PUSH0 DUP8 GAS CALL ISZERO DUP1 ISZERO PUSH2 0xAB1 JUMPI RETURNDATASIZE PUSH0 DUP1 RETURNDATACOPY RETURNDATASIZE PUSH0 REVERT JUMPDEST POP POP POP POP PUSH1 0x40 MLOAD RETURNDATASIZE PUSH1 0x1F NOT PUSH1 0x1F DUP3 ADD AND DUP3 ADD DUP1 PUSH1 0x40 MSTORE POP DUP2 ADD SWAP1 PUSH2 0xAD5 SWAP2 SWAP1 PUSH2 0x1782 JUMP JUMPDEST PUSH2 0xAF1 JUMPI PUSH1 0x40 MLOAD PUSH3 0x461BCD PUSH1 0xE5 SHL DUP2 MSTORE PUSH1 0x4 ADD PUSH2 0x5CA SWAP1 PUSH2 0x17EC JUMP JUMPDEST PUSH1 0x1 PUSH1 0x1 PUSH1 0xA0 SHL SUB DUP4 AND PUSH0 SWAP1 DUP2 MSTORE PUSH1 0x6 PUSH1 0x20 MSTORE PUSH1 0x40 DUP2 KECCAK256 DUP1 SLOAD DUP5 SWAP3 SWAP1 PUSH2 0xB18 SWAP1 DUP5 SWAP1 PUSH2 0x176F JUMP JUMPDEST SWAP1 SWAP2 SSTORE POP POP PUSH1 0x40 MLOAD PUSH4 0x41976E09 PUSH1 0xE0 SHL DUP2 MSTORE PUSH1 0x1 PUSH1 0x1 PUSH1 0xA0 SHL SUB DUP3 DUP2 AND PUSH1 0x4 DUP4 ADD MSTORE PUSH0 SWAP2 PUSH32 0x0 SWAP1 SWAP2 AND SWAP1 PUSH4 0x41976E09 SWAP1 PUSH1 0x24 ADD PUSH1 0x40 DUP1 MLOAD DUP1 DUP4 SUB DUP2 DUP7 GAS STATICCALL ISZERO DUP1 ISZERO PUSH2 0xB84 JUMPI RETURNDATASIZE PUSH0 DUP1 RETURNDATACOPY RETURNDATASIZE PUSH0 REVERT JUMPDEST POP POP POP POP PUSH1 0x40 MLOAD RETURNDATASIZE PUSH1 0x1F NOT PUSH1 0x1F DUP3 ADD AND DUP3 ADD DUP1 PUSH1 0x40 MSTORE POP DUP2 ADD SWAP1 PUSH2 0xBA8 SWAP2 SWAP1 PUSH2 0x16EA JUMP JUMPDEST POP PUSH1 0x1 PUSH1 0x1 PUSH1 0xA0 SHL SUB DUP4 AND PUSH0 SWAP1 DUP2 MSTORE PUSH1 0x5 PUSH1 0x20 MSTORE PUSH1 0x40 DUP2 KECCAK256 SLOAD SWAP2 SWAP3 POP DUP3 PUSH2 0xBD7 DUP7 PUSH8 0xDE0B6B3A7640000 PUSH2 0x1720 JUMP JUMPDEST PUSH2 0xBE1 SWAP2 SWAP1 PUSH2 0x173D JUMP JUMPDEST SWAP1 POP PUSH8 0xDE0B6B3A7640000 PUSH2 0xBF6 DUP4 DUP4 PUSH2 0x1720 JUMP JUMPDEST PUSH2 0xC00 SWAP2 SWAP1 PUSH2 0x173D JUMP JUMPDEST PUSH2 0xC0A SWAP1 DUP3 PUSH2 0x175C JUMP JUMPDEST PUSH1 0x1 PUSH1 0x1 PUSH1 0xA0 SHL SUB DUP1 DUP9 AND PUSH0 SWAP1 DUP2 MSTORE PUSH1 0x7 PUSH1 0x20 SWAP1 DUP2 MSTORE PUSH1 0x40 DUP1 DUP4 KECCAK256 SWAP4 DUP10 AND DUP4 MSTORE SWAP3 SWAP1 MSTORE KECCAK256 SLOAD SWAP1 SWAP2 POP DUP2 GT ISZERO PUSH2 0xC81 JUMPI PUSH1 0x40 MLOAD PUSH3 0x461BCD PUSH1 0xE5 SHL DUP2 MSTORE PUSH1 0x20 PUSH1 0x4 DUP3 ADD MSTORE PUSH1 0x17 PUSH1 0x24 DUP3 ADD MSTORE PUSH32 0x494E53554646494349454E545F434F4C4C41544552414C000000000000000000 PUSH1 0x44 DUP3 ADD MSTORE PUSH1 0x64 ADD PUSH2 0x5CA JUMP JUMPDEST PUSH1 0x1 PUSH1 0x1 PUSH1 0xA0 SHL SUB DUP1 DUP8 AND PUSH0 SWAP1 DUP2 MSTORE PUSH1 0x7 PUSH1 0x20 SWAP1 DUP2 MSTORE PUSH1 0x40 DUP1 DUP4 KECCAK256 SWAP4 DUP9 AND DUP4 MSTORE SWAP3 SWAP1 MSTORE SWAP1 DUP2 KECCAK256 DUP1 SLOAD DUP4 SWAP3 SWAP1 PUSH2 0xCB7 SWAP1 DUP5 SWAP1 PUSH2 0x176F JUMP JUMPDEST SWAP1 SWAP2 SSTORE POP POP PUSH1 0x40 MLOAD PUSH4 0xA9059CBB PUSH1 0xE0 SHL DUP2 MSTORE CALLER PUSH1 0x4 DUP3 ADD MSTORE PUSH1 0x24 DUP2 ADD DUP3 SWAP1 MSTORE PUSH1 0x1 PUSH1 0x1 PUSH1 0xA0 SHL SUB DUP6 AND SWAP1 PUSH4 0xA9059CBB SWAP1 PUSH1 0x44 ADD PUSH1 0x20 PUSH1 0x40 MLOAD DUP1 DUP4 SUB DUP2 PUSH0 DUP8 GAS CALL ISZERO DUP1 ISZERO PUSH2 0xD06 JUMPI RETURNDATASIZE PUSH0 DUP1 RETURNDATACOPY RETURNDATASIZE PUSH0 REVERT JUMPDEST POP POP POP POP PUSH1 0x40 MLOAD RETURNDATASIZE PUSH1 0x1F NOT PUSH1 0x1F DUP3 ADD AND DUP3 ADD DUP1 PUSH1 0x40 MSTORE POP DUP2 ADD SWAP1 PUSH2 0xD2A SWAP2 SWAP1 PUSH2 0x1782 JUMP JUMPDEST PUSH2 0xD46 JUMPI PUSH1 0x40 MLOAD PUSH3 0x461BCD PUSH1 0xE5 SHL DUP2 MSTORE PUSH1 0x4 ADD PUSH2 0x5CA SWAP1 PUSH2 0x17A1 JUMP JUMPDEST POP POP POP POP POP POP JUMP JUMPDEST PUSH0 DUP1 PUSH0 JUMPDEST PUSH1 0x1 SLOAD DUP2 LT ISZERO PUSH2 0xEA4 JUMPI PUSH0 PUSH1 0x1 DUP3 DUP2 SLOAD DUP2 LT PUSH2 0xD70 JUMPI PUSH2 0xD70 PUSH2 0x16D6 JUMP JUMPDEST PUSH0 SWAP2 DUP3 MSTORE PUSH1 0x20 DUP1 DUP4 KECCAK256 SWAP1 SWAP2 ADD SLOAD PUSH1 0x1 PUSH1 0x1 PUSH1 0xA0 SHL SUB DUP9 DUP2 AND DUP5 MSTORE PUSH1 0x7 DUP4 MSTORE PUSH1 0x40 DUP1 DUP6 KECCAK256 SWAP2 SWAP1 SWAP3 AND DUP1 DUP6 MSTORE SWAP3 MSTORE DUP3 KECCAK256 SLOAD SWAP1 SWAP3 POP SWAP1 DUP2 SWAP1 SUB PUSH2 0xDB1 JUMPI POP POP PUSH2 0xE9C JUMP JUMPDEST PUSH1 0x40 MLOAD PUSH4 0x41976E09 PUSH1 0xE0 SHL DUP2 MSTORE PUSH1 0x1 PUSH1 0x1 PUSH1 0xA0 SHL SUB DUP4 DUP2 AND PUSH1 0x4 DUP4 ADD MSTORE PUSH0 SWAP2 PUSH32 0x0 SWAP1 SWAP2 AND SWAP1 PUSH4 0x41976E09 SWAP1 PUSH1 0x24 ADD PUSH1 0x40 DUP1 MLOAD DUP1 DUP4 SUB DUP2 DUP7 GAS STATICCALL ISZERO DUP1 ISZERO PUSH2 0xE18 JUMPI RETURNDATASIZE PUSH0 DUP1 RETURNDATACOPY RETURNDATASIZE PUSH0 REVERT JUMPDEST POP POP POP POP PUSH1 0x40 MLOAD RETURNDATASIZE PUSH1 0x1F NOT PUSH1 0x1F DUP3 ADD AND DUP3 ADD DUP1 PUSH1 0x40 MSTORE POP DUP2 ADD SWAP1 PUSH2 0xE3C SWAP2 SWAP1 PUSH2 0x16EA JUMP JUMPDEST POP PUSH1 0x1 PUSH1 0x1 PUSH1 0xA0 SHL SUB DUP5 AND PUSH0 SWAP1 DUP2 MSTORE PUSH1 0x3 PUSH1 0x20 MSTORE PUSH1 0x40 SWAP1 KECCAK256 SLOAD SWAP1 SWAP2 POP PUSH8 0xDE0B6B3A7640000 DUP2 DUP2 PUSH2 0xE6D DUP6 DUP8 PUSH2 0x1720 JUMP JUMPDEST PUSH2 0xE77 SWAP2 SWAP1 PUSH2 0x173D JUMP JUMPDEST PUSH2 0xE81 SWAP2 SWAP1 PUSH2 0x1720 JUMP JUMPDEST PUSH2 0xE8B SWAP2 SWAP1 PUSH2 0x173D JUMP JUMPDEST PUSH2 0xE95 SWAP1 DUP8 PUSH2 0x175C JUMP JUMPDEST SWAP6 POP POP POP POP POP JUMPDEST PUSH1 0x1 ADD PUSH2 0xD52 JUMP JUMPDEST POP SWAP3 SWAP2 POP POP JUMP JUMPDEST PUSH0 DUP1 PUSH0 DUP1 JUMPDEST PUSH1 0x1 SLOAD DUP2 LT ISZERO PUSH2 0x1002 JUMPI PUSH0 PUSH1 0x1 DUP3 DUP2 SLOAD DUP2 LT PUSH2 0xECE JUMPI PUSH2 0xECE PUSH2 0x16D6 JUMP JUMPDEST PUSH0 SWAP2 DUP3 MSTORE PUSH1 0x20 DUP1 DUP4 KECCAK256 SWAP1 SWAP2 ADD SLOAD PUSH1 0x1 PUSH1 0x1 PUSH1 0xA0 SHL SUB DUP10 DUP2 AND DUP5 MSTORE PUSH1 0x7 DUP4 MSTORE PUSH1 0x40 DUP1 DUP6 KECCAK256 SWAP2 SWAP1 SWAP3 AND DUP1 DUP6 MSTORE SWAP3 MSTORE DUP3 KECCAK256 SLOAD SWAP1 SWAP3 POP SWAP1 DUP2 SWAP1 SUB PUSH2 0xF0F JUMPI POP POP PUSH2 0xFFA JUMP JUMPDEST PUSH1 0x40 MLOAD PUSH4 0x41976E09 PUSH1 0xE0 SHL DUP2 MSTORE PUSH1 0x1 PUSH1 0x1 PUSH1 0xA0 SHL SUB DUP4 DUP2 AND PUSH1 0x4 DUP4 ADD MSTORE PUSH0 SWAP2 PUSH32 0x0 SWAP1 SWAP2 AND SWAP1 PUSH4 0x41976E09 SWAP1 PUSH1 0x24 ADD PUSH1 0x40 DUP1 MLOAD DUP1 DUP4 SUB DUP2 DUP7 GAS STATICCALL ISZERO DUP1 ISZERO PUSH2 0xF76 JUMPI RETURNDATASIZE PUSH0 DUP1 RETURNDATACOPY RETURNDATASIZE PUSH0 REVERT JUMPDEST POP POP POP POP PUSH1 0x40 MLOAD RETURNDATASIZE PUSH1 0x1F NOT PUSH1 0x1F DUP3 ADD AND DUP3 ADD DUP1 PUSH1 0x40 MSTORE POP DUP2 ADD SWAP1 PUSH2 0xF9A SWAP2 SWAP1 PUSH2 0x16EA JUMP JUMPDEST POP PUSH1 0x1 PUSH1 0x1 PUSH1 0xA0 SHL SUB DUP5 AND PUSH0 SWAP1 DUP2 MSTORE PUSH1 0x4 PUSH1 0x20 MSTORE PUSH1 0x40 SWAP1 KECCAK256 SLOAD SWAP1 SWAP2 POP PUSH8 0xDE0B6B3A7640000 DUP2 DUP2 PUSH2 0xFCB DUP6 DUP8 PUSH2 0x1720 JUMP JUMPDEST PUSH2 0xFD5 SWAP2 SWAP1 PUSH2 0x173D JUMP JUMPDEST PUSH2 0xFDF SWAP2 SWAP1 PUSH2 0x1720 JUMP JUMPDEST PUSH2 0xFE9 SWAP2 SWAP1 PUSH2 0x173D JUMP JUMPDEST PUSH2 0xFF3 SWAP1 DUP8 PUSH2 0x175C JUMP JUMPDEST SWAP6 POP POP POP POP POP JUMPDEST PUSH1 0x1 ADD PUSH2 0xEB0 JUMP JUMPDEST POP PUSH1 0x1 PUSH1 0x1 PUSH1 0xA0 SHL SUB DUP5 AND PUSH0 SWAP1 DUP2 MSTORE PUSH1 0x6 PUSH1 0x20 MSTORE PUSH1 0x40 DUP2 KECCAK256 SLOAD SWAP1 SUB PUSH2 0x102B JUMPI POP PUSH0 NOT SWAP4 SWAP3 POP POP POP JUMP JUMPDEST PUSH1 0x1 PUSH1 0x1 PUSH1 0xA0 SHL SUB DUP5 AND PUSH0 SWAP1 DUP2 MSTORE PUSH1 0x6 PUSH1 0x20 MSTORE PUSH1 0x40 SWAP1 KECCAK256 SLOAD PUSH2 0x1055 DUP3 PUSH8 0xDE0B6B3A7640000 PUSH2 0x1720 JUMP JUMPDEST PUSH2 0x105F SWAP2 SWAP1 PUSH2 0x173D JUMP JUMPDEST SWAP5 SWAP4 POP POP POP POP JUMP JUMPDEST PUSH1 0x1 PUSH1 0x1 PUSH1 0xA0 SHL SUB DUP3 AND PUSH0 SWAP1 DUP2 MSTORE PUSH1 0x2 PUSH1 0x20 MSTORE PUSH1 0x40 SWAP1 KECCAK256 SLOAD PUSH1 0xFF AND PUSH2 0x10BC JUMPI PUSH1 0x40 MLOAD PUSH3 0x461BCD PUSH1 0xE5 SHL DUP2 MSTORE PUSH1 0x20 PUSH1 0x4 DUP3 ADD MSTORE PUSH1 0xB PUSH1 0x24 DUP3 ADD MSTORE PUSH11 0x1393D517D0531313D5D151 PUSH1 0xAA SHL PUSH1 0x44 DUP3 ADD MSTORE PUSH1 0x64 ADD PUSH2 0x5CA JUMP JUMPDEST PUSH0 DUP2 GT PUSH2 0x10F9 JUMPI PUSH1 0x40 MLOAD PUSH3 0x461BCD PUSH1 0xE5 SHL DUP2 MSTORE PUSH1 0x20 PUSH1 0x4 DUP3 ADD MSTORE PUSH1 0xB PUSH1 0x24 DUP3 ADD MSTORE PUSH11 0x414D4F554E545F5A45524F PUSH1 0xA8 SHL PUSH1 0x44 DUP3 ADD MSTORE PUSH1 0x64 ADD PUSH2 0x5CA JUMP JUMPDEST PUSH1 0x40 MLOAD PUSH4 0x23B872DD PUSH1 0xE0 SHL DUP2 MSTORE DUP3 SWAP1 PUSH1 0x1 PUSH1 0x1 PUSH1 0xA0 SHL SUB DUP3 AND SWAP1 PUSH4 0x23B872DD SWAP1 PUSH2 0x112B SWAP1 CALLER SWAP1 ADDRESS SWAP1 DUP8 SWAP1 PUSH1 0x4 ADD PUSH2 0x17C8 JUMP JUMPDEST PUSH1 0x20 PUSH1 0x40 MLOAD DUP1 DUP4 SUB DUP2 PUSH0 DUP8 GAS CALL ISZERO DUP1 ISZERO PUSH2 0x1147 JUMPI RETURNDATASIZE PUSH0 DUP1 RETURNDATACOPY RETURNDATASIZE PUSH0 REVERT JUMPDEST POP POP POP POP PUSH1 0x40 MLOAD RETURNDATASIZE PUSH1 0x1F NOT PUSH1 0x1F DUP3 ADD AND DUP3 ADD DUP1 PUSH1 0x40 MSTORE POP DUP2 ADD SWAP1 PUSH2 0x116B SWAP2 SWAP1 PUSH2 0x1782 JUMP JUMPDEST PUSH2 0x1187 JUMPI PUSH1 0x40 MLOAD PUSH3 0x461BCD PUSH1 0xE5 SHL DUP2 MSTORE PUSH1 0x4 ADD PUSH2 0x5CA SWAP1 PUSH2 0x17A1 JUMP JUMPDEST CALLER PUSH0 SWAP1 DUP2 MSTORE PUSH1 0x7 PUSH1 0x20 SWAP1 DUP2 MSTORE PUSH1 0x40 DUP1 DUP4 KECCAK256 PUSH1 0x1 PUSH1 0x1 PUSH1 0xA0 SHL SUB DUP8 AND DUP5 MSTORE SWAP1 SWAP2 MSTORE DUP2 KECCAK256 DUP1 SLOAD DUP5 SWAP3 SWAP1 PUSH2 0x11B9 SWAP1 DUP5 SWAP1 PUSH2 0x175C JUMP JUMPDEST SWAP1 SWAP2 SSTORE POP POP POP POP POP JUMP JUMPDEST PUSH0 SLOAD PUSH1 0x1 PUSH1 0x1 PUSH1 0xA0 SHL SUB AND CALLER EQ PUSH2 0x11EC JUMPI PUSH1 0x40 MLOAD PUSH3 0x461BCD PUSH1 0xE5 SHL DUP2 MSTORE PUSH1 0x4 ADD PUSH2 0x5CA SWAP1 PUSH2 0x1818 JUMP JUMPDEST PUSH1 0x40 MLOAD PUSH4 0xA9059CBB PUSH1 0xE0 SHL DUP2 MSTORE CALLER PUSH1 0x4 DUP3 ADD MSTORE PUSH1 0x24 DUP2 ADD DUP3 SWAP1 MSTORE PUSH32 0x0 PUSH1 0x1 PUSH1 0x1 PUSH1 0xA0 SHL SUB AND SWAP1 PUSH4 0xA9059CBB SWAP1 PUSH1 0x44 ADD PUSH2 0x996 JUMP JUMPDEST PUSH2 0x1248 CALLER PUSH2 0x14BF JUMP JUMPDEST PUSH0 DUP2 GT PUSH2 0x1285 JUMPI PUSH1 0x40 MLOAD PUSH3 0x461BCD PUSH1 0xE5 SHL DUP2 MSTORE PUSH1 0x20 PUSH1 0x4 DUP3 ADD MSTORE PUSH1 0xB PUSH1 0x24 DUP3 ADD MSTORE PUSH11 0x414D4F554E545F5A45524F PUSH1 0xA8 SHL PUSH1 0x44 DUP3 ADD MSTORE PUSH1 0x64 ADD PUSH2 0x5CA JUMP JUMPDEST PUSH0 PUSH2 0x128F CALLER PUSH2 0xD4E JUMP JUMPDEST CALLER PUSH0 SWAP1 DUP2 MSTORE PUSH1 0x6 PUSH1 0x20 MSTORE PUSH1 0x40 SWAP1 KECCAK256 SLOAD SWAP1 SWAP2 POP DUP2 SWAP1 PUSH2 0x12AE SWAP1 DUP5 SWAP1 PUSH2 0x175C JUMP JUMPDEST GT ISZERO PUSH2 0x12EA JUMPI PUSH1 0x40 MLOAD PUSH3 0x461BCD PUSH1 0xE5 SHL DUP2 MSTORE PUSH1 0x20 PUSH1 0x4 DUP3 ADD MSTORE PUSH1 0xB PUSH1 0x24 DUP3 ADD MSTORE PUSH11 0x22AC21A2A2A229AFA62A2B PUSH1 0xA9 SHL PUSH1 0x44 DUP3 ADD MSTORE PUSH1 0x64 ADD PUSH2 0x5CA JUMP JUMPDEST CALLER PUSH0 SWAP1 DUP2 MSTORE PUSH1 0x6 PUSH1 0x20 MSTORE PUSH1 0x40 DUP2 KECCAK256 DUP1 SLOAD DUP5 SWAP3 SWAP1 PUSH2 0x1308 SWAP1 DUP5 SWAP1 PUSH2 0x175C JUMP JUMPDEST SWAP1 SWAP2 SSTORE POP POP CALLER PUSH0 DUP2 DUP2 MSTORE PUSH1 0x9 PUSH1 0x20 MSTORE PUSH1 0x40 SWAP1 DUP2 SWAP1 KECCAK256 TIMESTAMP SWAP1 SSTORE MLOAD PUSH4 0xA9059CBB PUSH1 0xE0 SHL DUP2 MSTORE PUSH1 0x4 DUP2 ADD SWAP2 SWAP1 SWAP2 MSTORE PUSH1 0x24 DUP2 ADD DUP4 SWAP1 MSTORE PUSH1 0x1 PUSH1 0x1 PUSH1 0xA0 SHL SUB PUSH32 0x0 AND SWAP1 PUSH4 0xA9059CBB SWAP1 PUSH1 0x44 ADD PUSH1 0x20 PUSH1 0x40 MLOAD DUP1 DUP4 SUB DUP2 PUSH0 DUP8 GAS CALL ISZERO DUP1 ISZERO PUSH2 0x138A JUMPI RETURNDATASIZE PUSH0 DUP1 RETURNDATACOPY RETURNDATASIZE PUSH0 REVERT JUMPDEST POP POP POP POP PUSH1 0x40 MLOAD RETURNDATASIZE PUSH1 0x1F NOT PUSH1 0x1F DUP3 ADD AND DUP3 ADD DUP1 PUSH1 0x40 MSTORE POP DUP2 ADD SWAP1 PUSH2 0x13AE SWAP2 SWAP1 PUSH2 0x1782 JUMP JUMPDEST PUSH2 0x6E2 JUMPI PUSH1 0x40 MLOAD PUSH3 0x461BCD PUSH1 0xE5 SHL DUP2 MSTORE PUSH1 0x4 ADD PUSH2 0x5CA SWAP1 PUSH2 0x17EC JUMP JUMPDEST PUSH0 SLOAD PUSH1 0x1 PUSH1 0x1 PUSH1 0xA0 SHL SUB AND CALLER EQ PUSH2 0x13F3 JUMPI PUSH1 0x40 MLOAD PUSH3 0x461BCD PUSH1 0xE5 SHL DUP2 MSTORE PUSH1 0x4 ADD PUSH2 0x5CA SWAP1 PUSH2 0x1818 JUMP JUMPDEST PUSH1 0x1 PUSH1 0x1 PUSH1 0xA0 SHL SUB DUP2 AND PUSH2 0x1438 JUMPI PUSH1 0x40 MLOAD PUSH3 0x461BCD PUSH1 0xE5 SHL DUP2 MSTORE PUSH1 0x20 PUSH1 0x4 DUP3 ADD MSTORE PUSH1 0xC PUSH1 0x24 DUP3 ADD MSTORE PUSH12 0x5A45524F5F41444452455353 PUSH1 0xA0 SHL PUSH1 0x44 DUP3 ADD MSTORE PUSH1 0x64 ADD PUSH2 0x5CA JUMP JUMPDEST PUSH0 DUP1 SLOAD PUSH1 0x40 MLOAD PUSH1 0x1 PUSH1 0x1 PUSH1 0xA0 SHL SUB DUP1 DUP6 AND SWAP4 SWAP3 AND SWAP2 PUSH32 0x8BE0079C531659141344CD1FD0A4F28419497F9722A3DAAFE3B4186F6B6457E0 SWAP2 LOG3 PUSH0 DUP1 SLOAD PUSH1 0x1 PUSH1 0x1 PUSH1 0xA0 SHL SUB NOT AND PUSH1 0x1 PUSH1 0x1 PUSH1 0xA0 SHL SUB SWAP3 SWAP1 SWAP3 AND SWAP2 SWAP1 SWAP2 OR SWAP1 SSTORE JUMP JUMPDEST PUSH0 SLOAD PUSH1 0x1 PUSH1 0x1 PUSH1 0xA0 SHL SUB AND CALLER EQ PUSH2 0x14BA JUMPI PUSH1 0x40 MLOAD PUSH3 0x461BCD PUSH1 0xE5 SHL DUP2 MSTORE PUSH1 0x4 ADD PUSH2 0x5CA SWAP1 PUSH2 0x1818 JUMP JUMPDEST PUSH1 0x8 SSTORE JUMP JUMPDEST PUSH1 0x1 PUSH1 0x1 PUSH1 0xA0 SHL SUB DUP2 AND PUSH0 SWAP1 DUP2 MSTORE PUSH1 0x9 PUSH1 0x20 MSTORE PUSH1 0x40 DUP2 KECCAK256 SLOAD SWAP1 DUP2 SWAP1 SUB PUSH2 0x14FB JUMPI POP PUSH1 0x1 PUSH1 0x1 PUSH1 0xA0 SHL SUB AND PUSH0 SWAP1 DUP2 MSTORE PUSH1 0x9 PUSH1 0x20 MSTORE PUSH1 0x40 SWAP1 KECCAK256 TIMESTAMP SWAP1 SSTORE JUMP JUMPDEST PUSH0 PUSH2 0x1506 DUP3 TIMESTAMP PUSH2 0x176F JUMP JUMPDEST SWAP1 POP DUP1 PUSH0 SUB PUSH2 0x1514 JUMPI POP POP POP JUMP JUMPDEST PUSH1 0x8 SLOAD PUSH1 0x1 PUSH1 0x1 PUSH1 0xA0 SHL SUB DUP5 AND PUSH0 SWAP1 DUP2 MSTORE PUSH1 0x6 PUSH1 0x20 MSTORE PUSH1 0x40 DUP2 KECCAK256 SLOAD SWAP1 SWAP2 PUSH8 0xDE0B6B3A7640000 SWAP2 PUSH4 0x1E13380 SWAP2 DUP6 SWAP2 PUSH2 0x154D SWAP2 SWAP1 PUSH2 0x1720 JUMP JUMPDEST PUSH2 0x1557 SWAP2 SWAP1 PUSH2 0x1720 JUMP JUMPDEST PUSH2 0x1561 SWAP2 SWAP1 PUSH2 0x173D JUMP JUMPDEST PUSH2 0x156B SWAP2 SWAP1 PUSH2 0x173D JUMP JUMPDEST PUSH1 0x1 PUSH1 0x1 PUSH1 0xA0 SHL SUB DUP6 AND PUSH0 SWAP1 DUP2 MSTORE PUSH1 0x6 PUSH1 0x20 MSTORE PUSH1 0x40 DUP2 KECCAK256 DUP1 SLOAD SWAP3 SWAP4 POP DUP4 SWAP3 SWAP1 SWAP2 SWAP1 PUSH2 0x1597 SWAP1 DUP5 SWAP1 PUSH2 0x175C JUMP JUMPDEST SWAP1 SWAP2 SSTORE POP POP POP PUSH1 0x1 PUSH1 0x1 PUSH1 0xA0 SHL SUB SWAP1 SWAP3 AND PUSH0 SWAP1 DUP2 MSTORE PUSH1 0x9 PUSH1 0x20 MSTORE PUSH1 0x40 SWAP1 KECCAK256 TIMESTAMP SWAP1 SSTORE POP POP JUMP JUMPDEST DUP1 CALLDATALOAD PUSH1 0x1 PUSH1 0x1 PUSH1 0xA0 SHL SUB DUP2 AND DUP2 EQ PUSH2 0x15D2 JUMPI PUSH0 DUP1 REVERT JUMPDEST SWAP2 SWAP1 POP JUMP JUMPDEST PUSH0 PUSH1 0x20 DUP3 DUP5 SUB SLT ISZERO PUSH2 0x15E7 JUMPI PUSH0 DUP1 REVERT JUMPDEST PUSH2 0x15F0 DUP3 PUSH2 0x15BC JUMP JUMPDEST SWAP4 SWAP3 POP POP POP JUMP JUMPDEST PUSH0 PUSH1 0x20 DUP3 DUP5 SUB SLT ISZERO PUSH2 0x1607 JUMPI PUSH0 DUP1 REVERT JUMPDEST POP CALLDATALOAD SWAP2 SWAP1 POP JUMP JUMPDEST PUSH0 DUP1 PUSH1 0x40 DUP4 DUP6 SUB SLT ISZERO PUSH2 0x161F JUMPI PUSH0 DUP1 REVERT JUMPDEST PUSH2 0x1628 DUP4 PUSH2 0x15BC JUMP JUMPDEST SWAP5 PUSH1 0x20 SWAP4 SWAP1 SWAP4 ADD CALLDATALOAD SWAP4 POP POP POP JUMP JUMPDEST PUSH0 DUP1 PUSH0 DUP1 PUSH1 0x80 DUP6 DUP8 SUB SLT ISZERO PUSH2 0x1649 JUMPI PUSH0 DUP1 REVERT JUMPDEST PUSH2 0x1652 DUP6 PUSH2 0x15BC JUMP JUMPDEST SWAP7 PUSH1 0x20 DUP7 ADD CALLDATALOAD SWAP7 POP PUSH1 0x40 DUP7 ADD CALLDATALOAD SWAP6 PUSH1 0x60 ADD CALLDATALOAD SWAP5 POP SWAP3 POP POP POP JUMP JUMPDEST PUSH0 DUP1 PUSH0 PUSH1 0x60 DUP5 DUP7 SUB SLT ISZERO PUSH2 0x167E JUMPI PUSH0 DUP1 REVERT JUMPDEST PUSH2 0x1687 DUP5 PUSH2 0x15BC JUMP JUMPDEST SWAP3 POP PUSH1 0x20 DUP5 ADD CALLDATALOAD SWAP2 POP PUSH2 0x169C PUSH1 0x40 DUP6 ADD PUSH2 0x15BC JUMP JUMPDEST SWAP1 POP SWAP3 POP SWAP3 POP SWAP3 JUMP JUMPDEST PUSH0 DUP1 PUSH1 0x40 DUP4 DUP6 SUB SLT ISZERO PUSH2 0x16B6 JUMPI PUSH0 DUP1 REVERT JUMPDEST PUSH2 0x16BF DUP4 PUSH2 0x15BC JUMP JUMPDEST SWAP2 POP PUSH2 0x16CD PUSH1 0x20 DUP5 ADD PUSH2 0x15BC JUMP JUMPDEST SWAP1 POP SWAP3 POP SWAP3 SWAP1 POP JUMP JUMPDEST PUSH4 0x4E487B71 PUSH1 0xE0 SHL PUSH0 MSTORE PUSH1 0x32 PUSH1 0x4 MSTORE PUSH1 0x24 PUSH0 REVERT JUMPDEST PUSH0 DUP1 PUSH1 0x40 DUP4 DUP6 SUB SLT ISZERO PUSH2 0x16FB JUMPI PUSH0 DUP1 REVERT JUMPDEST POP POP DUP1 MLOAD PUSH1 0x20 SWAP1 SWAP2 ADD MLOAD SWAP1 SWAP3 SWAP1 SWAP2 POP JUMP JUMPDEST PUSH4 0x4E487B71 PUSH1 0xE0 SHL PUSH0 MSTORE PUSH1 0x11 PUSH1 0x4 MSTORE PUSH1 0x24 PUSH0 REVERT JUMPDEST DUP1 DUP3 MUL DUP2 ISZERO DUP3 DUP3 DIV DUP5 EQ OR PUSH2 0x1737 JUMPI PUSH2 0x1737 PUSH2 0x170C JUMP JUMPDEST SWAP3 SWAP2 POP POP JUMP JUMPDEST PUSH0 DUP3 PUSH2 0x1757 JUMPI PUSH4 0x4E487B71 PUSH1 0xE0 SHL PUSH0 MSTORE PUSH1 0x12 PUSH1 0x4 MSTORE PUSH1 0x24 PUSH0 REVERT JUMPDEST POP DIV SWAP1 JUMP JUMPDEST DUP1 DUP3 ADD DUP1 DUP3 GT ISZERO PUSH2 0x1737 JUMPI PUSH2 0x1737 PUSH2 0x170C JUMP JUMPDEST DUP2 DUP2 SUB DUP2 DUP2 GT ISZERO PUSH2 0x1737 JUMPI PUSH2 0x1737 PUSH2 0x170C JUMP JUMPDEST PUSH0 PUSH1 0x20 DUP3 DUP5 SUB SLT ISZERO PUSH2 0x1792 JUMPI PUSH0 DUP1 REVERT JUMPDEST DUP2 MLOAD DUP1 ISZERO ISZERO DUP2 EQ PUSH2 0x15F0 JUMPI PUSH0 DUP1 REVERT JUMPDEST PUSH1 0x20 DUP1 DUP3 MSTORE PUSH1 0xD SWAP1 DUP3 ADD MSTORE PUSH13 0x1514905394D1915497D1905253 PUSH1 0x9A SHL PUSH1 0x40 DUP3 ADD MSTORE PUSH1 0x60 ADD SWAP1 JUMP JUMPDEST PUSH1 0x1 PUSH1 0x1 PUSH1 0xA0 SHL SUB SWAP4 DUP5 AND DUP2 MSTORE SWAP2 SWAP1 SWAP3 AND PUSH1 0x20 DUP3 ADD MSTORE PUSH1 0x40 DUP2 ADD SWAP2 SWAP1 SWAP2 MSTORE PUSH1 0x60 ADD SWAP1 JUMP JUMPDEST PUSH1 0x20 DUP1 DUP3 MSTORE PUSH1 0x12 SWAP1 DUP3 ADD MSTORE PUSH18 0x1554D110D7D514905394D1915497D1905253 PUSH1 0x72 SHL PUSH1 0x40 DUP3 ADD MSTORE PUSH1 0x60 ADD SWAP1 JUMP JUMPDEST PUSH1 0x20 DUP1 DUP3 MSTORE PUSH1 0x9 SWAP1 DUP3 ADD MSTORE PUSH9 0x2727AA2FA7ABA722A9 PUSH1 0xB9 SHL PUSH1 0x40 DUP3 ADD MSTORE PUSH1 0x60 ADD SWAP1 JUMP INVALID LOG2 PUSH5 0x6970667358 0x22 SLT KECCAK256 0x4D LT 0xAA 0xA5 0xE7 0xFC CREATE PUSH32 0x971585E5D54661839D3B5310B55FCDA3961032066079600A64736F6C63430008 OR STOP CALLER "},"methodIdentifiers":{"_collateralValue(address)":"25506d4e","addCollateralAsset(address,uint256,uint256,uint256)":"40b2118d","borrow(uint256)":"c5ebeaec","borrowAPR1e18()":"c00337c9","collateralOf(address,address)":"d8b7575d","collaterals(uint256)":"24c1173b","defundUSDC(uint256)":"b1ba3b74","depositCollateral(address,uint256)":"a5d5db0c","fundUSDC(uint256)":"47c63733","healthFactor(address)":"6ad9f9df","isCollateral(address)":"0ee21e54","lastAccrual(address)":"01d24bff","liqBonus1e18(address)":"c823411c","liqThreshold1e18(address)":"fadd12a2","liquidate(address,uint256,address)":"4914c008","ltv1e18(address)":"4a3a6039","maxBorrowable(address)":"53696eb8","oracle()":"7dc0d1d0","owner()":"8da5cb5b","repay(uint256)":"371fd8e6","setBorrowAPR(uint256)":"f6785c8c","transferOwnership(address)":"f2fde38b","usdc()":"3e413bee","users(address)":"a87430ba","withdrawCollateral(address,uint256)":"350c35e9"}}}}}