{
  "_format": "hh-sol-artifact-1",
  "contractName": "USDK",
  "sourceName": "contracts/USDK.sol",
  "abi": [
    {
      "inputs": [],
      "stateMutability": "nonpayable",
      "type": "constructor"
    },
    {
      "inputs": [],
      "name": "AccessControlBadConfirmation",
      "type": "error"
    },
    {
      "inputs": [
        {
          "internalType": "address",
          "name": "account",
          "type": "address"
        },
        {
          "internalType": "bytes32",
          "name": "neededRole",
          "type": "bytes32"
        }
      ],
      "name": "AccessControlUnauthorizedAccount",
      "type": "error"
    },
    {
      "inputs": [
        {
          "internalType": "address",
          "name": "spender",
          "type": "address"
        },
        {
          "internalType": "uint256",
          "name": "allowance",
          "type": "uint256"
        },
        {
          "internalType": "uint256",
          "name": "needed",
          "type": "uint256"
        }
      ],
      "name": "ERC20InsufficientAllowance",
      "type": "error"
    },
    {
      "inputs": [
        {
          "internalType": "address",
          "name": "sender",
          "type": "address"
        },
        {
          "internalType": "uint256",
          "name": "balance",
          "type": "uint256"
        },
        {
          "internalType": "uint256",
          "name": "needed",
          "type": "uint256"
        }
      ],
      "name": "ERC20InsufficientBalance",
      "type": "error"
    },
    {
      "inputs": [
        {
          "internalType": "address",
          "name": "approver",
          "type": "address"
        }
      ],
      "name": "ERC20InvalidApprover",
      "type": "error"
    },
    {
      "inputs": [
        {
          "internalType": "address",
          "name": "receiver",
          "type": "address"
        }
      ],
      "name": "ERC20InvalidReceiver",
      "type": "error"
    },
    {
      "inputs": [
        {
          "internalType": "address",
          "name": "sender",
          "type": "address"
        }
      ],
      "name": "ERC20InvalidSender",
      "type": "error"
    },
    {
      "inputs": [
        {
          "internalType": "address",
          "name": "spender",
          "type": "address"
        }
      ],
      "name": "ERC20InvalidSpender",
      "type": "error"
    },
    {
      "inputs": [],
      "name": "EnforcedPause",
      "type": "error"
    },
    {
      "inputs": [],
      "name": "ExpectedPause",
      "type": "error"
    },
    {
      "inputs": [],
      "name": "InvalidInitialization",
      "type": "error"
    },
    {
      "inputs": [],
      "name": "NotInitializing",
      "type": "error"
    },
    {
      "anonymous": false,
      "inputs": [
        {
          "indexed": true,
          "internalType": "address",
          "name": "owner",
          "type": "address"
        },
        {
          "indexed": true,
          "internalType": "address",
          "name": "spender",
          "type": "address"
        },
        {
          "indexed": false,
          "internalType": "uint256",
          "name": "value",
          "type": "uint256"
        }
      ],
      "name": "Approval",
      "type": "event"
    },
    {
      "anonymous": false,
      "inputs": [
        {
          "indexed": true,
          "internalType": "address",
          "name": "from",
          "type": "address"
        },
        {
          "indexed": false,
          "internalType": "uint256",
          "name": "value",
          "type": "uint256"
        },
        {
          "indexed": true,
          "internalType": "address",
          "name": "operator",
          "type": "address"
        }
      ],
      "name": "Burned",
      "type": "event"
    },
    {
      "anonymous": false,
      "inputs": [
        {
          "indexed": false,
          "internalType": "uint64",
          "name": "version",
          "type": "uint64"
        }
      ],
      "name": "Initialized",
      "type": "event"
    },
    {
      "anonymous": false,
      "inputs": [
        {
          "indexed": true,
          "internalType": "address",
          "name": "to",
          "type": "address"
        },
        {
          "indexed": false,
          "internalType": "uint256",
          "name": "value",
          "type": "uint256"
        },
        {
          "indexed": true,
          "internalType": "address",
          "name": "operator",
          "type": "address"
        }
      ],
      "name": "Minted",
      "type": "event"
    },
    {
      "anonymous": false,
      "inputs": [
        {
          "indexed": false,
          "internalType": "address",
          "name": "account",
          "type": "address"
        }
      ],
      "name": "Paused",
      "type": "event"
    },
    {
      "anonymous": false,
      "inputs": [
        {
          "indexed": true,
          "internalType": "bytes32",
          "name": "role",
          "type": "bytes32"
        },
        {
          "indexed": true,
          "internalType": "bytes32",
          "name": "previousAdminRole",
          "type": "bytes32"
        },
        {
          "indexed": true,
          "internalType": "bytes32",
          "name": "newAdminRole",
          "type": "bytes32"
        }
      ],
      "name": "RoleAdminChanged",
      "type": "event"
    },
    {
      "anonymous": false,
      "inputs": [
        {
          "indexed": true,
          "internalType": "bytes32",
          "name": "role",
          "type": "bytes32"
        },
        {
          "indexed": true,
          "internalType": "address",
          "name": "account",
          "type": "address"
        },
        {
          "indexed": true,
          "internalType": "address",
          "name": "sender",
          "type": "address"
        }
      ],
      "name": "RoleGranted",
      "type": "event"
    },
    {
      "anonymous": false,
      "inputs": [
        {
          "indexed": true,
          "internalType": "bytes32",
          "name": "role",
          "type": "bytes32"
        },
        {
          "indexed": true,
          "internalType": "address",
          "name": "account",
          "type": "address"
        },
        {
          "indexed": true,
          "internalType": "address",
          "name": "sender",
          "type": "address"
        }
      ],
      "name": "RoleRevoked",
      "type": "event"
    },
    {
      "anonymous": false,
      "inputs": [
        {
          "indexed": true,
          "internalType": "address",
          "name": "from",
          "type": "address"
        },
        {
          "indexed": true,
          "internalType": "address",
          "name": "to",
          "type": "address"
        },
        {
          "indexed": false,
          "internalType": "uint256",
          "name": "value",
          "type": "uint256"
        }
      ],
      "name": "Transfer",
      "type": "event"
    },
    {
      "anonymous": false,
      "inputs": [
        {
          "indexed": false,
          "internalType": "address",
          "name": "account",
          "type": "address"
        }
      ],
      "name": "Unpaused",
      "type": "event"
    },
    {
      "inputs": [],
      "name": "BURNER_ROLE",
      "outputs": [
        {
          "internalType": "bytes32",
          "name": "",
          "type": "bytes32"
        }
      ],
      "stateMutability": "view",
      "type": "function"
    },
    {
      "inputs": [],
      "name": "DEFAULT_ADMIN_ROLE",
      "outputs": [
        {
          "internalType": "bytes32",
          "name": "",
          "type": "bytes32"
        }
      ],
      "stateMutability": "view",
      "type": "function"
    },
    {
      "inputs": [],
      "name": "MINTER_ROLE",
      "outputs": [
        {
          "internalType": "bytes32",
          "name": "",
          "type": "bytes32"
        }
      ],
      "stateMutability": "view",
      "type": "function"
    },
    {
      "inputs": [],
      "name": "PAUSER_ROLE",
      "outputs": [
        {
          "internalType": "bytes32",
          "name": "",
          "type": "bytes32"
        }
      ],
      "stateMutability": "view",
      "type": "function"
    },
    {
      "inputs": [
        {
          "internalType": "address",
          "name": "owner",
          "type": "address"
        },
        {
          "internalType": "address",
          "name": "spender",
          "type": "address"
        }
      ],
      "name": "allowance",
      "outputs": [
        {
          "internalType": "uint256",
          "name": "",
          "type": "uint256"
        }
      ],
      "stateMutability": "view",
      "type": "function"
    },
    {
      "inputs": [
        {
          "internalType": "address",
          "name": "spender",
          "type": "address"
        },
        {
          "internalType": "uint256",
          "name": "value",
          "type": "uint256"
        }
      ],
      "name": "approve",
      "outputs": [
        {
          "internalType": "bool",
          "name": "",
          "type": "bool"
        }
      ],
      "stateMutability": "nonpayable",
      "type": "function"
    },
    {
      "inputs": [
        {
          "internalType": "address",
          "name": "account",
          "type": "address"
        }
      ],
      "name": "balanceOf",
      "outputs": [
        {
          "internalType": "uint256",
          "name": "",
          "type": "uint256"
        }
      ],
      "stateMutability": "view",
      "type": "function"
    },
    {
      "inputs": [
        {
          "internalType": "uint256",
          "name": "value",
          "type": "uint256"
        }
      ],
      "name": "burn",
      "outputs": [],
      "stateMutability": "nonpayable",
      "type": "function"
    },
    {
      "inputs": [
        {
          "internalType": "address",
          "name": "from",
          "type": "address"
        },
        {
          "internalType": "uint256",
          "name": "value",
          "type": "uint256"
        }
      ],
      "name": "burnFrom",
      "outputs": [],
      "stateMutability": "nonpayable",
      "type": "function"
    },
    {
      "inputs": [],
      "name": "decimals",
      "outputs": [
        {
          "internalType": "uint8",
          "name": "",
          "type": "uint8"
        }
      ],
      "stateMutability": "pure",
      "type": "function"
    },
    {
      "inputs": [
        {
          "internalType": "bytes32",
          "name": "role",
          "type": "bytes32"
        }
      ],
      "name": "getRoleAdmin",
      "outputs": [
        {
          "internalType": "bytes32",
          "name": "",
          "type": "bytes32"
        }
      ],
      "stateMutability": "view",
      "type": "function"
    },
    {
      "inputs": [
        {
          "internalType": "bytes32",
          "name": "role",
          "type": "bytes32"
        },
        {
          "internalType": "address",
          "name": "account",
          "type": "address"
        }
      ],
      "name": "grantRole",
      "outputs": [],
      "stateMutability": "nonpayable",
      "type": "function"
    },
    {
      "inputs": [
        {
          "internalType": "bytes32",
          "name": "role",
          "type": "bytes32"
        },
        {
          "internalType": "address",
          "name": "account",
          "type": "address"
        }
      ],
      "name": "hasRole",
      "outputs": [
        {
          "internalType": "bool",
          "name": "",
          "type": "bool"
        }
      ],
      "stateMutability": "view",
      "type": "function"
    },
    {
      "inputs": [
        {
          "internalType": "address",
          "name": "admin",
          "type": "address"
        }
      ],
      "name": "initialize",
      "outputs": [],
      "stateMutability": "nonpayable",
      "type": "function"
    },
    {
      "inputs": [
        {
          "internalType": "address",
          "name": "to",
          "type": "address"
        },
        {
          "internalType": "uint256",
          "name": "value",
          "type": "uint256"
        }
      ],
      "name": "mint",
      "outputs": [],
      "stateMutability": "nonpayable",
      "type": "function"
    },
    {
      "inputs": [],
      "name": "name",
      "outputs": [
        {
          "internalType": "string",
          "name": "",
          "type": "string"
        }
      ],
      "stateMutability": "view",
      "type": "function"
    },
    {
      "inputs": [],
      "name": "pause",
      "outputs": [],
      "stateMutability": "nonpayable",
      "type": "function"
    },
    {
      "inputs": [],
      "name": "paused",
      "outputs": [
        {
          "internalType": "bool",
          "name": "",
          "type": "bool"
        }
      ],
      "stateMutability": "view",
      "type": "function"
    },
    {
      "inputs": [
        {
          "internalType": "bytes32",
          "name": "role",
          "type": "bytes32"
        },
        {
          "internalType": "address",
          "name": "callerConfirmation",
          "type": "address"
        }
      ],
      "name": "renounceRole",
      "outputs": [],
      "stateMutability": "nonpayable",
      "type": "function"
    },
    {
      "inputs": [
        {
          "internalType": "bytes32",
          "name": "role",
          "type": "bytes32"
        },
        {
          "internalType": "address",
          "name": "account",
          "type": "address"
        }
      ],
      "name": "revokeRole",
      "outputs": [],
      "stateMutability": "nonpayable",
      "type": "function"
    },
    {
      "inputs": [
        {
          "internalType": "bytes4",
          "name": "interfaceId",
          "type": "bytes4"
        }
      ],
      "name": "supportsInterface",
      "outputs": [
        {
          "internalType": "bool",
          "name": "",
          "type": "bool"
        }
      ],
      "stateMutability": "view",
      "type": "function"
    },
    {
      "inputs": [],
      "name": "symbol",
      "outputs": [
        {
          "internalType": "string",
          "name": "",
          "type": "string"
        }
      ],
      "stateMutability": "view",
      "type": "function"
    },
    {
      "inputs": [],
      "name": "totalSupply",
      "outputs": [
        {
          "internalType": "uint256",
          "name": "",
          "type": "uint256"
        }
      ],
      "stateMutability": "view",
      "type": "function"
    },
    {
      "inputs": [
        {
          "internalType": "address",
          "name": "to",
          "type": "address"
        },
        {
          "internalType": "uint256",
          "name": "value",
          "type": "uint256"
        }
      ],
      "name": "transfer",
      "outputs": [
        {
          "internalType": "bool",
          "name": "",
          "type": "bool"
        }
      ],
      "stateMutability": "nonpayable",
      "type": "function"
    },
    {
      "inputs": [
        {
          "internalType": "address",
          "name": "from",
          "type": "address"
        },
        {
          "internalType": "address",
          "name": "to",
          "type": "address"
        },
        {
          "internalType": "uint256",
          "name": "value",
          "type": "uint256"
        }
      ],
      "name": "transferFrom",
      "outputs": [
        {
          "internalType": "bool",
          "name": "",
          "type": "bool"
        }
      ],
      "stateMutability": "nonpayable",
      "type": "function"
    },
    {
      "inputs": [],
      "name": "unpause",
      "outputs": [],
      "stateMutability": "nonpayable",
      "type": "function"
    }
  ],
  "bytecode": "0x608060405234801561001057600080fd5b5061001961001e565b6100d0565b7ff0c57e16840df040f15088dc2f81fe391c3923bec73e23a9662efc9c229c6a00805468010000000000000000900460ff161561006e5760405163f92ee8a960e01b815260040160405180910390fd5b80546001600160401b03908116146100cd5780546001600160401b0319166001600160401b0390811782556040519081527fc7f505b2f371ae2175ee4913f4499e1f2633a7b5936321eed1cdaeb6115181d29060200160405180910390a15b50565b61144e806100df6000396000f3fe608060405234801561001057600080fd5b506004361061018e5760003560e01c80635c975abb116100de578063a217fddf11610097578063d539139311610071578063d539139314610378578063d547741f1461039f578063dd62ed3e146103b2578063e63ab1e9146103c557600080fd5b8063a217fddf1461034a578063a9059cbb14610352578063c4d66de81461036557600080fd5b80635c975abb146102c657806370a08231146102de57806379cc6790146103145780638456cb591461032757806391d148541461032f57806395d89b411461034257600080fd5b8063282c51f31161014b57806336568abe1161012557806336568abe146102855780633f4ba83a1461029857806340c10f19146102a057806342966c68146102b357600080fd5b8063282c51f31461023a5780632f2ff15d14610261578063313ce5671461027657600080fd5b806301ffc9a71461019357806306fdde03146101bb578063095ea7b3146101d057806318160ddd146101e357806323b872dd14610214578063248a9ca314610227575b600080fd5b6101a66101a136600461109a565b6103da565b60405190151581526020015b60405180910390f35b6101c3610411565b6040516101b291906110c4565b6101a66101de36600461112f565b6104d4565b7f52c63247e1f47db19d5ce0460030c497f067ca4cebf71ba98eeadabe20bace02545b6040519081526020016101b2565b6101a6610222366004611159565b6104ec565b610206610235366004611195565b610509565b6102067f3c11d16cbaffd01df69ce1c404f6340ee057498f5f00246190ea54220576a84881565b61027461026f3660046111ae565b61052b565b005b604051600681526020016101b2565b6102746102933660046111ae565b61054d565b610274610585565b6102746102ae36600461112f565b6105a8565b6102746102c1366004611195565b61062a565b6000805160206113f98339815191525460ff166101a6565b6102066102ec3660046111da565b6001600160a01b03166000908152600080516020611399833981519152602052604090205490565b61027461032236600461112f565b610676565b6102746106ef565b6101a661033d3660046111ae565b61070f565b6101c3610747565b610206600081565b6101a661036036600461112f565b610786565b6102746103733660046111da565b6107a1565b6102067f9f2df0fed2c77648de5860a4cc508cd0818c85b8b8a1ab4ceeef8d981c8956a681565b6102746103ad3660046111ae565b61095c565b6102066103c03660046111f5565b610978565b6102066000805160206113b983398151915281565b60006001600160e01b03198216637965db0b60e01b148061040b57506301ffc9a760e01b6001600160e01b03198316145b92915050565b7f52c63247e1f47db19d5ce0460030c497f067ca4cebf71ba98eeadabe20bace038054606091600080516020611399833981519152916104509061121f565b80601f016020809104026020016040519081016040528092919081815260200182805461047c9061121f565b80156104c95780601f1061049e576101008083540402835291602001916104c9565b820191906000526020600020905b8154815290600101906020018083116104ac57829003601f168201915b505050505091505090565b6000336104e28185856109c2565b5060019392505050565b60006104f66109cf565b610501848484610a02565b949350505050565b60009081526000805160206113d9833981519152602052604090206001015490565b61053482610509565b61053d81610a26565b6105478383610a30565b50505050565b6001600160a01b03811633146105765760405163334bd91960e11b815260040160405180910390fd5b6105808282610ad5565b505050565b6000805160206113b983398151915261059d81610a26565b6105a5610b51565b50565b6105b06109cf565b7f9f2df0fed2c77648de5860a4cc508cd0818c85b8b8a1ab4ceeef8d981c8956a66105da81610a26565b6105e48383610bb1565b60405182815233906001600160a01b038516907ffd1ba5519feb014ad2f631cbd516bd3cec96be935749391554d122972593e7bf906020015b60405180910390a3505050565b6106326109cf565b61063c3382610beb565b604051818152339081907f4bec313b95a1f7373890b5d9dce4c4737945f27093ca8f3e357bec1219299eaf9060200160405180910390a350565b61067e6109cf565b7f3c11d16cbaffd01df69ce1c404f6340ee057498f5f00246190ea54220576a8486106a881610a26565b6106b28383610beb565b60405182815233906001600160a01b038516907f4bec313b95a1f7373890b5d9dce4c4737945f27093ca8f3e357bec1219299eaf9060200161061d565b6000805160206113b983398151915261070781610a26565b6105a5610c21565b60009182526000805160206113d9833981519152602090815260408084206001600160a01b0393909316845291905290205460ff1690565b7f52c63247e1f47db19d5ce0460030c497f067ca4cebf71ba98eeadabe20bace048054606091600080516020611399833981519152916104509061121f565b60006107906109cf565b61079a8383610c6a565b9392505050565b60006107ab610c78565b805490915060ff600160401b820416159067ffffffffffffffff166000811580156107d35750825b905060008267ffffffffffffffff1660011480156107f05750303b155b9050811580156107fe575080155b1561081c5760405163f92ee8a960e01b815260040160405180910390fd5b845467ffffffffffffffff19166001178555831561084657845460ff60401b1916600160401b1785555b6001600160a01b03861661088e5760405162461bcd60e51b815260206004820152600a6024820152692d22a927afa0a226a4a760b11b60448201526064015b60405180910390fd5b6108d96040518060400160405280600d81526020016c4b72797074616765205553444b60981b815250604051806040016040528060048152602001635553444b60e01b815250610ca1565b6108e1610cb3565b6108e9610cb3565b6108f4600087610a30565b5061090d6000805160206113b983398151915287610a30565b50831561095457845460ff60401b19168555604051600181527fc7f505b2f371ae2175ee4913f4499e1f2633a7b5936321eed1cdaeb6115181d29060200160405180910390a15b505050505050565b61096582610509565b61096e81610a26565b6105478383610ad5565b6001600160a01b0391821660009081527f52c63247e1f47db19d5ce0460030c497f067ca4cebf71ba98eeadabe20bace016020908152604080832093909416825291909152205490565b6105808383836001610cbb565b6000805160206113f98339815191525460ff1615610a005760405163d93c066560e01b815260040160405180910390fd5b565b600033610a10858285610da3565b610a1b858585610e04565b506001949350505050565b6105a58133610e63565b60006000805160206113d9833981519152610a4b848461070f565b610acb576000848152602082815260408083206001600160a01b03871684529091529020805460ff19166001179055610a813390565b6001600160a01b0316836001600160a01b0316857f2f8788117e7eff1d82e926ec794901d17c78024a50270940304540a733656f0d60405160405180910390a4600191505061040b565b600091505061040b565b60006000805160206113d9833981519152610af0848461070f565b15610acb576000848152602082815260408083206001600160a01b0387168085529252808320805460ff1916905551339287917ff6391f5c32d9c69d2a47ea670b442974b53935d1edc7fd64eb21e047a839171b9190a4600191505061040b565b610b59610e9c565b6000805160206113f9833981519152805460ff191681557f5db9ee0a495bf2e6ff9c91a7834c1ba4fdd244a5e8aa4e537bd38aeae4b073aa335b6040516001600160a01b03909116815260200160405180910390a150565b6001600160a01b038216610bdb5760405163ec442f0560e01b815260006004820152602401610885565b610be760008383610ecc565b5050565b6001600160a01b038216610c1557604051634b637e8f60e11b815260006004820152602401610885565b610be782600083610ecc565b610c296109cf565b6000805160206113f9833981519152805460ff191660011781557f62e78cea01bee320cd4e420270b5ea74000d11b0c9f74754ebdbfc544b05a25833610b93565b6000336104e2818585610e04565b6000807ff0c57e16840df040f15088dc2f81fe391c3923bec73e23a9662efc9c229c6a0061040b565b610ca961100a565b610be7828261102f565b610a0061100a565b6000805160206113998339815191526001600160a01b038516610cf45760405163e602df0560e01b815260006004820152602401610885565b6001600160a01b038416610d1e57604051634a1406b160e11b815260006004820152602401610885565b6001600160a01b03808616600090815260018301602090815260408083209388168352929052208390558115610d9c57836001600160a01b0316856001600160a01b03167f8c5be1e5ebec7d5bd14f71427d1e84f3dd0314c0f7b2291e5b200ac8c7c3b92585604051610d9391815260200190565b60405180910390a35b5050505050565b6000610daf8484610978565b90506000198110156105475781811015610df557604051637dc7a0d960e11b81526001600160a01b03841660048201526024810182905260448101839052606401610885565b61054784848484036000610cbb565b6001600160a01b038316610e2e57604051634b637e8f60e11b815260006004820152602401610885565b6001600160a01b038216610e585760405163ec442f0560e01b815260006004820152602401610885565b610580838383610ecc565b610e6d828261070f565b610be75760405163e2517d3f60e01b81526001600160a01b038216600482015260248101839052604401610885565b6000805160206113f98339815191525460ff16610a0057604051638dfc202b60e01b815260040160405180910390fd5b6000805160206113998339815191526001600160a01b038416610f085781816002016000828254610efd9190611259565b90915550610f7a9050565b6001600160a01b03841660009081526020829052604090205482811015610f5b5760405163391434e360e21b81526001600160a01b03861660048201526024810182905260448101849052606401610885565b6001600160a01b03851660009081526020839052604090209083900390555b6001600160a01b038316610f98576002810180548390039055610fb7565b6001600160a01b03831660009081526020829052604090208054830190555b826001600160a01b0316846001600160a01b03167fddf252ad1be2c89b69c2b068fc378daa952ba7f163c4a11628f55a4df523b3ef84604051610ffc91815260200190565b60405180910390a350505050565b611012611080565b610a0057604051631afcd79f60e31b815260040160405180910390fd5b61103761100a565b6000805160206113998339815191527f52c63247e1f47db19d5ce0460030c497f067ca4cebf71ba98eeadabe20bace0361107184826112d8565b506004810161054783826112d8565b600061108a610c78565b54600160401b900460ff16919050565b6000602082840312156110ac57600080fd5b81356001600160e01b03198116811461079a57600080fd5b60006020808352835180602085015260005b818110156110f2578581018301518582016040015282016110d6565b506000604082860101526040601f19601f8301168501019250505092915050565b80356001600160a01b038116811461112a57600080fd5b919050565b6000806040838503121561114257600080fd5b61114b83611113565b946020939093013593505050565b60008060006060848603121561116e57600080fd5b61117784611113565b925061118560208501611113565b9150604084013590509250925092565b6000602082840312156111a757600080fd5b5035919050565b600080604083850312156111c157600080fd5b823591506111d160208401611113565b90509250929050565b6000602082840312156111ec57600080fd5b61079a82611113565b6000806040838503121561120857600080fd5b61121183611113565b91506111d160208401611113565b600181811c9082168061123357607f821691505b60208210810361125357634e487b7160e01b600052602260045260246000fd5b50919050565b8082018082111561040b57634e487b7160e01b600052601160045260246000fd5b634e487b7160e01b600052604160045260246000fd5b601f821115610580576000816000526020600020601f850160051c810160208610156112b95750805b601f850160051c820191505b81811015610954578281556001016112c5565b815167ffffffffffffffff8111156112f2576112f261127a565b61130681611300845461121f565b84611290565b602080601f83116001811461133b57600084156113235750858301515b600019600386901b1c1916600185901b178555610954565b600085815260208120601f198616915b8281101561136a5788860151825594840194600190910190840161134b565b50858210156113885787850151600019600388901b60f8161c191681555b5050505050600190811b0190555056fe52c63247e1f47db19d5ce0460030c497f067ca4cebf71ba98eeadabe20bace0065d7a28e3265b37a6474929f336521b332c1681b933f6cb9f3376673440d862a02dd7bc7dec4dceedda775e58dd541e08a116c6c53815c0bd028192f7b626800cd5ed15c6e187e77e9aee88184c21f4f2182ab5827cb3b7e07fbedcd63f03300a264697066735822122009133e758a93e7c089182c0ca7103a768093b9b5d33a8073764d3228ee764a3464736f6c63430008170033",
  "linkReferences": {},
  "deployedLinkReferences": {}
}