{
  "_format": "hh3-artifact-1",
  "contractName": "USDK",
  "sourceName": "contracts/USDK.sol",
  "abi": [
    {
      "inputs": [],
      "stateMutability": "nonpayable",
      "type": "constructor"
    },
    {
      "inputs": [],
      "name": "AccessControlBadConfirmation",
      "type": "error"
    },
    {
      "inputs": [
        {
          "internalType": "address",
          "name": "account",
          "type": "address"
        },
        {
          "internalType": "bytes32",
          "name": "neededRole",
          "type": "bytes32"
        }
      ],
      "name": "AccessControlUnauthorizedAccount",
      "type": "error"
    },
    {
      "inputs": [
        {
          "internalType": "address",
          "name": "spender",
          "type": "address"
        },
        {
          "internalType": "uint256",
          "name": "allowance",
          "type": "uint256"
        },
        {
          "internalType": "uint256",
          "name": "needed",
          "type": "uint256"
        }
      ],
      "name": "ERC20InsufficientAllowance",
      "type": "error"
    },
    {
      "inputs": [
        {
          "internalType": "address",
          "name": "sender",
          "type": "address"
        },
        {
          "internalType": "uint256",
          "name": "balance",
          "type": "uint256"
        },
        {
          "internalType": "uint256",
          "name": "needed",
          "type": "uint256"
        }
      ],
      "name": "ERC20InsufficientBalance",
      "type": "error"
    },
    {
      "inputs": [
        {
          "internalType": "address",
          "name": "approver",
          "type": "address"
        }
      ],
      "name": "ERC20InvalidApprover",
      "type": "error"
    },
    {
      "inputs": [
        {
          "internalType": "address",
          "name": "receiver",
          "type": "address"
        }
      ],
      "name": "ERC20InvalidReceiver",
      "type": "error"
    },
    {
      "inputs": [
        {
          "internalType": "address",
          "name": "sender",
          "type": "address"
        }
      ],
      "name": "ERC20InvalidSender",
      "type": "error"
    },
    {
      "inputs": [
        {
          "internalType": "address",
          "name": "spender",
          "type": "address"
        }
      ],
      "name": "ERC20InvalidSpender",
      "type": "error"
    },
    {
      "inputs": [],
      "name": "EnforcedPause",
      "type": "error"
    },
    {
      "inputs": [],
      "name": "ExpectedPause",
      "type": "error"
    },
    {
      "inputs": [],
      "name": "InvalidInitialization",
      "type": "error"
    },
    {
      "inputs": [],
      "name": "NotInitializing",
      "type": "error"
    },
    {
      "anonymous": false,
      "inputs": [
        {
          "indexed": true,
          "internalType": "address",
          "name": "owner",
          "type": "address"
        },
        {
          "indexed": true,
          "internalType": "address",
          "name": "spender",
          "type": "address"
        },
        {
          "indexed": false,
          "internalType": "uint256",
          "name": "value",
          "type": "uint256"
        }
      ],
      "name": "Approval",
      "type": "event"
    },
    {
      "anonymous": false,
      "inputs": [
        {
          "indexed": true,
          "internalType": "address",
          "name": "from",
          "type": "address"
        },
        {
          "indexed": false,
          "internalType": "uint256",
          "name": "value",
          "type": "uint256"
        },
        {
          "indexed": true,
          "internalType": "address",
          "name": "operator",
          "type": "address"
        }
      ],
      "name": "Burned",
      "type": "event"
    },
    {
      "anonymous": false,
      "inputs": [
        {
          "indexed": false,
          "internalType": "uint64",
          "name": "version",
          "type": "uint64"
        }
      ],
      "name": "Initialized",
      "type": "event"
    },
    {
      "anonymous": false,
      "inputs": [
        {
          "indexed": true,
          "internalType": "address",
          "name": "to",
          "type": "address"
        },
        {
          "indexed": false,
          "internalType": "uint256",
          "name": "value",
          "type": "uint256"
        },
        {
          "indexed": true,
          "internalType": "address",
          "name": "operator",
          "type": "address"
        }
      ],
      "name": "Minted",
      "type": "event"
    },
    {
      "anonymous": false,
      "inputs": [
        {
          "indexed": false,
          "internalType": "address",
          "name": "account",
          "type": "address"
        }
      ],
      "name": "Paused",
      "type": "event"
    },
    {
      "anonymous": false,
      "inputs": [
        {
          "indexed": true,
          "internalType": "bytes32",
          "name": "role",
          "type": "bytes32"
        },
        {
          "indexed": true,
          "internalType": "bytes32",
          "name": "previousAdminRole",
          "type": "bytes32"
        },
        {
          "indexed": true,
          "internalType": "bytes32",
          "name": "newAdminRole",
          "type": "bytes32"
        }
      ],
      "name": "RoleAdminChanged",
      "type": "event"
    },
    {
      "anonymous": false,
      "inputs": [
        {
          "indexed": true,
          "internalType": "bytes32",
          "name": "role",
          "type": "bytes32"
        },
        {
          "indexed": true,
          "internalType": "address",
          "name": "account",
          "type": "address"
        },
        {
          "indexed": true,
          "internalType": "address",
          "name": "sender",
          "type": "address"
        }
      ],
      "name": "RoleGranted",
      "type": "event"
    },
    {
      "anonymous": false,
      "inputs": [
        {
          "indexed": true,
          "internalType": "bytes32",
          "name": "role",
          "type": "bytes32"
        },
        {
          "indexed": true,
          "internalType": "address",
          "name": "account",
          "type": "address"
        },
        {
          "indexed": true,
          "internalType": "address",
          "name": "sender",
          "type": "address"
        }
      ],
      "name": "RoleRevoked",
      "type": "event"
    },
    {
      "anonymous": false,
      "inputs": [
        {
          "indexed": true,
          "internalType": "address",
          "name": "from",
          "type": "address"
        },
        {
          "indexed": true,
          "internalType": "address",
          "name": "to",
          "type": "address"
        },
        {
          "indexed": false,
          "internalType": "uint256",
          "name": "value",
          "type": "uint256"
        }
      ],
      "name": "Transfer",
      "type": "event"
    },
    {
      "anonymous": false,
      "inputs": [
        {
          "indexed": false,
          "internalType": "address",
          "name": "account",
          "type": "address"
        }
      ],
      "name": "Unpaused",
      "type": "event"
    },
    {
      "inputs": [],
      "name": "BURNER_ROLE",
      "outputs": [
        {
          "internalType": "bytes32",
          "name": "",
          "type": "bytes32"
        }
      ],
      "stateMutability": "view",
      "type": "function"
    },
    {
      "inputs": [],
      "name": "DEFAULT_ADMIN_ROLE",
      "outputs": [
        {
          "internalType": "bytes32",
          "name": "",
          "type": "bytes32"
        }
      ],
      "stateMutability": "view",
      "type": "function"
    },
    {
      "inputs": [],
      "name": "MINTER_ROLE",
      "outputs": [
        {
          "internalType": "bytes32",
          "name": "",
          "type": "bytes32"
        }
      ],
      "stateMutability": "view",
      "type": "function"
    },
    {
      "inputs": [],
      "name": "PAUSER_ROLE",
      "outputs": [
        {
          "internalType": "bytes32",
          "name": "",
          "type": "bytes32"
        }
      ],
      "stateMutability": "view",
      "type": "function"
    },
    {
      "inputs": [
        {
          "internalType": "address",
          "name": "owner",
          "type": "address"
        },
        {
          "internalType": "address",
          "name": "spender",
          "type": "address"
        }
      ],
      "name": "allowance",
      "outputs": [
        {
          "internalType": "uint256",
          "name": "",
          "type": "uint256"
        }
      ],
      "stateMutability": "view",
      "type": "function"
    },
    {
      "inputs": [
        {
          "internalType": "address",
          "name": "spender",
          "type": "address"
        },
        {
          "internalType": "uint256",
          "name": "value",
          "type": "uint256"
        }
      ],
      "name": "approve",
      "outputs": [
        {
          "internalType": "bool",
          "name": "",
          "type": "bool"
        }
      ],
      "stateMutability": "nonpayable",
      "type": "function"
    },
    {
      "inputs": [
        {
          "internalType": "address",
          "name": "account",
          "type": "address"
        }
      ],
      "name": "balanceOf",
      "outputs": [
        {
          "internalType": "uint256",
          "name": "",
          "type": "uint256"
        }
      ],
      "stateMutability": "view",
      "type": "function"
    },
    {
      "inputs": [
        {
          "internalType": "uint256",
          "name": "value",
          "type": "uint256"
        }
      ],
      "name": "burn",
      "outputs": [],
      "stateMutability": "nonpayable",
      "type": "function"
    },
    {
      "inputs": [
        {
          "internalType": "address",
          "name": "from",
          "type": "address"
        },
        {
          "internalType": "uint256",
          "name": "value",
          "type": "uint256"
        }
      ],
      "name": "burnFrom",
      "outputs": [],
      "stateMutability": "nonpayable",
      "type": "function"
    },
    {
      "inputs": [],
      "name": "decimals",
      "outputs": [
        {
          "internalType": "uint8",
          "name": "",
          "type": "uint8"
        }
      ],
      "stateMutability": "pure",
      "type": "function"
    },
    {
      "inputs": [
        {
          "internalType": "bytes32",
          "name": "role",
          "type": "bytes32"
        }
      ],
      "name": "getRoleAdmin",
      "outputs": [
        {
          "internalType": "bytes32",
          "name": "",
          "type": "bytes32"
        }
      ],
      "stateMutability": "view",
      "type": "function"
    },
    {
      "inputs": [
        {
          "internalType": "bytes32",
          "name": "role",
          "type": "bytes32"
        },
        {
          "internalType": "address",
          "name": "account",
          "type": "address"
        }
      ],
      "name": "grantRole",
      "outputs": [],
      "stateMutability": "nonpayable",
      "type": "function"
    },
    {
      "inputs": [
        {
          "internalType": "bytes32",
          "name": "role",
          "type": "bytes32"
        },
        {
          "internalType": "address",
          "name": "account",
          "type": "address"
        }
      ],
      "name": "hasRole",
      "outputs": [
        {
          "internalType": "bool",
          "name": "",
          "type": "bool"
        }
      ],
      "stateMutability": "view",
      "type": "function"
    },
    {
      "inputs": [
        {
          "internalType": "address",
          "name": "admin",
          "type": "address"
        }
      ],
      "name": "initialize",
      "outputs": [],
      "stateMutability": "nonpayable",
      "type": "function"
    },
    {
      "inputs": [
        {
          "internalType": "address",
          "name": "to",
          "type": "address"
        },
        {
          "internalType": "uint256",
          "name": "value",
          "type": "uint256"
        }
      ],
      "name": "mint",
      "outputs": [],
      "stateMutability": "nonpayable",
      "type": "function"
    },
    {
      "inputs": [],
      "name": "name",
      "outputs": [
        {
          "internalType": "string",
          "name": "",
          "type": "string"
        }
      ],
      "stateMutability": "view",
      "type": "function"
    },
    {
      "inputs": [],
      "name": "pause",
      "outputs": [],
      "stateMutability": "nonpayable",
      "type": "function"
    },
    {
      "inputs": [],
      "name": "paused",
      "outputs": [
        {
          "internalType": "bool",
          "name": "",
          "type": "bool"
        }
      ],
      "stateMutability": "view",
      "type": "function"
    },
    {
      "inputs": [
        {
          "internalType": "bytes32",
          "name": "role",
          "type": "bytes32"
        },
        {
          "internalType": "address",
          "name": "callerConfirmation",
          "type": "address"
        }
      ],
      "name": "renounceRole",
      "outputs": [],
      "stateMutability": "nonpayable",
      "type": "function"
    },
    {
      "inputs": [
        {
          "internalType": "bytes32",
          "name": "role",
          "type": "bytes32"
        },
        {
          "internalType": "address",
          "name": "account",
          "type": "address"
        }
      ],
      "name": "revokeRole",
      "outputs": [],
      "stateMutability": "nonpayable",
      "type": "function"
    },
    {
      "inputs": [
        {
          "internalType": "bytes4",
          "name": "interfaceId",
          "type": "bytes4"
        }
      ],
      "name": "supportsInterface",
      "outputs": [
        {
          "internalType": "bool",
          "name": "",
          "type": "bool"
        }
      ],
      "stateMutability": "view",
      "type": "function"
    },
    {
      "inputs": [],
      "name": "symbol",
      "outputs": [
        {
          "internalType": "string",
          "name": "",
          "type": "string"
        }
      ],
      "stateMutability": "view",
      "type": "function"
    },
    {
      "inputs": [],
      "name": "totalSupply",
      "outputs": [
        {
          "internalType": "uint256",
          "name": "",
          "type": "uint256"
        }
      ],
      "stateMutability": "view",
      "type": "function"
    },
    {
      "inputs": [
        {
          "internalType": "address",
          "name": "to",
          "type": "address"
        },
        {
          "internalType": "uint256",
          "name": "value",
          "type": "uint256"
        }
      ],
      "name": "transfer",
      "outputs": [
        {
          "internalType": "bool",
          "name": "",
          "type": "bool"
        }
      ],
      "stateMutability": "nonpayable",
      "type": "function"
    },
    {
      "inputs": [
        {
          "internalType": "address",
          "name": "from",
          "type": "address"
        },
        {
          "internalType": "address",
          "name": "to",
          "type": "address"
        },
        {
          "internalType": "uint256",
          "name": "value",
          "type": "uint256"
        }
      ],
      "name": "transferFrom",
      "outputs": [
        {
          "internalType": "bool",
          "name": "",
          "type": "bool"
        }
      ],
      "stateMutability": "nonpayable",
      "type": "function"
    },
    {
      "inputs": [],
      "name": "unpause",
      "outputs": [],
      "stateMutability": "nonpayable",
      "type": "function"
    }
  ],
  "bytecode": "0x608060405234801561000f575f80fd5b5061001861001d565b6100cf565b7ff0c57e16840df040f15088dc2f81fe391c3923bec73e23a9662efc9c229c6a00805468010000000000000000900460ff161561006d5760405163f92ee8a960e01b815260040160405180910390fd5b80546001600160401b03908116146100cc5780546001600160401b0319166001600160401b0390811782556040519081527fc7f505b2f371ae2175ee4913f4499e1f2633a7b5936321eed1cdaeb6115181d29060200160405180910390a15b50565b6113e9806100dc5f395ff3fe608060405234801561000f575f80fd5b5060043610610187575f3560e01c80635c975abb116100d9578063a217fddf11610093578063d53913931161006e578063d53913931461036c578063d547741f14610393578063dd62ed3e146103a6578063e63ab1e9146103b9575f80fd5b8063a217fddf1461033f578063a9059cbb14610346578063c4d66de814610359575f80fd5b80635c975abb146102be57806370a08231146102d557806379cc6790146103095780638456cb591461031c57806391d148541461032457806395d89b4114610337575f80fd5b8063282c51f31161014457806336568abe1161011f57806336568abe1461027d5780633f4ba83a1461029057806340c10f191461029857806342966c68146102ab575f80fd5b8063282c51f3146102325780632f2ff15d14610259578063313ce5671461026e575f80fd5b806301ffc9a71461018b57806306fdde03146101b3578063095ea7b3146101c857806318160ddd146101db57806323b872dd1461020c578063248a9ca31461021f575b5f80fd5b61019e610199366004611057565b6103cd565b60405190151581526020015b60405180910390f35b6101bb610403565b6040516101aa919061107e565b61019e6101d63660046110e5565b6104c3565b7f52c63247e1f47db19d5ce0460030c497f067ca4cebf71ba98eeadabe20bace02545b6040519081526020016101aa565b61019e61021a36600461110d565b6104da565b6101fe61022d366004611146565b6104f6565b6101fe7f3c11d16cbaffd01df69ce1c404f6340ee057498f5f00246190ea54220576a84881565b61026c61026736600461115d565b610516565b005b604051600681526020016101aa565b61026c61028b36600461115d565b610538565b61026c610570565b61026c6102a63660046110e5565b610592565b61026c6102b9366004611146565b610614565b5f805160206113948339815191525460ff1661019e565b6101fe6102e3366004611187565b6001600160a01b03165f9081525f80516020611334833981519152602052604090205490565b61026c6103173660046110e5565b610660565b61026c6106d9565b61019e61033236600461115d565b6106f8565b6101bb61072e565b6101fe5f81565b61019e6103543660046110e5565b61076c565b61026c610367366004611187565b610786565b6101fe7f9f2df0fed2c77648de5860a4cc508cd0818c85b8b8a1ab4ceeef8d981c8956a681565b61026c6103a136600461115d565b61093c565b6101fe6103b43660046111a0565b610958565b6101fe5f8051602061135483398151915281565b5f6001600160e01b03198216637965db0b60e01b14806103fd57506301ffc9a760e01b6001600160e01b03198316145b92915050565b7f52c63247e1f47db19d5ce0460030c497f067ca4cebf71ba98eeadabe20bace0380546060915f8051602061133483398151915291610441906111c8565b80601f016020809104026020016040519081016040528092919081815260200182805461046d906111c8565b80156104b85780601f1061048f576101008083540402835291602001916104b8565b820191905f5260205f20905b81548152906001019060200180831161049b57829003601f168201915b505050505091505090565b5f336104d08185856109a1565b5060019392505050565b5f6104e36109ae565b6104ee8484846109e0565b949350505050565b5f9081525f80516020611374833981519152602052604090206001015490565b61051f826104f6565b61052881610a03565b6105328383610a0d565b50505050565b6001600160a01b03811633146105615760405163334bd91960e11b815260040160405180910390fd5b61056b8282610aae565b505050565b5f8051602061135483398151915261058781610a03565b61058f610b27565b50565b61059a6109ae565b7f9f2df0fed2c77648de5860a4cc508cd0818c85b8b8a1ab4ceeef8d981c8956a66105c481610a03565b6105ce8383610b86565b60405182815233906001600160a01b038516907ffd1ba5519feb014ad2f631cbd516bd3cec96be935749391554d122972593e7bf906020015b60405180910390a3505050565b61061c6109ae565b6106263382610bbe565b604051818152339081907f4bec313b95a1f7373890b5d9dce4c4737945f27093ca8f3e357bec1219299eaf9060200160405180910390a350565b6106686109ae565b7f3c11d16cbaffd01df69ce1c404f6340ee057498f5f00246190ea54220576a84861069281610a03565b61069c8383610bbe565b60405182815233906001600160a01b038516907f4bec313b95a1f7373890b5d9dce4c4737945f27093ca8f3e357bec1219299eaf90602001610607565b5f805160206113548339815191526106f081610a03565b61058f610bf2565b5f9182525f80516020611374833981519152602090815260408084206001600160a01b0393909316845291905290205460ff1690565b7f52c63247e1f47db19d5ce0460030c497f067ca4cebf71ba98eeadabe20bace0480546060915f8051602061133483398151915291610441906111c8565b5f6107756109ae565b61077f8383610c3a565b9392505050565b5f61078f610c47565b805490915060ff600160401b820416159067ffffffffffffffff165f811580156107b65750825b90505f8267ffffffffffffffff1660011480156107d25750303b155b9050811580156107e0575080155b156107fe5760405163f92ee8a960e01b815260040160405180910390fd5b845467ffffffffffffffff19166001178555831561082857845460ff60401b1916600160401b1785555b6001600160a01b0386166108705760405162461bcd60e51b815260206004820152600a6024820152692d22a927afa0a226a4a760b11b60448201526064015b60405180910390fd5b6108bb6040518060400160405280600d81526020016c4b72797074616765205553444b60981b815250604051806040016040528060048152602001635553444b60e01b815250610c6f565b6108c3610c81565b6108cb610c81565b6108d55f87610a0d565b506108ed5f8051602061135483398151915287610a0d565b50831561093457845460ff60401b19168555604051600181527fc7f505b2f371ae2175ee4913f4499e1f2633a7b5936321eed1cdaeb6115181d29060200160405180910390a15b505050505050565b610945826104f6565b61094e81610a03565b6105328383610aae565b6001600160a01b039182165f9081527f52c63247e1f47db19d5ce0460030c497f067ca4cebf71ba98eeadabe20bace016020908152604080832093909416825291909152205490565b61056b8383836001610c89565b5f805160206113948339815191525460ff16156109de5760405163d93c066560e01b815260040160405180910390fd5b565b5f336109ed858285610d6d565b6109f8858585610dcb565b506001949350505050565b61058f8133610e28565b5f5f80516020611374833981519152610a2684846106f8565b610aa5575f848152602082815260408083206001600160a01b03871684529091529020805460ff19166001179055610a5b3390565b6001600160a01b0316836001600160a01b0316857f2f8788117e7eff1d82e926ec794901d17c78024a50270940304540a733656f0d60405160405180910390a460019150506103fd565b5f9150506103fd565b5f5f80516020611374833981519152610ac784846106f8565b15610aa5575f848152602082815260408083206001600160a01b0387168085529252808320805460ff1916905551339287917ff6391f5c32d9c69d2a47ea670b442974b53935d1edc7fd64eb21e047a839171b9190a460019150506103fd565b610b2f610e61565b5f80516020611394833981519152805460ff191681557f5db9ee0a495bf2e6ff9c91a7834c1ba4fdd244a5e8aa4e537bd38aeae4b073aa335b6040516001600160a01b03909116815260200160405180910390a150565b6001600160a01b038216610baf5760405163ec442f0560e01b81525f6004820152602401610867565b610bba5f8383610e90565b5050565b6001600160a01b038216610be757604051634b637e8f60e11b81525f6004820152602401610867565b610bba825f83610e90565b610bfa6109ae565b5f80516020611394833981519152805460ff191660011781557f62e78cea01bee320cd4e420270b5ea74000d11b0c9f74754ebdbfc544b05a25833610b68565b5f336104d0818585610dcb565b5f807ff0c57e16840df040f15088dc2f81fe391c3923bec73e23a9662efc9c229c6a006103fd565b610c77610fc9565b610bba8282610fee565b6109de610fc9565b5f805160206113348339815191526001600160a01b038516610cc05760405163e602df0560e01b81525f6004820152602401610867565b6001600160a01b038416610ce957604051634a1406b160e11b81525f6004820152602401610867565b6001600160a01b038086165f90815260018301602090815260408083209388168352929052208390558115610d6657836001600160a01b0316856001600160a01b03167f8c5be1e5ebec7d5bd14f71427d1e84f3dd0314c0f7b2291e5b200ac8c7c3b92585604051610d5d91815260200190565b60405180910390a35b5050505050565b5f610d788484610958565b90505f198110156105325781811015610dbd57604051637dc7a0d960e11b81526001600160a01b03841660048201526024810182905260448101839052606401610867565b61053284848484035f610c89565b6001600160a01b038316610df457604051634b637e8f60e11b81525f6004820152602401610867565b6001600160a01b038216610e1d5760405163ec442f0560e01b81525f6004820152602401610867565b61056b838383610e90565b610e3282826106f8565b610bba5760405163e2517d3f60e01b81526001600160a01b038216600482015260248101839052604401610867565b5f805160206113948339815191525460ff166109de57604051638dfc202b60e01b815260040160405180910390fd5b5f805160206113348339815191526001600160a01b038416610eca5781816002015f828254610ebf9190611200565b90915550610f3a9050565b6001600160a01b0384165f9081526020829052604090205482811015610f1c5760405163391434e360e21b81526001600160a01b03861660048201526024810182905260448101849052606401610867565b6001600160a01b0385165f9081526020839052604090209083900390555b6001600160a01b038316610f58576002810180548390039055610f76565b6001600160a01b0383165f9081526020829052604090208054830190555b826001600160a01b0316846001600160a01b03167fddf252ad1be2c89b69c2b068fc378daa952ba7f163c4a11628f55a4df523b3ef84604051610fbb91815260200190565b60405180910390a350505050565b610fd161103e565b6109de57604051631afcd79f60e31b815260040160405180910390fd5b610ff6610fc9565b5f805160206113348339815191527f52c63247e1f47db19d5ce0460030c497f067ca4cebf71ba98eeadabe20bace0361102f8482611277565b50600481016105328382611277565b5f611047610c47565b54600160401b900460ff16919050565b5f60208284031215611067575f80fd5b81356001600160e01b03198116811461077f575f80fd5b5f602080835283518060208501525f5b818110156110aa5785810183015185820160400152820161108e565b505f604082860101526040601f19601f8301168501019250505092915050565b80356001600160a01b03811681146110e0575f80fd5b919050565b5f80604083850312156110f6575f80fd5b6110ff836110ca565b946020939093013593505050565b5f805f6060848603121561111f575f80fd5b611128846110ca565b9250611136602085016110ca565b9150604084013590509250925092565b5f60208284031215611156575f80fd5b5035919050565b5f806040838503121561116e575f80fd5b8235915061117e602084016110ca565b90509250929050565b5f60208284031215611197575f80fd5b61077f826110ca565b5f80604083850312156111b1575f80fd5b6111ba836110ca565b915061117e602084016110ca565b600181811c908216806111dc57607f821691505b6020821081036111fa57634e487b7160e01b5f52602260045260245ffd5b50919050565b808201808211156103fd57634e487b7160e01b5f52601160045260245ffd5b634e487b7160e01b5f52604160045260245ffd5b601f82111561056b57805f5260205f20601f840160051c810160208510156112585750805b601f840160051c820191505b81811015610d66575f8155600101611264565b815167ffffffffffffffff8111156112915761129161121f565b6112a58161129f84546111c8565b84611233565b602080601f8311600181146112d8575f84156112c15750858301515b5f19600386901b1c1916600185901b178555610934565b5f85815260208120601f198616915b82811015611306578886015182559484019460019091019084016112e7565b508582101561132357878501515f19600388901b60f8161c191681555b5050505050600190811b0190555056fe52c63247e1f47db19d5ce0460030c497f067ca4cebf71ba98eeadabe20bace0065d7a28e3265b37a6474929f336521b332c1681b933f6cb9f3376673440d862a02dd7bc7dec4dceedda775e58dd541e08a116c6c53815c0bd028192f7b626800cd5ed15c6e187e77e9aee88184c21f4f2182ab5827cb3b7e07fbedcd63f03300a26469706673582212200b30b744bc313bd23fc7e9151d4be6665a4967e2a41c764a6793afe6609e40d364736f6c63430008170033",
  "linkReferences": {},
  "deployedLinkReferences": {},
  "immutableReferences": {},
  "inputSourceName": "project/contracts/USDK.sol",
  "buildInfoId": "solc-0_8_23-bbe8a019afd44ddca0c1139a015d172564bd9268"
}