{
  "_format": "hh-sol-artifact-1",
  "contractName": "ERC20",
  "sourceName": "contracts/ERC20.sol",
  "abi": [
    {
      "inputs": [
        {
          "internalType": "string",
          "name": "_name",
          "type": "string"
        },
        {
          "internalType": "string",
          "name": "_symbol",
          "type": "string"
        },
        {
          "internalType": "uint8",
          "name": "_decimals",
          "type": "uint8"
        }
      ],
      "stateMutability": "nonpayable",
      "type": "constructor"
    },
    {
      "anonymous": false,
      "inputs": [
        {
          "indexed": true,
          "internalType": "address",
          "name": "owner",
          "type": "address"
        },
        {
          "indexed": true,
          "internalType": "address",
          "name": "spender",
          "type": "address"
        },
        {
          "indexed": false,
          "internalType": "uint256",
          "name": "value",
          "type": "uint256"
        }
      ],
      "name": "Approval",
      "type": "event"
    },
    {
      "anonymous": false,
      "inputs": [
        {
          "indexed": true,
          "internalType": "address",
          "name": "previousOwner",
          "type": "address"
        },
        {
          "indexed": true,
          "internalType": "address",
          "name": "newOwner",
          "type": "address"
        }
      ],
      "name": "OwnershipTransferred",
      "type": "event"
    },
    {
      "anonymous": false,
      "inputs": [
        {
          "indexed": true,
          "internalType": "address",
          "name": "from",
          "type": "address"
        },
        {
          "indexed": true,
          "internalType": "address",
          "name": "to",
          "type": "address"
        },
        {
          "indexed": false,
          "internalType": "uint256",
          "name": "value",
          "type": "uint256"
        }
      ],
      "name": "Transfer",
      "type": "event"
    },
    {
      "inputs": [
        {
          "internalType": "address",
          "name": "",
          "type": "address"
        },
        {
          "internalType": "address",
          "name": "",
          "type": "address"
        }
      ],
      "name": "allowance",
      "outputs": [
        {
          "internalType": "uint256",
          "name": "",
          "type": "uint256"
        }
      ],
      "stateMutability": "view",
      "type": "function"
    },
    {
      "inputs": [
        {
          "internalType": "address",
          "name": "spender",
          "type": "address"
        },
        {
          "internalType": "uint256",
          "name": "value",
          "type": "uint256"
        }
      ],
      "name": "approve",
      "outputs": [
        {
          "internalType": "bool",
          "name": "",
          "type": "bool"
        }
      ],
      "stateMutability": "nonpayable",
      "type": "function"
    },
    {
      "inputs": [
        {
          "internalType": "address",
          "name": "",
          "type": "address"
        }
      ],
      "name": "balanceOf",
      "outputs": [
        {
          "internalType": "uint256",
          "name": "",
          "type": "uint256"
        }
      ],
      "stateMutability": "view",
      "type": "function"
    },
    {
      "inputs": [],
      "name": "decimals",
      "outputs": [
        {
          "internalType": "uint8",
          "name": "",
          "type": "uint8"
        }
      ],
      "stateMutability": "view",
      "type": "function"
    },
    {
      "inputs": [
        {
          "internalType": "address",
          "name": "to",
          "type": "address"
        },
        {
          "internalType": "uint256",
          "name": "value",
          "type": "uint256"
        }
      ],
      "name": "mint",
      "outputs": [],
      "stateMutability": "nonpayable",
      "type": "function"
    },
    {
      "inputs": [],
      "name": "name",
      "outputs": [
        {
          "internalType": "string",
          "name": "",
          "type": "string"
        }
      ],
      "stateMutability": "view",
      "type": "function"
    },
    {
      "inputs": [],
      "name": "owner",
      "outputs": [
        {
          "internalType": "address",
          "name": "",
          "type": "address"
        }
      ],
      "stateMutability": "view",
      "type": "function"
    },
    {
      "inputs": [],
      "name": "symbol",
      "outputs": [
        {
          "internalType": "string",
          "name": "",
          "type": "string"
        }
      ],
      "stateMutability": "view",
      "type": "function"
    },
    {
      "inputs": [],
      "name": "totalSupply",
      "outputs": [
        {
          "internalType": "uint256",
          "name": "",
          "type": "uint256"
        }
      ],
      "stateMutability": "view",
      "type": "function"
    },
    {
      "inputs": [
        {
          "internalType": "address",
          "name": "to",
          "type": "address"
        },
        {
          "internalType": "uint256",
          "name": "value",
          "type": "uint256"
        }
      ],
      "name": "transfer",
      "outputs": [
        {
          "internalType": "bool",
          "name": "",
          "type": "bool"
        }
      ],
      "stateMutability": "nonpayable",
      "type": "function"
    },
    {
      "inputs": [
        {
          "internalType": "address",
          "name": "from",
          "type": "address"
        },
        {
          "internalType": "address",
          "name": "to",
          "type": "address"
        },
        {
          "internalType": "uint256",
          "name": "value",
          "type": "uint256"
        }
      ],
      "name": "transferFrom",
      "outputs": [
        {
          "internalType": "bool",
          "name": "",
          "type": "bool"
        }
      ],
      "stateMutability": "nonpayable",
      "type": "function"
    },
    {
      "inputs": [
        {
          "internalType": "address",
          "name": "newOwner",
          "type": "address"
        }
      ],
      "name": "transferOwnership",
      "outputs": [],
      "stateMutability": "nonpayable",
      "type": "function"
    }
  ],
  "bytecode": "0x60a06040523480156200001157600080fd5b5060405162000bc238038062000bc283398101604081905262000034916200016a565b600062000042848262000280565b50600162000051838262000280565b5060ff8116608052600580546001600160a01b031916339081179091556040516000907f8be0079c531659141344cd1fd0a4f28419497f9722a3daafe3b4186f6b6457e0908290a35050506200034c565b634e487b7160e01b600052604160045260246000fd5b600082601f830112620000ca57600080fd5b81516001600160401b0380821115620000e757620000e7620000a2565b604051601f8301601f19908116603f01168101908282118183101715620001125762000112620000a2565b81604052838152602092508660208588010111156200013057600080fd5b600091505b8382101562000154578582018301518183018401529082019062000135565b6000602085830101528094505050505092915050565b6000806000606084860312156200018057600080fd5b83516001600160401b03808211156200019857600080fd5b620001a687838801620000b8565b94506020860151915080821115620001bd57600080fd5b50620001cc86828701620000b8565b925050604084015160ff81168114620001e457600080fd5b809150509250925092565b600181811c908216806200020457607f821691505b6020821081036200022557634e487b7160e01b600052602260045260246000fd5b50919050565b601f8211156200027b576000816000526020600020601f850160051c81016020861015620002565750805b601f850160051c820191505b81811015620002775782815560010162000262565b5050505b505050565b81516001600160401b038111156200029c576200029c620000a2565b620002b481620002ad8454620001ef565b846200022b565b602080601f831160018114620002ec5760008415620002d35750858301515b600019600386901b1c1916600185901b17855562000277565b600085815260208120601f198616915b828110156200031d57888601518255948401946001909101908401620002fc565b50858210156200033c5787850151600019600388901b60f8161c191681555b5050505050600190811b01905550565b60805161085a620003686000396000610129015261085a6000f3fe608060405234801561001057600080fd5b50600436106100b45760003560e01c806370a082311161007157806370a08231146101725780638da5cb5b1461019257806395d89b41146101bd578063a9059cbb146101c5578063dd62ed3e146101d8578063f2fde38b1461020357600080fd5b806306fdde03146100b9578063095ea7b3146100d757806318160ddd146100fa57806323b872dd14610111578063313ce5671461012457806340c10f191461015d575b600080fd5b6100c1610216565b6040516100ce91906106a3565b60405180910390f35b6100ea6100e536600461070e565b6102a4565b60405190151581526020016100ce565b61010360025481565b6040519081526020016100ce565b6100ea61011f366004610738565b610311565b61014b7f000000000000000000000000000000000000000000000000000000000000000081565b60405160ff90911681526020016100ce565b61017061016b36600461070e565b6103cb565b005b610103610180366004610774565b60036020526000908152604090205481565b6005546101a5906001600160a01b031681565b6040516001600160a01b0390911681526020016100ce565b6100c161041f565b6100ea6101d336600461070e565b61042c565b6101036101e6366004610796565b600460209081526000928352604080842090915290825290205481565b610170610211366004610774565b610442565b60008054610223906107c9565b80601f016020809104026020016040519081016040528092919081815260200182805461024f906107c9565b801561029c5780601f106102715761010080835404028352916020019161029c565b820191906000526020600020905b81548152906001019060200180831161027f57829003601f168201915b505050505081565b3360008181526004602090815260408083206001600160a01b038716808552925280832085905551919290917f8c5be1e5ebec7d5bd14f71427d1e84f3dd0314c0f7b2291e5b200ac8c7c3b925906102ff9086815260200190565b60405180910390a35060015b92915050565b6001600160a01b0383166000908152600460209081526040808320338452909152812054828110156103835760405162461bcd60e51b8152602060048201526016602482015275494e53554646494349454e545f414c4c4f57414e434560501b60448201526064015b60405180910390fd5b60001981146103b5576001600160a01b0385166000908152600460209081526040808320338452909152902083820390555b6103c0858585610529565b506001949350505050565b6005546001600160a01b031633146104115760405162461bcd60e51b81526020600482015260096024820152682727aa2fa7aba722a960b91b604482015260640161037a565b61041b828261061a565b5050565b60018054610223906107c9565b6000610439338484610529565b50600192915050565b6005546001600160a01b031633146104885760405162461bcd60e51b81526020600482015260096024820152682727aa2fa7aba722a960b91b604482015260640161037a565b6001600160a01b0381166104cd5760405162461bcd60e51b815260206004820152600c60248201526b5a45524f5f4144445245535360a01b604482015260640161037a565b6005546040516001600160a01b038084169216907f8be0079c531659141344cd1fd0a4f28419497f9722a3daafe3b4186f6b6457e090600090a3600580546001600160a01b0319166001600160a01b0392909216919091179055565b6001600160a01b0383166000908152600360205260409020548111156105885760405162461bcd60e51b8152602060048201526014602482015273494e53554646494349454e545f42414c414e434560601b604482015260640161037a565b6001600160a01b0380841660009081526003602052604080822080548590039055918416815290812080548392906105c1908490610803565b92505081905550816001600160a01b0316836001600160a01b03167fddf252ad1be2c89b69c2b068fc378daa952ba7f163c4a11628f55a4df523b3ef8360405161060d91815260200190565b60405180910390a3505050565b806002600082825461062c9190610803565b90915550506001600160a01b03821660009081526003602052604081208054839290610659908490610803565b90915550506040518181526001600160a01b038316906000907fddf252ad1be2c89b69c2b068fc378daa952ba7f163c4a11628f55a4df523b3ef9060200160405180910390a35050565b60006020808352835180602085015260005b818110156106d1578581018301518582016040015282016106b5565b506000604082860101526040601f19601f8301168501019250505092915050565b80356001600160a01b038116811461070957600080fd5b919050565b6000806040838503121561072157600080fd5b61072a836106f2565b946020939093013593505050565b60008060006060848603121561074d57600080fd5b610756846106f2565b9250610764602085016106f2565b9150604084013590509250925092565b60006020828403121561078657600080fd5b61078f826106f2565b9392505050565b600080604083850312156107a957600080fd5b6107b2836106f2565b91506107c0602084016106f2565b90509250929050565b600181811c908216806107dd57607f821691505b6020821081036107fd57634e487b7160e01b600052602260045260246000fd5b50919050565b8082018082111561030b57634e487b7160e01b600052601160045260246000fdfea2646970667358221220a1b8ff5c162214b4f12f38990b5d292624e904c1df5cc130f718b8b6e32c16d164736f6c63430008170033",
  "linkReferences": {},
  "deployedLinkReferences": {}
}