{
  "_format": "hh-sol-artifact-1",
  "contractName": "StableVault",
  "sourceName": "contracts/StableVault.sol",
  "abi": [
    {
      "inputs": [
        {
          "internalType": "address",
          "name": "spender",
          "type": "address"
        },
        {
          "internalType": "uint256",
          "name": "allowance",
          "type": "uint256"
        },
        {
          "internalType": "uint256",
          "name": "needed",
          "type": "uint256"
        }
      ],
      "name": "ERC20InsufficientAllowance",
      "type": "error"
    },
    {
      "inputs": [
        {
          "internalType": "address",
          "name": "sender",
          "type": "address"
        },
        {
          "internalType": "uint256",
          "name": "balance",
          "type": "uint256"
        },
        {
          "internalType": "uint256",
          "name": "needed",
          "type": "uint256"
        }
      ],
      "name": "ERC20InsufficientBalance",
      "type": "error"
    },
    {
      "inputs": [
        {
          "internalType": "address",
          "name": "approver",
          "type": "address"
        }
      ],
      "name": "ERC20InvalidApprover",
      "type": "error"
    },
    {
      "inputs": [
        {
          "internalType": "address",
          "name": "receiver",
          "type": "address"
        }
      ],
      "name": "ERC20InvalidReceiver",
      "type": "error"
    },
    {
      "inputs": [
        {
          "internalType": "address",
          "name": "sender",
          "type": "address"
        }
      ],
      "name": "ERC20InvalidSender",
      "type": "error"
    },
    {
      "inputs": [
        {
          "internalType": "address",
          "name": "spender",
          "type": "address"
        }
      ],
      "name": "ERC20InvalidSpender",
      "type": "error"
    },
    {
      "inputs": [],
      "name": "InvalidInitialization",
      "type": "error"
    },
    {
      "inputs": [],
      "name": "NotInitializing",
      "type": "error"
    },
    {
      "anonymous": false,
      "inputs": [
        {
          "indexed": true,
          "internalType": "address",
          "name": "owner",
          "type": "address"
        },
        {
          "indexed": true,
          "internalType": "address",
          "name": "spender",
          "type": "address"
        },
        {
          "indexed": false,
          "internalType": "uint256",
          "name": "value",
          "type": "uint256"
        }
      ],
      "name": "Approval",
      "type": "event"
    },
    {
      "anonymous": false,
      "inputs": [
        {
          "indexed": true,
          "internalType": "address",
          "name": "oldController",
          "type": "address"
        },
        {
          "indexed": true,
          "internalType": "address",
          "name": "newController",
          "type": "address"
        }
      ],
      "name": "ControllerChanged",
      "type": "event"
    },
    {
      "anonymous": false,
      "inputs": [
        {
          "indexed": false,
          "internalType": "uint64",
          "name": "version",
          "type": "uint64"
        }
      ],
      "name": "Initialized",
      "type": "event"
    },
    {
      "anonymous": false,
      "inputs": [
        {
          "indexed": true,
          "internalType": "address",
          "name": "by",
          "type": "address"
        }
      ],
      "name": "Paused",
      "type": "event"
    },
    {
      "anonymous": false,
      "inputs": [
        {
          "indexed": true,
          "internalType": "address",
          "name": "to",
          "type": "address"
        },
        {
          "indexed": false,
          "internalType": "uint256",
          "name": "sharesBurned",
          "type": "uint256"
        },
        {
          "indexed": false,
          "internalType": "uint256",
          "name": "usdkOut",
          "type": "uint256"
        }
      ],
      "name": "Redeemed",
      "type": "event"
    },
    {
      "anonymous": false,
      "inputs": [
        {
          "indexed": true,
          "internalType": "address",
          "name": "from",
          "type": "address"
        },
        {
          "indexed": false,
          "internalType": "uint256",
          "name": "amount",
          "type": "uint256"
        }
      ],
      "name": "SharesBurned",
      "type": "event"
    },
    {
      "anonymous": false,
      "inputs": [
        {
          "indexed": true,
          "internalType": "address",
          "name": "to",
          "type": "address"
        },
        {
          "indexed": false,
          "internalType": "uint256",
          "name": "amount",
          "type": "uint256"
        }
      ],
      "name": "SharesMinted",
      "type": "event"
    },
    {
      "anonymous": false,
      "inputs": [
        {
          "indexed": true,
          "internalType": "address",
          "name": "from",
          "type": "address"
        },
        {
          "indexed": true,
          "internalType": "address",
          "name": "to",
          "type": "address"
        },
        {
          "indexed": false,
          "internalType": "uint256",
          "name": "value",
          "type": "uint256"
        }
      ],
      "name": "Transfer",
      "type": "event"
    },
    {
      "anonymous": false,
      "inputs": [
        {
          "indexed": false,
          "internalType": "uint256",
          "name": "amount",
          "type": "uint256"
        }
      ],
      "name": "USDKDeposited",
      "type": "event"
    },
    {
      "anonymous": false,
      "inputs": [
        {
          "indexed": true,
          "internalType": "address",
          "name": "by",
          "type": "address"
        }
      ],
      "name": "Unpaused",
      "type": "event"
    },
    {
      "inputs": [
        {
          "internalType": "address",
          "name": "owner",
          "type": "address"
        },
        {
          "internalType": "address",
          "name": "spender",
          "type": "address"
        }
      ],
      "name": "allowance",
      "outputs": [
        {
          "internalType": "uint256",
          "name": "",
          "type": "uint256"
        }
      ],
      "stateMutability": "view",
      "type": "function"
    },
    {
      "inputs": [
        {
          "internalType": "address",
          "name": "spender",
          "type": "address"
        },
        {
          "internalType": "uint256",
          "name": "value",
          "type": "uint256"
        }
      ],
      "name": "approve",
      "outputs": [
        {
          "internalType": "bool",
          "name": "",
          "type": "bool"
        }
      ],
      "stateMutability": "nonpayable",
      "type": "function"
    },
    {
      "inputs": [
        {
          "internalType": "address",
          "name": "account",
          "type": "address"
        }
      ],
      "name": "balanceOf",
      "outputs": [
        {
          "internalType": "uint256",
          "name": "",
          "type": "uint256"
        }
      ],
      "stateMutability": "view",
      "type": "function"
    },
    {
      "inputs": [
        {
          "internalType": "address",
          "name": "from",
          "type": "address"
        },
        {
          "internalType": "uint256",
          "name": "amount",
          "type": "uint256"
        }
      ],
      "name": "burnShares",
      "outputs": [],
      "stateMutability": "nonpayable",
      "type": "function"
    },
    {
      "inputs": [],
      "name": "compoundGlobal",
      "outputs": [],
      "stateMutability": "pure",
      "type": "function"
    },
    {
      "inputs": [],
      "name": "controller",
      "outputs": [
        {
          "internalType": "address",
          "name": "",
          "type": "address"
        }
      ],
      "stateMutability": "view",
      "type": "function"
    },
    {
      "inputs": [],
      "name": "decimals",
      "outputs": [
        {
          "internalType": "uint8",
          "name": "",
          "type": "uint8"
        }
      ],
      "stateMutability": "view",
      "type": "function"
    },
    {
      "inputs": [
        {
          "internalType": "uint256",
          "name": "amount",
          "type": "uint256"
        }
      ],
      "name": "depositUSDC",
      "outputs": [],
      "stateMutability": "nonpayable",
      "type": "function"
    },
    {
      "inputs": [
        {
          "internalType": "uint256",
          "name": "amount",
          "type": "uint256"
        }
      ],
      "name": "depositUSDK",
      "outputs": [],
      "stateMutability": "nonpayable",
      "type": "function"
    },
    {
      "inputs": [
        {
          "internalType": "address",
          "name": "",
          "type": "address"
        }
      ],
      "name": "harvest",
      "outputs": [],
      "stateMutability": "pure",
      "type": "function"
    },
    {
      "inputs": [
        {
          "internalType": "address",
          "name": "_usdc",
          "type": "address"
        },
        {
          "internalType": "address",
          "name": "_usdk",
          "type": "address"
        },
        {
          "internalType": "address",
          "name": "_farm",
          "type": "address"
        }
      ],
      "name": "initialize",
      "outputs": [],
      "stateMutability": "nonpayable",
      "type": "function"
    },
    {
      "inputs": [
        {
          "internalType": "address",
          "name": "to",
          "type": "address"
        },
        {
          "internalType": "uint256",
          "name": "amount",
          "type": "uint256"
        }
      ],
      "name": "mintShares",
      "outputs": [],
      "stateMutability": "nonpayable",
      "type": "function"
    },
    {
      "inputs": [],
      "name": "name",
      "outputs": [
        {
          "internalType": "string",
          "name": "",
          "type": "string"
        }
      ],
      "stateMutability": "view",
      "type": "function"
    },
    {
      "inputs": [],
      "name": "owner",
      "outputs": [
        {
          "internalType": "address",
          "name": "",
          "type": "address"
        }
      ],
      "stateMutability": "view",
      "type": "function"
    },
    {
      "inputs": [],
      "name": "pause",
      "outputs": [],
      "stateMutability": "nonpayable",
      "type": "function"
    },
    {
      "inputs": [],
      "name": "paused",
      "outputs": [
        {
          "internalType": "bool",
          "name": "",
          "type": "bool"
        }
      ],
      "stateMutability": "view",
      "type": "function"
    },
    {
      "inputs": [
        {
          "internalType": "address",
          "name": "to",
          "type": "address"
        },
        {
          "internalType": "uint256",
          "name": "shares",
          "type": "uint256"
        }
      ],
      "name": "redeemUSDK",
      "outputs": [],
      "stateMutability": "nonpayable",
      "type": "function"
    },
    {
      "inputs": [
        {
          "internalType": "address",
          "name": "_controller",
          "type": "address"
        }
      ],
      "name": "setController",
      "outputs": [],
      "stateMutability": "nonpayable",
      "type": "function"
    },
    {
      "inputs": [
        {
          "internalType": "address",
          "name": "newOwner",
          "type": "address"
        }
      ],
      "name": "setOwner",
      "outputs": [],
      "stateMutability": "nonpayable",
      "type": "function"
    },
    {
      "inputs": [],
      "name": "stableFarm",
      "outputs": [
        {
          "internalType": "contract IStableFarm",
          "name": "",
          "type": "address"
        }
      ],
      "stateMutability": "view",
      "type": "function"
    },
    {
      "inputs": [],
      "name": "symbol",
      "outputs": [
        {
          "internalType": "string",
          "name": "",
          "type": "string"
        }
      ],
      "stateMutability": "view",
      "type": "function"
    },
    {
      "inputs": [],
      "name": "totalSupply",
      "outputs": [
        {
          "internalType": "uint256",
          "name": "",
          "type": "uint256"
        }
      ],
      "stateMutability": "view",
      "type": "function"
    },
    {
      "inputs": [
        {
          "internalType": "address",
          "name": "to",
          "type": "address"
        },
        {
          "internalType": "uint256",
          "name": "value",
          "type": "uint256"
        }
      ],
      "name": "transfer",
      "outputs": [
        {
          "internalType": "bool",
          "name": "",
          "type": "bool"
        }
      ],
      "stateMutability": "nonpayable",
      "type": "function"
    },
    {
      "inputs": [
        {
          "internalType": "address",
          "name": "from",
          "type": "address"
        },
        {
          "internalType": "address",
          "name": "to",
          "type": "address"
        },
        {
          "internalType": "uint256",
          "name": "value",
          "type": "uint256"
        }
      ],
      "name": "transferFrom",
      "outputs": [
        {
          "internalType": "bool",
          "name": "",
          "type": "bool"
        }
      ],
      "stateMutability": "nonpayable",
      "type": "function"
    },
    {
      "inputs": [],
      "name": "unpause",
      "outputs": [],
      "stateMutability": "nonpayable",
      "type": "function"
    },
    {
      "inputs": [],
      "name": "usdc",
      "outputs": [
        {
          "internalType": "contract IERC20Minimal",
          "name": "",
          "type": "address"
        }
      ],
      "stateMutability": "view",
      "type": "function"
    },
    {
      "inputs": [],
      "name": "usdk",
      "outputs": [
        {
          "internalType": "contract IUSDK",
          "name": "",
          "type": "address"
        }
      ],
      "stateMutability": "view",
      "type": "function"
    },
    {
      "inputs": [
        {
          "internalType": "uint256",
          "name": "amount",
          "type": "uint256"
        }
      ],
      "name": "withdraw",
      "outputs": [],
      "stateMutability": "nonpayable",
      "type": "function"
    }
  ],
  "bytecode": "0x608060405234801561001057600080fd5b50611e29806100206000396000f3fe608060405234801561001057600080fd5b50600436106101c45760003560e01c806370a08231116100f9578063b9dcb13811610097578063dd62ed3e11610071578063dd62ed3e146103d8578063ee7a7c04146103eb578063f688bcfb146103fe578063f77c47911461041157600080fd5b8063b9dcb1381461039f578063c0c53b8b146103b2578063d858b245146103c557600080fd5b806392eefe9b116100d357806392eefe9b1461035e57806395d89b4114610371578063a9059cbb14610379578063aa46eeb41461038c57600080fd5b806370a082311461030d5780638456cb59146103435780638da5cb5b1461034b57600080fd5b80632e1a7d4d116101665780633f4ba83a116101405780633f4ba83a146102d6578063528c198a146102de5780635c975abb146102f15780636422360d1461030557600080fd5b80632e1a7d4d146102a1578063313ce567146102b45780633e413bee146102c357600080fd5b806313af4035116101a257806313af40351461021f57806318160ddd146102325780631f6488621461026357806323b872dd1461028e57600080fd5b806306fdde03146101c9578063095ea7b3146101e75780630e5c011e1461020a575b600080fd5b6101d1610424565b6040516101de91906119da565b60405180910390f35b6101fa6101f5366004611a45565b6104e7565b60405190151581526020016101de565b61021d610218366004611a6f565b610501565b005b61021d61022d366004611a6f565b61053f565b7f52c63247e1f47db19d5ce0460030c497f067ca4cebf71ba98eeadabe20bace02545b6040519081526020016101de565b600254610276906001600160a01b031681565b6040516001600160a01b0390911681526020016101de565b6101fa61029c366004611a91565b6105cd565b61021d6102af366004611acd565b6105f1565b604051601281526020016101de565b600054610276906001600160a01b031681565b61021d6107ae565b61021d6102ec366004611a45565b610812565b6004546101fa90600160a01b900460ff1681565b61021d610501565b61025561031b366004611a6f565b6001600160a01b03166000908152600080516020611dd4833981519152602052604090205490565b61021d610989565b600454610276906001600160a01b031681565b61021d61036c366004611a6f565b6109f3565b6101d1610ac0565b6101fa610387366004611a45565b610aff565b61021d61039a366004611a45565b610b0d565b61021d6103ad366004611acd565b610d47565b61021d6103c0366004611ae6565b610e65565b600154610276906001600160a01b031681565b6102556103e6366004611b29565b61106a565b61021d6103f9366004611a45565b6110b4565b61021d61040c366004611acd565b611214565b600354610276906001600160a01b031681565b7f52c63247e1f47db19d5ce0460030c497f067ca4cebf71ba98eeadabe20bace038054606091600080516020611dd48339815191529161046390611b5c565b80601f016020809104026020016040519081016040528092919081815260200182805461048f90611b5c565b80156104dc5780601f106104b1576101008083540402835291602001916104dc565b820191906000526020600020905b8154815290600101906020018083116104bf57829003601f168201915b505050505091505090565b6000336104f581858561159f565b60019150505b92915050565b60405162461bcd60e51b815260206004820152600e60248201526d2aa9a2afa1a7a72a2927a62622a960911b60448201526064015b60405180910390fd5b6003546001600160a01b031633146105695760405162461bcd60e51b815260040161053690611b96565b6001600160a01b0381166105ab5760405162461bcd60e51b81526020600482015260096024820152682120a22fa7aba722a960b91b6044820152606401610536565b600480546001600160a01b0319166001600160a01b0392909216919091179055565b6000336105db8582856115b1565b6105e6858585611618565b506001949350505050565b6003546001600160a01b031633148061061457506004546001600160a01b031633145b61065a5760405162461bcd60e51b81526020600482015260176024820152762727aa2fa1a7a72a2927a62622a92fa7a92fa7aba722a960491b6044820152606401610536565b600454600160a01b900460ff16156106845760405162461bcd60e51b815260040161053690611bbe565b600454600160a81b900460ff16156106ae5760405162461bcd60e51b815260040161053690611bde565b6004805460ff60a81b1916600160a81b179055806106de5760405162461bcd60e51b815260040161053690611c01565b6106e83382611677565b60005460405163a9059cbb60e01b8152336004820152602481018390526001600160a01b039091169063a9059cbb906044016020604051808303816000875af1158015610739573d6000803e3d6000fd5b505050506040513d601f19601f8201168201806040525081019061075d9190611c26565b61079e5760405162461bcd60e51b81526020600482015260126024820152711554d110d7d514905394d1915497d190525360721b6044820152606401610536565b506004805460ff60a81b19169055565b6003546001600160a01b031633146107d85760405162461bcd60e51b815260040161053690611b96565b6004805460ff60a01b1916905560405133907f5db9ee0a495bf2e6ff9c91a7834c1ba4fdd244a5e8aa4e537bd38aeae4b073aa90600090a2565b6003546001600160a01b0316331461083c5760405162461bcd60e51b815260040161053690611b96565b600454600160a01b900460ff16156108665760405162461bcd60e51b815260040161053690611bbe565b600454600160a81b900460ff16156108905760405162461bcd60e51b815260040161053690611bde565b6004805460ff60a81b1916600160a81b179055600254600160a01b900460ff166108cc5760405162461bcd60e51b815260040161053690611c48565b6001600160a01b03821661090b5760405162461bcd60e51b81526020600482015260066024820152654241445f544f60d01b6044820152606401610536565b6000811161092b5760405162461bcd60e51b815260040161053690611c01565b61093582826116b1565b816001600160a01b03167f6332ddaa8a69b5eb2524ec7ca317b7c2b01ecf678d584031415f81270977b8fc8260405161097091815260200190565b60405180910390a250506004805460ff60a81b19169055565b6003546001600160a01b031633146109b35760405162461bcd60e51b815260040161053690611b96565b6004805460ff60a01b1916600160a01b17905560405133907f62e78cea01bee320cd4e420270b5ea74000d11b0c9f74754ebdbfc544b05a25890600090a2565b6003546001600160a01b03163314610a1d5760405162461bcd60e51b815260040161053690611b96565b6001600160a01b038116610a645760405162461bcd60e51b815260206004820152600e60248201526d2120a22fa1a7a72a2927a62622a960911b6044820152606401610536565b6003546040516001600160a01b038084169216907f6aef1fb5b23d0e109fc7f2b0601019e1edbacd177e31a441ec8548e8dd14f0f790600090a3600380546001600160a01b0319166001600160a01b0392909216919091179055565b7f52c63247e1f47db19d5ce0460030c497f067ca4cebf71ba98eeadabe20bace048054606091600080516020611dd48339815191529161046390611b5c565b6000336104f5818585611618565b6003546001600160a01b03163314610b375760405162461bcd60e51b815260040161053690611b96565b600454600160a01b900460ff1615610b615760405162461bcd60e51b815260040161053690611bbe565b600454600160a81b900460ff1615610b8b5760405162461bcd60e51b815260040161053690611bde565b6004805460ff60a81b1916600160a81b179055600254600160a01b900460ff16610bc75760405162461bcd60e51b815260040161053690611c48565b6001600160a01b038216610c065760405162461bcd60e51b81526020600482015260066024820152654241445f544f60d01b6044820152606401610536565b60008111610c265760405162461bcd60e51b815260040161053690611c01565b6000610c3764e8d4a5100083611c6a565b60015460405163a9059cbb60e01b81526001600160a01b0386811660048301526024820184905292935091169063a9059cbb906044016020604051808303816000875af1158015610c8c573d6000803e3d6000fd5b505050506040513d601f19601f82011682018060405250810190610cb09190611c26565b610cf15760405162461bcd60e51b81526020600482015260126024820152711554d112d7d514905394d1915497d190525360721b6044820152606401610536565b60408051838152602081018390526001600160a01b038516917ff3a670cd3af7d64b488926880889d08a8585a138ff455227af6737339a1ec262910160405180910390a250506004805460ff60a81b1916905550565b6003546001600160a01b03163314610d715760405162461bcd60e51b815260040161053690611b96565b600454600160a01b900460ff1615610d9b5760405162461bcd60e51b815260040161053690611bbe565b600454600160a81b900460ff1615610dc55760405162461bcd60e51b815260040161053690611bde565b6004805460ff60a81b1916600160a81b179055600254600160a01b900460ff16610e015760405162461bcd60e51b815260040161053690611c48565b60008111610e215760405162461bcd60e51b815260040161053690611c01565b6040518181527f35519ea4126bd635628b65a24dfb9583eaee7eccfe33f35ed52cdb74977bf296906020015b60405180910390a1506004805460ff60a81b19169055565b6000610e6f6116e7565b805490915060ff600160401b820416159067ffffffffffffffff16600081158015610e975750825b905060008267ffffffffffffffff166001148015610eb45750303b155b905081158015610ec2575080155b15610ee05760405163f92ee8a960e01b815260040160405180910390fd5b845467ffffffffffffffff191660011785558315610f0a57845460ff60401b1916600160401b1785555b6001600160a01b03881615801590610f2a57506001600160a01b03871615155b8015610f3e57506001600160a01b03861615155b610f755760405162461bcd60e51b81526020600482015260086024820152672120a22fa0a2222960c11b6044820152606401610536565b610fb960405180604001604052806005815260200164735553444b60d81b81525060405180604001604052806005815260200164735553444b60d81b815250611710565b600080546001600160a01b03808b166001600160a01b031992831617909255600180548a8416908316179055600280546001600160a81b03191692891692909217600160a01b179091556003805482163390811790915560048054909216179055831561106057845460ff60401b19168555604051600181527fc7f505b2f371ae2175ee4913f4499e1f2633a7b5936321eed1cdaeb6115181d29060200160405180910390a15b5050505050505050565b6001600160a01b0391821660009081527f52c63247e1f47db19d5ce0460030c497f067ca4cebf71ba98eeadabe20bace016020908152604080832093909416825291909152205490565b6003546001600160a01b031633146110de5760405162461bcd60e51b815260040161053690611b96565b600454600160a01b900460ff16156111085760405162461bcd60e51b815260040161053690611bbe565b600454600160a81b900460ff16156111325760405162461bcd60e51b815260040161053690611bde565b6004805460ff60a81b1916600160a81b179055600254600160a01b900460ff1661116e5760405162461bcd60e51b815260040161053690611c48565b6001600160a01b0382166111af5760405162461bcd60e51b81526020600482015260086024820152674241445f46524f4d60c01b6044820152606401610536565b600081116111cf5760405162461bcd60e51b815260040161053690611c01565b6111d98282611677565b816001600160a01b03167fdb79cc492679ef2624944d6ed3cdbad5b974b5550de330ae18922f2944eec78a8260405161097091815260200190565b6003546001600160a01b031633148061123757506004546001600160a01b031633145b61127d5760405162461bcd60e51b81526020600482015260176024820152762727aa2fa1a7a72a2927a62622a92fa7a92fa7aba722a960491b6044820152606401610536565b600454600160a01b900460ff16156112a75760405162461bcd60e51b815260040161053690611bbe565b600454600160a81b900460ff16156112d15760405162461bcd60e51b815260040161053690611bde565b6004805460ff60a81b1916600160a81b179055600254600160a01b900460ff1661130d5760405162461bcd60e51b815260040161053690611c48565b6000811161132d5760405162461bcd60e51b815260040161053690611c01565b6000546040516323b872dd60e01b8152336004820152306024820152604481018390526001600160a01b03909116906323b872dd906064016020604051808303816000875af1158015611384573d6000803e3d6000fd5b505050506040513d601f19601f820116820180604052508101906113a89190611c26565b6113e95760405162461bcd60e51b81526020600482015260126024820152711554d110d7d514905394d1915497d190525360721b6044820152606401610536565b60005460025460405163095ea7b360e01b81526001600160a01b0391821660048201526024810184905291169063095ea7b3906044016020604051808303816000875af115801561143e573d6000803e3d6000fd5b505050506040513d601f19601f820116820180604052508101906114629190611c26565b6114a25760405162461bcd60e51b81526020600482015260116024820152701554d110d7d054141493d59157d1905253607a1b6044820152606401610536565b60025460405163534a7e1d60e11b8152600481018390526001600160a01b039091169063a694fc3a90602401600060405180830381600087803b1580156114e857600080fd5b505af11580156114fc573d6000803e3d6000fd5b5050505061150a33826116b1565b6001546040516340c10f1960e01b8152306004820152602481018390526001600160a01b03909116906340c10f1990604401600060405180830381600087803b15801561155657600080fd5b505af115801561156a573d6000803e3d6000fd5b505050507f35519ea4126bd635628b65a24dfb9583eaee7eccfe33f35ed52cdb74977bf29681604051610e4d91815260200190565b6115ac8383836001611722565b505050565b60006115bd848461106a565b9050600019811015611612578181101561160357604051637dc7a0d960e11b81526001600160a01b03841660048201526024810182905260448101839052606401610536565b61161284848484036000611722565b50505050565b6001600160a01b03831661164257604051634b637e8f60e11b815260006004820152602401610536565b6001600160a01b03821661166c5760405163ec442f0560e01b815260006004820152602401610536565b6115ac83838361180a565b6001600160a01b0382166116a157604051634b637e8f60e11b815260006004820152602401610536565b6116ad8260008361180a565b5050565b6001600160a01b0382166116db5760405163ec442f0560e01b815260006004820152602401610536565b6116ad6000838361180a565b6000807ff0c57e16840df040f15088dc2f81fe391c3923bec73e23a9662efc9c229c6a006104fb565b611718611948565b6116ad828261196f565b600080516020611dd48339815191526001600160a01b03851661175b5760405163e602df0560e01b815260006004820152602401610536565b6001600160a01b03841661178557604051634a1406b160e11b815260006004820152602401610536565b6001600160a01b0380861660009081526001830160209081526040808320938816835292905220839055811561180357836001600160a01b0316856001600160a01b03167f8c5be1e5ebec7d5bd14f71427d1e84f3dd0314c0f7b2291e5b200ac8c7c3b925856040516117fa91815260200190565b60405180910390a35b5050505050565b600080516020611dd48339815191526001600160a01b038416611846578181600201600082825461183b9190611c8c565b909155506118b89050565b6001600160a01b038416600090815260208290526040902054828110156118995760405163391434e360e21b81526001600160a01b03861660048201526024810182905260448101849052606401610536565b6001600160a01b03851660009081526020839052604090209083900390555b6001600160a01b0383166118d65760028101805483900390556118f5565b6001600160a01b03831660009081526020829052604090208054830190555b826001600160a01b0316846001600160a01b03167fddf252ad1be2c89b69c2b068fc378daa952ba7f163c4a11628f55a4df523b3ef8460405161193a91815260200190565b60405180910390a350505050565b6119506119c0565b61196d57604051631afcd79f60e31b815260040160405180910390fd5b565b611977611948565b600080516020611dd48339815191527f52c63247e1f47db19d5ce0460030c497f067ca4cebf71ba98eeadabe20bace036119b18482611d13565b50600481016116128382611d13565b60006119ca6116e7565b54600160401b900460ff16919050565b60006020808352835180602085015260005b81811015611a08578581018301518582016040015282016119ec565b506000604082860101526040601f19601f8301168501019250505092915050565b80356001600160a01b0381168114611a4057600080fd5b919050565b60008060408385031215611a5857600080fd5b611a6183611a29565b946020939093013593505050565b600060208284031215611a8157600080fd5b611a8a82611a29565b9392505050565b600080600060608486031215611aa657600080fd5b611aaf84611a29565b9250611abd60208501611a29565b9150604084013590509250925092565b600060208284031215611adf57600080fd5b5035919050565b600080600060608486031215611afb57600080fd5b611b0484611a29565b9250611b1260208501611a29565b9150611b2060408501611a29565b90509250925092565b60008060408385031215611b3c57600080fd5b611b4583611a29565b9150611b5360208401611a29565b90509250929050565b600181811c90821680611b7057607f821691505b602082108103611b9057634e487b7160e01b600052602260045260246000fd5b50919050565b6020808252600e908201526d2727aa2fa1a7a72a2927a62622a960911b604082015260600190565b60208082526006908201526514105554d15160d21b604082015260600190565b60208082526009908201526814915153951490539560ba1b604082015260600190565b6020808252600b908201526a414d4f554e545f5a45524f60a81b604082015260600190565b600060208284031215611c3857600080fd5b81518015158114611a8a57600080fd5b6020808252600890820152671393d517d253925560c21b604082015260600190565b600082611c8757634e487b7160e01b600052601260045260246000fd5b500490565b808201808211156104fb57634e487b7160e01b600052601160045260246000fd5b634e487b7160e01b600052604160045260246000fd5b601f8211156115ac576000816000526020600020601f850160051c81016020861015611cec5750805b601f850160051c820191505b81811015611d0b57828155600101611cf8565b505050505050565b815167ffffffffffffffff811115611d2d57611d2d611cad565b611d4181611d3b8454611b5c565b84611cc3565b602080601f831160018114611d765760008415611d5e5750858301515b600019600386901b1c1916600185901b178555611d0b565b600085815260208120601f198616915b82811015611da557888601518255948401946001909101908401611d86565b5085821015611dc35787850151600019600388901b60f8161c191681555b5050505050600190811b0190555056fe52c63247e1f47db19d5ce0460030c497f067ca4cebf71ba98eeadabe20bace00a2646970667358221220babe99ffd39ded3010fcaa8218c52c87a8e194b76af242ecabdbbd944d00b52564736f6c63430008170033",
  "linkReferences": {},
  "deployedLinkReferences": {}
}