{
  "_format": "hh3-artifact-1",
  "contractName": "StableFarm",
  "sourceName": "contracts/StableFarm.sol",
  "abi": [
    {
      "inputs": [
        {
          "internalType": "address",
          "name": "_usdc",
          "type": "address"
        },
        {
          "internalType": "uint256",
          "name": "_apr1e18",
          "type": "uint256"
        }
      ],
      "stateMutability": "nonpayable",
      "type": "constructor"
    },
    {
      "anonymous": false,
      "inputs": [
        {
          "indexed": false,
          "internalType": "uint256",
          "name": "apr1e18",
          "type": "uint256"
        }
      ],
      "name": "APRUpdated",
      "type": "event"
    },
    {
      "anonymous": false,
      "inputs": [
        {
          "indexed": true,
          "internalType": "address",
          "name": "user",
          "type": "address"
        },
        {
          "indexed": false,
          "internalType": "uint256",
          "name": "amount",
          "type": "uint256"
        }
      ],
      "name": "Deposited",
      "type": "event"
    },
    {
      "anonymous": false,
      "inputs": [
        {
          "indexed": true,
          "internalType": "address",
          "name": "previousOwner",
          "type": "address"
        },
        {
          "indexed": true,
          "internalType": "address",
          "name": "newOwner",
          "type": "address"
        }
      ],
      "name": "OwnershipTransferred",
      "type": "event"
    },
    {
      "anonymous": false,
      "inputs": [
        {
          "indexed": true,
          "internalType": "address",
          "name": "user",
          "type": "address"
        },
        {
          "indexed": false,
          "internalType": "uint256",
          "name": "amount",
          "type": "uint256"
        }
      ],
      "name": "RewardsClaimed",
      "type": "event"
    },
    {
      "anonymous": false,
      "inputs": [
        {
          "indexed": true,
          "internalType": "address",
          "name": "user",
          "type": "address"
        },
        {
          "indexed": false,
          "internalType": "uint256",
          "name": "amount",
          "type": "uint256"
        }
      ],
      "name": "Withdrawn",
      "type": "event"
    },
    {
      "inputs": [],
      "name": "apr1e18",
      "outputs": [
        {
          "internalType": "uint256",
          "name": "",
          "type": "uint256"
        }
      ],
      "stateMutability": "view",
      "type": "function"
    },
    {
      "inputs": [
        {
          "internalType": "address",
          "name": "user",
          "type": "address"
        }
      ],
      "name": "balanceOf",
      "outputs": [
        {
          "internalType": "uint256",
          "name": "",
          "type": "uint256"
        }
      ],
      "stateMutability": "view",
      "type": "function"
    },
    {
      "inputs": [],
      "name": "claim",
      "outputs": [],
      "stateMutability": "nonpayable",
      "type": "function"
    },
    {
      "inputs": [
        {
          "internalType": "uint256",
          "name": "amount",
          "type": "uint256"
        }
      ],
      "name": "defundUSDC",
      "outputs": [],
      "stateMutability": "nonpayable",
      "type": "function"
    },
    {
      "inputs": [
        {
          "internalType": "uint256",
          "name": "amount",
          "type": "uint256"
        }
      ],
      "name": "deposit",
      "outputs": [],
      "stateMutability": "nonpayable",
      "type": "function"
    },
    {
      "inputs": [
        {
          "internalType": "address",
          "name": "",
          "type": "address"
        }
      ],
      "name": "deposits",
      "outputs": [
        {
          "internalType": "uint256",
          "name": "amount",
          "type": "uint256"
        },
        {
          "internalType": "uint256",
          "name": "lastAccrual",
          "type": "uint256"
        },
        {
          "internalType": "uint256",
          "name": "rewards",
          "type": "uint256"
        }
      ],
      "stateMutability": "view",
      "type": "function"
    },
    {
      "inputs": [
        {
          "internalType": "uint256",
          "name": "amount",
          "type": "uint256"
        }
      ],
      "name": "fundUSDC",
      "outputs": [],
      "stateMutability": "nonpayable",
      "type": "function"
    },
    {
      "inputs": [],
      "name": "owner",
      "outputs": [
        {
          "internalType": "address",
          "name": "",
          "type": "address"
        }
      ],
      "stateMutability": "view",
      "type": "function"
    },
    {
      "inputs": [
        {
          "internalType": "address",
          "name": "user",
          "type": "address"
        }
      ],
      "name": "pendingRewards",
      "outputs": [
        {
          "internalType": "uint256",
          "name": "",
          "type": "uint256"
        }
      ],
      "stateMutability": "view",
      "type": "function"
    },
    {
      "inputs": [
        {
          "internalType": "uint256",
          "name": "_apr1e18",
          "type": "uint256"
        }
      ],
      "name": "setAPR",
      "outputs": [],
      "stateMutability": "nonpayable",
      "type": "function"
    },
    {
      "inputs": [
        {
          "internalType": "address",
          "name": "newOwner",
          "type": "address"
        }
      ],
      "name": "transferOwnership",
      "outputs": [],
      "stateMutability": "nonpayable",
      "type": "function"
    },
    {
      "inputs": [],
      "name": "usdc",
      "outputs": [
        {
          "internalType": "contract IERC20Minimal",
          "name": "",
          "type": "address"
        }
      ],
      "stateMutability": "view",
      "type": "function"
    },
    {
      "inputs": [
        {
          "internalType": "uint256",
          "name": "amount",
          "type": "uint256"
        }
      ],
      "name": "withdraw",
      "outputs": [],
      "stateMutability": "nonpayable",
      "type": "function"
    }
  ],
  "bytecode": "0x60a060405234801561000f575f80fd5b50604051610d0a380380610d0a83398101604081905261002e916100d3565b6001600160a01b0382166080525f80546001600160a01b0319163317905580156100585780610062565b670429d069189e00005b60015560405133905f907f8be0079c531659141344cd1fd0a4f28419497f9722a3daafe3b4186f6b6457e0908290a37f2ec8ccb96042321f3bbdd56e8e4e4339bc07c9c2021e14e18ef12f5db282b37a6001546040516100c491815260200190565b60405180910390a1505061010a565b5f80604083850312156100e4575f80fd5b82516001600160a01b03811681146100fa575f80fd5b6020939093015192949293505050565b608051610bc56101455f395f818161010f015281816102d3015281816104bb015281816105df0152818161076601526107e70152610bc55ff3fe608060405234801561000f575f80fd5b50600436106100cb575f3560e01c8063854303cf11610088578063b5f516b911610063578063b5f516b9146101c4578063b6b55f25146101cd578063f2fde38b146101e0578063fc7e286d146101f3575f80fd5b8063854303cf1461018c5780638da5cb5b1461019f578063b1ba3b74146101b1575f80fd5b80632e1a7d4d146100cf57806331d7a262146100e45780633e413bee1461010a57806347c63733146101495780634e71d92d1461015c57806370a0823114610164575b5f80fd5b6100e26100dd366004610a42565b61023b565b005b6100f76100f2366004610a59565b61039a565b6040519081526020015b60405180910390f35b6101317f000000000000000000000000000000000000000000000000000000000000000081565b6040516001600160a01b039091168152602001610101565b6100e2610157366004610a42565b610451565b6100e261054d565b6100f7610172366004610a59565b6001600160a01b03165f9081526002602052604090205490565b6100e261019a366004610a42565b61069e565b5f54610131906001600160a01b031681565b6100e26101bf366004610a42565b610702565b6100f760015481565b6100e26101db366004610a42565b61079d565b6100e26101ee366004610a59565b6108ca565b610220610201366004610a59565b600260208190525f918252604090912080546001820154919092015483565b60408051938452602084019290925290820152606001610101565b335f9081526002602052604090208115801590610259575080548211155b6102975760405162461bcd60e51b815260206004820152600a60248201526910905117d05353d5539560b21b60448201526064015b60405180910390fd5b6102a033610991565b81815f015f8282546102b29190610a9a565b909155505060405163a9059cbb60e01b8152336004820152602481018390527f00000000000000000000000000000000000000000000000000000000000000006001600160a01b03169063a9059cbb906044016020604051808303815f875af1158015610321573d5f803e3d5ffd5b505050506040513d601f19601f820116820180604052508101906103459190610ab3565b6103615760405162461bcd60e51b815260040161028e90610ad2565b60405182815233907f7084f5476618d8e60b11ef0d7d3f06914655adb8793e28ff7f018d4c76d505d59060200160405180910390a25050565b6001600160a01b0381165f908152600260208181526040808420815160608101835281548082526001830154948201949094529301549083015282036103e4576040015192915050565b5f8160200151426103f59190610a9a565b90505f670de0b6b3a76400006301e1338083600154865f01516104189190610afe565b6104229190610afe565b61042c9190610b15565b6104369190610b15565b90508083604001516104489190610b34565b95945050505050565b5f546001600160a01b0316331461047a5760405162461bcd60e51b815260040161028e90610b47565b5f81116104995760405162461bcd60e51b815260040161028e90610b6a565b6040516323b872dd60e01b8152336004820152306024820152604481018290527f00000000000000000000000000000000000000000000000000000000000000006001600160a01b0316906323b872dd906064015b6020604051808303815f875af115801561050a573d5f803e3d5ffd5b505050506040513d601f19601f8201168201806040525081019061052e9190610ab3565b61054a5760405162461bcd60e51b815260040161028e90610ad2565b50565b61055633610991565b335f9081526002602081905260409091200154806105a35760405162461bcd60e51b815260206004820152600a6024820152694e4f5f5245574152445360b01b604482015260640161028e565b335f818152600260208190526040808320909101919091555163a9059cbb60e01b81526004810191909152602481018290526001600160a01b037f0000000000000000000000000000000000000000000000000000000000000000169063a9059cbb906044016020604051808303815f875af1158015610625573d5f803e3d5ffd5b505050506040513d601f19601f820116820180604052508101906106499190610ab3565b6106655760405162461bcd60e51b815260040161028e90610ad2565b60405181815233907ffc30cddea38e2bf4d6ea7d3f9ed3b6ad7f176419f4963bd81318067a4aee73fe906020015b60405180910390a250565b5f546001600160a01b031633146106c75760405162461bcd60e51b815260040161028e90610b47565b60018190556040518181527f2ec8ccb96042321f3bbdd56e8e4e4339bc07c9c2021e14e18ef12f5db282b37a9060200160405180910390a150565b5f546001600160a01b0316331461072b5760405162461bcd60e51b815260040161028e90610b47565b5f811161074a5760405162461bcd60e51b815260040161028e90610b6a565b60405163a9059cbb60e01b8152336004820152602481018290527f00000000000000000000000000000000000000000000000000000000000000006001600160a01b03169063a9059cbb906044016104ee565b5f81116107bc5760405162461bcd60e51b815260040161028e90610b6a565b6107c533610991565b6040516323b872dd60e01b8152336004820152306024820152604481018290527f00000000000000000000000000000000000000000000000000000000000000006001600160a01b0316906323b872dd906064016020604051808303815f875af1158015610835573d5f803e3d5ffd5b505050506040513d601f19601f820116820180604052508101906108599190610ab3565b6108755760405162461bcd60e51b815260040161028e90610ad2565b335f9081526002602052604081208054839290610893908490610b34565b909155505060405181815233907f2da466a7b24304f47e87fa2e1e5a81b9831ce54fec19055ce277ca2f39ba42c490602001610693565b5f546001600160a01b031633146108f35760405162461bcd60e51b815260040161028e90610b47565b6001600160a01b0381166109385760405162461bcd60e51b815260206004820152600c60248201526b5a45524f5f4144445245535360a01b604482015260640161028e565b5f80546040516001600160a01b03808516939216917f8be0079c531659141344cd1fd0a4f28419497f9722a3daafe3b4186f6b6457e091a35f80546001600160a01b0319166001600160a01b0392909216919091179055565b6001600160a01b0381165f90815260026020526040812080549091036109bb574260019091015550565b5f8160010154426109cc9190610a9a565b9050805f036109da57505050565b5f670de0b6b3a76400006301e1338083600154865f01546109fb9190610afe565b610a059190610afe565b610a0f9190610b15565b610a199190610b15565b905080836002015f828254610a2e9190610b34565b909155505042600190930192909255505050565b5f60208284031215610a52575f80fd5b5035919050565b5f60208284031215610a69575f80fd5b81356001600160a01b0381168114610a7f575f80fd5b9392505050565b634e487b7160e01b5f52601160045260245ffd5b81810381811115610aad57610aad610a86565b92915050565b5f60208284031215610ac3575f80fd5b81518015158114610a7f575f80fd5b6020808252601290820152711554d110d7d514905394d1915497d190525360721b604082015260600190565b8082028115828204841417610aad57610aad610a86565b5f82610b2f57634e487b7160e01b5f52601260045260245ffd5b500490565b80820180821115610aad57610aad610a86565b6020808252600990820152682727aa2fa7aba722a960b91b604082015260600190565b6020808252600b908201526a414d4f554e545f5a45524f60a81b60408201526060019056fea26469706673582212206293662b32b27617dc3f0305f3e705bf8006c4ca182ac9441c8dc619c7ca50b964736f6c63430008170033",
  "linkReferences": {},
  "deployedLinkReferences": {},
  "immutableReferences": {
    "4616": [
      {
        "length": 32,
        "start": 271
      },
      {
        "length": 32,
        "start": 723
      },
      {
        "length": 32,
        "start": 1211
      },
      {
        "length": 32,
        "start": 1503
      },
      {
        "length": 32,
        "start": 1894
      },
      {
        "length": 32,
        "start": 2023
      }
    ]
  },
  "inputSourceName": "project/contracts/StableFarm.sol",
  "buildInfoId": "solc-0_8_23-bbe8a019afd44ddca0c1139a015d172564bd9268"
}