{
  "_format": "hh-sol-artifact-1",
  "contractName": "StableFarm",
  "sourceName": "contracts/StableFarm.sol",
  "abi": [
    {
      "inputs": [
        {
          "internalType": "address",
          "name": "_usdc",
          "type": "address"
        },
        {
          "internalType": "uint256",
          "name": "_apr1e18",
          "type": "uint256"
        }
      ],
      "stateMutability": "nonpayable",
      "type": "constructor"
    },
    {
      "anonymous": false,
      "inputs": [
        {
          "indexed": false,
          "internalType": "uint256",
          "name": "apr1e18",
          "type": "uint256"
        }
      ],
      "name": "APRUpdated",
      "type": "event"
    },
    {
      "anonymous": false,
      "inputs": [
        {
          "indexed": true,
          "internalType": "address",
          "name": "user",
          "type": "address"
        },
        {
          "indexed": false,
          "internalType": "uint256",
          "name": "amount",
          "type": "uint256"
        }
      ],
      "name": "Deposited",
      "type": "event"
    },
    {
      "anonymous": false,
      "inputs": [
        {
          "indexed": true,
          "internalType": "address",
          "name": "previousOwner",
          "type": "address"
        },
        {
          "indexed": true,
          "internalType": "address",
          "name": "newOwner",
          "type": "address"
        }
      ],
      "name": "OwnershipTransferred",
      "type": "event"
    },
    {
      "anonymous": false,
      "inputs": [
        {
          "indexed": true,
          "internalType": "address",
          "name": "user",
          "type": "address"
        },
        {
          "indexed": false,
          "internalType": "uint256",
          "name": "amount",
          "type": "uint256"
        }
      ],
      "name": "RewardsClaimed",
      "type": "event"
    },
    {
      "anonymous": false,
      "inputs": [
        {
          "indexed": true,
          "internalType": "address",
          "name": "user",
          "type": "address"
        },
        {
          "indexed": false,
          "internalType": "uint256",
          "name": "amount",
          "type": "uint256"
        }
      ],
      "name": "Withdrawn",
      "type": "event"
    },
    {
      "inputs": [],
      "name": "apr1e18",
      "outputs": [
        {
          "internalType": "uint256",
          "name": "",
          "type": "uint256"
        }
      ],
      "stateMutability": "view",
      "type": "function"
    },
    {
      "inputs": [],
      "name": "compound",
      "outputs": [],
      "stateMutability": "nonpayable",
      "type": "function"
    },
    {
      "inputs": [
        {
          "internalType": "uint256",
          "name": "amount",
          "type": "uint256"
        }
      ],
      "name": "defundUSDC",
      "outputs": [],
      "stateMutability": "nonpayable",
      "type": "function"
    },
    {
      "inputs": [
        {
          "internalType": "uint256",
          "name": "amount",
          "type": "uint256"
        }
      ],
      "name": "deposit",
      "outputs": [],
      "stateMutability": "nonpayable",
      "type": "function"
    },
    {
      "inputs": [
        {
          "internalType": "address",
          "name": "",
          "type": "address"
        }
      ],
      "name": "deposits",
      "outputs": [
        {
          "internalType": "uint256",
          "name": "amount",
          "type": "uint256"
        },
        {
          "internalType": "uint256",
          "name": "lastAccrual",
          "type": "uint256"
        },
        {
          "internalType": "uint256",
          "name": "rewards",
          "type": "uint256"
        }
      ],
      "stateMutability": "view",
      "type": "function"
    },
    {
      "inputs": [
        {
          "internalType": "uint256",
          "name": "amount",
          "type": "uint256"
        }
      ],
      "name": "fundUSDC",
      "outputs": [],
      "stateMutability": "nonpayable",
      "type": "function"
    },
    {
      "inputs": [],
      "name": "owner",
      "outputs": [
        {
          "internalType": "address",
          "name": "",
          "type": "address"
        }
      ],
      "stateMutability": "view",
      "type": "function"
    },
    {
      "inputs": [],
      "name": "pendingRewards",
      "outputs": [
        {
          "internalType": "uint256",
          "name": "",
          "type": "uint256"
        }
      ],
      "stateMutability": "view",
      "type": "function"
    },
    {
      "inputs": [
        {
          "internalType": "uint256",
          "name": "_apr1e18",
          "type": "uint256"
        }
      ],
      "name": "setAPR",
      "outputs": [],
      "stateMutability": "nonpayable",
      "type": "function"
    },
    {
      "inputs": [
        {
          "internalType": "uint256",
          "name": "amount",
          "type": "uint256"
        }
      ],
      "name": "stake",
      "outputs": [],
      "stateMutability": "nonpayable",
      "type": "function"
    },
    {
      "inputs": [
        {
          "internalType": "address",
          "name": "newOwner",
          "type": "address"
        }
      ],
      "name": "transferOwnership",
      "outputs": [],
      "stateMutability": "nonpayable",
      "type": "function"
    },
    {
      "inputs": [
        {
          "internalType": "uint256",
          "name": "amount",
          "type": "uint256"
        }
      ],
      "name": "unstake",
      "outputs": [],
      "stateMutability": "nonpayable",
      "type": "function"
    },
    {
      "inputs": [],
      "name": "usdc",
      "outputs": [
        {
          "internalType": "contract IERC20Minimal",
          "name": "",
          "type": "address"
        }
      ],
      "stateMutability": "view",
      "type": "function"
    },
    {
      "inputs": [
        {
          "internalType": "uint256",
          "name": "amount",
          "type": "uint256"
        }
      ],
      "name": "withdraw",
      "outputs": [],
      "stateMutability": "nonpayable",
      "type": "function"
    }
  ],
  "bytecode": "0x60a060405234801561001057600080fd5b50604051610bca380380610bca83398101604081905261002f916100d6565b6001600160a01b038216608052600080546001600160a01b03191633179055801561005a5780610064565b670429d069189e00005b60015560405133906000907f8be0079c531659141344cd1fd0a4f28419497f9722a3daafe3b4186f6b6457e0908290a37f2ec8ccb96042321f3bbdd56e8e4e4339bc07c9c2021e14e18ef12f5db282b37a6001546040516100c791815260200190565b60405180910390a15050610110565b600080604083850312156100e957600080fd5b82516001600160a01b038116811461010057600080fd5b6020939093015192949293505050565b608051610a8361014760003960008181610109015281816102bd015281816103f301528181610538015261068b0152610a836000f3fe608060405234801561001057600080fd5b50600436106100ea5760003560e01c8063b1ba3b741161008c578063eded3fda11610066578063eded3fda146101be578063f2fde38b146101c6578063f69e204614610102578063fc7e286d146101d957600080fd5b8063b1ba3b7414610194578063b5f516b9146101a7578063b6b55f251461018157600080fd5b806347c63733116100c857806347c6373314610148578063854303cf1461015b5780638da5cb5b1461016e578063a694fc3a1461018157600080fd5b80632e17de78146100ef5780632e1a7d4d146100ef5780633e413bee14610104575b600080fd5b6101026100fd3660046108f3565b610222565b005b61012b7f000000000000000000000000000000000000000000000000000000000000000081565b6040516001600160a01b0390911681526020015b60405180910390f35b6101026101563660046108f3565b610387565b6101026101693660046108f3565b610488565b60005461012b906001600160a01b031681565b61010261018f3660046108f3565b6104ed565b6101026101a23660046108f3565b610625565b6101b060015481565b60405190815260200161013f565b6101b06106c2565b6101026101d436600461090c565b610772565b6102076101e736600461090c565b600260208190526000918252604090912080546001820154919092015483565b6040805193845260208401929092529082015260600161013f565b3360009081526002602052604090208115801590610241575080548211155b61027f5760405162461bcd60e51b815260206004820152600a60248201526910905117d05353d5539560b21b60448201526064015b60405180910390fd5b6102883361083c565b8181600001600082825461029c9190610952565b909155505060405163a9059cbb60e01b8152336004820152602481018390527f00000000000000000000000000000000000000000000000000000000000000006001600160a01b03169063a9059cbb906044016020604051808303816000875af115801561030e573d6000803e3d6000fd5b505050506040513d601f19601f82011682018060405250810190610332919061096b565b61034e5760405162461bcd60e51b81526004016102769061098d565b60405182815233907f7084f5476618d8e60b11ef0d7d3f06914655adb8793e28ff7f018d4c76d505d59060200160405180910390a25050565b6000546001600160a01b031633146103b15760405162461bcd60e51b8152600401610276906109b9565b600081116103d15760405162461bcd60e51b8152600401610276906109dc565b6040516323b872dd60e01b8152336004820152306024820152604481018290527f00000000000000000000000000000000000000000000000000000000000000006001600160a01b0316906323b872dd906064015b6020604051808303816000875af1158015610445573d6000803e3d6000fd5b505050506040513d601f19601f82011682018060405250810190610469919061096b565b6104855760405162461bcd60e51b81526004016102769061098d565b50565b6000546001600160a01b031633146104b25760405162461bcd60e51b8152600401610276906109b9565b60018190556040518181527f2ec8ccb96042321f3bbdd56e8e4e4339bc07c9c2021e14e18ef12f5db282b37a9060200160405180910390a150565b6000811161050d5760405162461bcd60e51b8152600401610276906109dc565b6105163361083c565b6040516323b872dd60e01b8152336004820152306024820152604481018290527f00000000000000000000000000000000000000000000000000000000000000006001600160a01b0316906323b872dd906064016020604051808303816000875af1158015610589573d6000803e3d6000fd5b505050506040513d601f19601f820116820180604052508101906105ad919061096b565b6105c95760405162461bcd60e51b81526004016102769061098d565b33600090815260026020526040812080548392906105e8908490610a01565b909155505060405181815233907f2da466a7b24304f47e87fa2e1e5a81b9831ce54fec19055ce277ca2f39ba42c49060200160405180910390a250565b6000546001600160a01b0316331461064f5760405162461bcd60e51b8152600401610276906109b9565b6000811161066f5760405162461bcd60e51b8152600401610276906109dc565b60405163a9059cbb60e01b8152336004820152602481018290527f00000000000000000000000000000000000000000000000000000000000000006001600160a01b03169063a9059cbb90604401610426565b336000908152600260208181526040808420815160608101835281548082526001830154948201949094529301549083015282036107035760400151919050565b60008160200151426107159190610952565b90506000670de0b6b3a76400006301e1338083600154866000015161073a9190610a14565b6107449190610a14565b61074e9190610a2b565b6107589190610a2b565b905080836040015161076a9190610a01565b935050505090565b6000546001600160a01b0316331461079c5760405162461bcd60e51b8152600401610276906109b9565b6001600160a01b0381166107e15760405162461bcd60e51b815260206004820152600c60248201526b5a45524f5f4144445245535360a01b6044820152606401610276565b600080546040516001600160a01b03808516939216917f8be0079c531659141344cd1fd0a4f28419497f9722a3daafe3b4186f6b6457e091a3600080546001600160a01b0319166001600160a01b0392909216919091179055565b6001600160a01b03811660009081526002602052604081208054909103610867574260019091015550565b60008160010154426108799190610952565b90508060000361088857505050565b6000670de0b6b3a76400006301e133808360015486600001546108ab9190610a14565b6108b59190610a14565b6108bf9190610a2b565b6108c99190610a2b565b9050808360020160008282546108df9190610a01565b909155505042600190930192909255505050565b60006020828403121561090557600080fd5b5035919050565b60006020828403121561091e57600080fd5b81356001600160a01b038116811461093557600080fd5b9392505050565b634e487b7160e01b600052601160045260246000fd5b818103818111156109655761096561093c565b92915050565b60006020828403121561097d57600080fd5b8151801515811461093557600080fd5b6020808252601290820152711554d110d7d514905394d1915497d190525360721b604082015260600190565b6020808252600990820152682727aa2fa7aba722a960b91b604082015260600190565b6020808252600b908201526a414d4f554e545f5a45524f60a81b604082015260600190565b808201808211156109655761096561093c565b80820281158282048414176109655761096561093c565b600082610a4857634e487b7160e01b600052601260045260246000fd5b50049056fea264697066735822122080b546abc7bfa37b78a309741cfab9063abbedfe4fde3a0cdc8eda004b923ffe64736f6c63430008170033",
  "linkReferences": {},
  "deployedLinkReferences": {}
}