{
  "_format": "hh-sol-artifact-1",
  "contractName": "LendingPool",
  "sourceName": "contracts/LendingPool.sol",
  "abi": [
    {
      "inputs": [
        {
          "internalType": "address",
          "name": "_usdc",
          "type": "address"
        },
        {
          "internalType": "address",
          "name": "_oracle",
          "type": "address"
        }
      ],
      "stateMutability": "nonpayable",
      "type": "constructor"
    },
    {
      "anonymous": false,
      "inputs": [
        {
          "indexed": true,
          "internalType": "address",
          "name": "previousOwner",
          "type": "address"
        },
        {
          "indexed": true,
          "internalType": "address",
          "name": "newOwner",
          "type": "address"
        }
      ],
      "name": "OwnershipTransferred",
      "type": "event"
    },
    {
      "inputs": [
        {
          "internalType": "address",
          "name": "user",
          "type": "address"
        }
      ],
      "name": "_collateralValue",
      "outputs": [
        {
          "internalType": "uint256",
          "name": "val1e18",
          "type": "uint256"
        }
      ],
      "stateMutability": "view",
      "type": "function"
    },
    {
      "inputs": [
        {
          "internalType": "address",
          "name": "asset",
          "type": "address"
        },
        {
          "internalType": "uint256",
          "name": "_ltv1e18",
          "type": "uint256"
        },
        {
          "internalType": "uint256",
          "name": "_liqTh1e18",
          "type": "uint256"
        },
        {
          "internalType": "uint256",
          "name": "_liqBonus1e18",
          "type": "uint256"
        }
      ],
      "name": "addCollateralAsset",
      "outputs": [],
      "stateMutability": "nonpayable",
      "type": "function"
    },
    {
      "inputs": [
        {
          "internalType": "uint256",
          "name": "amountUSDC",
          "type": "uint256"
        }
      ],
      "name": "borrow",
      "outputs": [],
      "stateMutability": "nonpayable",
      "type": "function"
    },
    {
      "inputs": [],
      "name": "borrowAPR1e18",
      "outputs": [
        {
          "internalType": "uint256",
          "name": "",
          "type": "uint256"
        }
      ],
      "stateMutability": "view",
      "type": "function"
    },
    {
      "inputs": [
        {
          "internalType": "address",
          "name": "",
          "type": "address"
        },
        {
          "internalType": "address",
          "name": "",
          "type": "address"
        }
      ],
      "name": "collateralOf",
      "outputs": [
        {
          "internalType": "uint256",
          "name": "",
          "type": "uint256"
        }
      ],
      "stateMutability": "view",
      "type": "function"
    },
    {
      "inputs": [
        {
          "internalType": "uint256",
          "name": "",
          "type": "uint256"
        }
      ],
      "name": "collaterals",
      "outputs": [
        {
          "internalType": "address",
          "name": "",
          "type": "address"
        }
      ],
      "stateMutability": "view",
      "type": "function"
    },
    {
      "inputs": [
        {
          "internalType": "uint256",
          "name": "amount",
          "type": "uint256"
        }
      ],
      "name": "defundUSDC",
      "outputs": [],
      "stateMutability": "nonpayable",
      "type": "function"
    },
    {
      "inputs": [
        {
          "internalType": "address",
          "name": "asset",
          "type": "address"
        },
        {
          "internalType": "uint256",
          "name": "amount",
          "type": "uint256"
        }
      ],
      "name": "depositCollateral",
      "outputs": [],
      "stateMutability": "nonpayable",
      "type": "function"
    },
    {
      "inputs": [
        {
          "internalType": "uint256",
          "name": "amount",
          "type": "uint256"
        }
      ],
      "name": "fundUSDC",
      "outputs": [],
      "stateMutability": "nonpayable",
      "type": "function"
    },
    {
      "inputs": [
        {
          "internalType": "address",
          "name": "user",
          "type": "address"
        }
      ],
      "name": "healthFactor",
      "outputs": [
        {
          "internalType": "uint256",
          "name": "hf1e18",
          "type": "uint256"
        }
      ],
      "stateMutability": "view",
      "type": "function"
    },
    {
      "inputs": [
        {
          "internalType": "address",
          "name": "",
          "type": "address"
        }
      ],
      "name": "isCollateral",
      "outputs": [
        {
          "internalType": "bool",
          "name": "",
          "type": "bool"
        }
      ],
      "stateMutability": "view",
      "type": "function"
    },
    {
      "inputs": [
        {
          "internalType": "address",
          "name": "",
          "type": "address"
        }
      ],
      "name": "lastAccrual",
      "outputs": [
        {
          "internalType": "uint256",
          "name": "",
          "type": "uint256"
        }
      ],
      "stateMutability": "view",
      "type": "function"
    },
    {
      "inputs": [
        {
          "internalType": "address",
          "name": "",
          "type": "address"
        }
      ],
      "name": "liqBonus1e18",
      "outputs": [
        {
          "internalType": "uint256",
          "name": "",
          "type": "uint256"
        }
      ],
      "stateMutability": "view",
      "type": "function"
    },
    {
      "inputs": [
        {
          "internalType": "address",
          "name": "",
          "type": "address"
        }
      ],
      "name": "liqThreshold1e18",
      "outputs": [
        {
          "internalType": "uint256",
          "name": "",
          "type": "uint256"
        }
      ],
      "stateMutability": "view",
      "type": "function"
    },
    {
      "inputs": [
        {
          "internalType": "address",
          "name": "user",
          "type": "address"
        },
        {
          "internalType": "uint256",
          "name": "repayUSDC",
          "type": "uint256"
        },
        {
          "internalType": "address",
          "name": "collateralAsset",
          "type": "address"
        }
      ],
      "name": "liquidate",
      "outputs": [],
      "stateMutability": "nonpayable",
      "type": "function"
    },
    {
      "inputs": [
        {
          "internalType": "address",
          "name": "",
          "type": "address"
        }
      ],
      "name": "ltv1e18",
      "outputs": [
        {
          "internalType": "uint256",
          "name": "",
          "type": "uint256"
        }
      ],
      "stateMutability": "view",
      "type": "function"
    },
    {
      "inputs": [
        {
          "internalType": "address",
          "name": "user",
          "type": "address"
        }
      ],
      "name": "maxBorrowable",
      "outputs": [
        {
          "internalType": "uint256",
          "name": "",
          "type": "uint256"
        }
      ],
      "stateMutability": "view",
      "type": "function"
    },
    {
      "inputs": [],
      "name": "oracle",
      "outputs": [
        {
          "internalType": "contract IPriceOracle",
          "name": "",
          "type": "address"
        }
      ],
      "stateMutability": "view",
      "type": "function"
    },
    {
      "inputs": [],
      "name": "owner",
      "outputs": [
        {
          "internalType": "address",
          "name": "",
          "type": "address"
        }
      ],
      "stateMutability": "view",
      "type": "function"
    },
    {
      "inputs": [
        {
          "internalType": "uint256",
          "name": "amountUSDC",
          "type": "uint256"
        }
      ],
      "name": "repay",
      "outputs": [],
      "stateMutability": "nonpayable",
      "type": "function"
    },
    {
      "inputs": [
        {
          "internalType": "uint256",
          "name": "apr1e18",
          "type": "uint256"
        }
      ],
      "name": "setBorrowAPR",
      "outputs": [],
      "stateMutability": "nonpayable",
      "type": "function"
    },
    {
      "inputs": [
        {
          "internalType": "address",
          "name": "newOwner",
          "type": "address"
        }
      ],
      "name": "transferOwnership",
      "outputs": [],
      "stateMutability": "nonpayable",
      "type": "function"
    },
    {
      "inputs": [],
      "name": "usdc",
      "outputs": [
        {
          "internalType": "contract IERC20Ex",
          "name": "",
          "type": "address"
        }
      ],
      "stateMutability": "view",
      "type": "function"
    },
    {
      "inputs": [
        {
          "internalType": "address",
          "name": "",
          "type": "address"
        }
      ],
      "name": "users",
      "outputs": [
        {
          "internalType": "uint256",
          "name": "debtUSDC",
          "type": "uint256"
        }
      ],
      "stateMutability": "view",
      "type": "function"
    },
    {
      "inputs": [
        {
          "internalType": "address",
          "name": "asset",
          "type": "address"
        },
        {
          "internalType": "uint256",
          "name": "amount",
          "type": "uint256"
        }
      ],
      "name": "withdrawCollateral",
      "outputs": [],
      "stateMutability": "nonpayable",
      "type": "function"
    }
  ],
  "bytecode": "0x60c060405267011c37937e0800006008553480156200001d57600080fd5b5060405162001a4438038062001a448339810160408190526200004091620000b7565b6001600160a01b03808316608052811660a052600080546001600160a01b0319163390811782556040519091907f8be0079c531659141344cd1fd0a4f28419497f9722a3daafe3b4186f6b6457e0908290a35050620000ef565b80516001600160a01b0381168114620000b257600080fd5b919050565b60008060408385031215620000cb57600080fd5b620000d6836200009a565b9150620000e6602084016200009a565b90509250929050565b60805160a0516118f062000154600039600081816102ef015281816104c801528181610b6d01528181610e0e0152610f740152600081816102490152818161077b0152818161098401528181610a8601528181611259015261139a01526118f06000f3fe608060405234801561001057600080fd5b50600436106101735760003560e01c80636ad9f9df116100de578063c00337c911610097578063d8b7575d11610071578063d8b7575d146103a6578063f2fde38b146103d1578063f6785c8c146103e4578063fadd12a2146103f757600080fd5b8063c00337c91461036a578063c5ebeaec14610373578063c823411c1461038657600080fd5b80636ad9f9df146102d75780637dc0d1d0146102ea5780638da5cb5b14610311578063a5d5db0c14610324578063a87430ba14610337578063b1ba3b741461035757600080fd5b80633e413bee116101305780633e413bee1461024457806340b2118d1461026b57806347c637331461027e5780634914c008146102915780634a3a6039146102a457806353696eb8146102c457600080fd5b806301d24bff146101785780630ee21e54146101ab57806324c1173b146101de57806325506d4e14610209578063350c35e91461021c578063371fd8e614610231575b600080fd5b61019861018636600461163c565b60096020526000908152604090205481565b6040519081526020015b60405180910390f35b6101ce6101b936600461163c565b60026020526000908152604090205460ff1681565b60405190151581526020016101a2565b6101f16101ec36600461165e565b610417565b6040516001600160a01b0390911681526020016101a2565b61019861021736600461163c565b610441565b61022f61022a366004611677565b610572565b005b61022f61023f36600461165e565b610703565b6101f17f000000000000000000000000000000000000000000000000000000000000000081565b61022f6102793660046116a1565b61083a565b61022f61028c36600461165e565b610943565b61022f61029f3660046116da565b610a1f565b6101986102b236600461163c565b60036020526000908152604090205481565b6101986102d236600461163c565b610d85565b6101986102e536600461163c565b610eea565b6101f17f000000000000000000000000000000000000000000000000000000000000000081565b6000546101f1906001600160a01b031681565b61022f610332366004611677565b6110b1565b61019861034536600461163c565b60066020526000908152604090205481565b61022f61036536600461165e565b611213565b61019860085481565b61022f61038136600461165e565b611290565b61019861039436600461163c565b60056020526000908152604090205481565b6101986103b4366004611716565b600760209081526000928352604080842090915290825290205481565b61022f6103df36600461163c565b611423565b61022f6103f236600461165e565b6114ed565b61019861040536600461163c565b60046020526000908152604090205481565b6001818154811061042757600080fd5b6000918252602090912001546001600160a01b0316905081565b6000805b60015481101561056c5760006001828154811061046457610464611749565b60009182526020808320909101546001600160a01b038781168452600783526040808520919092168085529252822054909250908190036104a6575050610564565b6040516341976e0960e01b81526001600160a01b0383811660048301526000917f0000000000000000000000000000000000000000000000000000000000000000909116906341976e09906024016040805180830381865afa158015610510573d6000803e3d6000fd5b505050506040513d601f19601f82011682018060405250810190610534919061175f565b509050670de0b6b3a764000061054a8284611799565b61055491906117b6565b61055e90866117d8565b94505050505b600101610445565b50919050565b61057b3361151c565b6000811180156105ae57503360009081526007602090815260408083206001600160a01b03861684529091529020548111155b6105ec5760405162461bcd60e51b815260206004820152600a60248201526910905117d05353d5539560b21b60448201526064015b60405180910390fd5b3360009081526007602090815260408083206001600160a01b03861684529091528120805483929061061f9084906117eb565b90915550670de0b6b3a7640000905061063733610eea565b10156106725760405162461bcd60e51b815260206004820152600a60248201526948465f544f4f5f4c4f5760b01b60448201526064016105e3565b60405163a9059cbb60e01b8152336004820152602481018290526001600160a01b0383169063a9059cbb906044016020604051808303816000875af11580156106bf573d6000803e3d6000fd5b505050506040513d601f19601f820116820180604052508101906106e391906117fe565b6106ff5760405162461bcd60e51b81526004016105e390611820565b5050565b61070c3361151c565b60008111801561072b5750336000908152600660205260409020548111155b6107645760405162461bcd60e51b815260206004820152600a60248201526910905117d05353d5539560b21b60448201526064016105e3565b6040516323b872dd60e01b81526001600160a01b037f000000000000000000000000000000000000000000000000000000000000000016906323b872dd906107b490339030908690600401611847565b6020604051808303816000875af11580156107d3573d6000803e3d6000fd5b505050506040513d601f19601f820116820180604052508101906107f791906117fe565b6108135760405162461bcd60e51b81526004016105e39061186b565b33600090815260066020526040812080548392906108329084906117eb565b909155505050565b6000546001600160a01b031633146108645760405162461bcd60e51b81526004016105e390611897565b6001600160a01b03841660009081526002602052604090205460ff16156108bd5760405162461bcd60e51b815260206004820152600d60248201526c1053149150511657d051111151609a1b60448201526064016105e3565b6001600160a01b039093166000818152600260209081526040808320805460ff1916600190811790915580548082019091557fb10e2d527612073b26eecdfd717e6a320cf44b4afac2b0732d9fcbe2b7fa0cf60180546001600160a01b031916851790559282526003815282822094909455600484528181209290925560059092522055565b6000546001600160a01b0316331461096d5760405162461bcd60e51b81526004016105e390611897565b6040516323b872dd60e01b81526001600160a01b037f000000000000000000000000000000000000000000000000000000000000000016906323b872dd906109bd90339030908690600401611847565b6020604051808303816000875af11580156109dc573d6000803e3d6000fd5b505050506040513d601f19601f82011682018060405250810190610a0091906117fe565b610a1c5760405162461bcd60e51b81526004016105e39061186b565b50565b610a288361151c565b670de0b6b3a7640000610a3a84610eea565b10610a6f5760405162461bcd60e51b815260206004820152600560248201526448465f4f4b60d81b60448201526064016105e3565b6040516323b872dd60e01b81526001600160a01b037f000000000000000000000000000000000000000000000000000000000000000016906323b872dd90610abf90339030908790600401611847565b6020604051808303816000875af1158015610ade573d6000803e3d6000fd5b505050506040513d601f19601f82011682018060405250810190610b0291906117fe565b610b1e5760405162461bcd60e51b81526004016105e39061186b565b6001600160a01b03831660009081526006602052604081208054849290610b469084906117eb565b90915550506040516341976e0960e01b81526001600160a01b0382811660048301526000917f0000000000000000000000000000000000000000000000000000000000000000909116906341976e09906024016040805180830381865afa158015610bb5573d6000803e3d6000fd5b505050506040513d601f19601f82011682018060405250810190610bd9919061175f565b506001600160a01b03831660009081526005602052604081205491925082610c0986670de0b6b3a7640000611799565b610c1391906117b6565b9050670de0b6b3a7640000610c288383611799565b610c3291906117b6565b610c3c90826117d8565b6001600160a01b03808816600090815260076020908152604080832093891683529290522054909150811115610cb45760405162461bcd60e51b815260206004820152601760248201527f494e53554646494349454e545f434f4c4c41544552414c00000000000000000060448201526064016105e3565b6001600160a01b03808716600090815260076020908152604080832093881683529290529081208054839290610ceb9084906117eb565b909155505060405163a9059cbb60e01b8152336004820152602481018290526001600160a01b0385169063a9059cbb906044016020604051808303816000875af1158015610d3d573d6000803e3d6000fd5b505050506040513d601f19601f82011682018060405250810190610d6191906117fe565b610d7d5760405162461bcd60e51b81526004016105e390611820565b505050505050565b60008060005b600154811015610ee357600060018281548110610daa57610daa611749565b60009182526020808320909101546001600160a01b03888116845260078352604080852091909216808552925282205490925090819003610dec575050610edb565b6040516341976e0960e01b81526001600160a01b0383811660048301526000917f0000000000000000000000000000000000000000000000000000000000000000909116906341976e09906024016040805180830381865afa158015610e56573d6000803e3d6000fd5b505050506040513d601f19601f82011682018060405250810190610e7a919061175f565b506001600160a01b038416600090815260036020526040902054909150670de0b6b3a76400008181610eac8587611799565b610eb691906117b6565b610ec09190611799565b610eca91906117b6565b610ed490876117d8565b9550505050505b600101610d8b565b5092915050565b6000806000805b60015481101561104957600060018281548110610f1057610f10611749565b60009182526020808320909101546001600160a01b03898116845260078352604080852091909216808552925282205490925090819003610f52575050611041565b6040516341976e0960e01b81526001600160a01b0383811660048301526000917f0000000000000000000000000000000000000000000000000000000000000000909116906341976e09906024016040805180830381865afa158015610fbc573d6000803e3d6000fd5b505050506040513d601f19601f82011682018060405250810190610fe0919061175f565b506001600160a01b038416600090815260046020526040902054909150670de0b6b3a764000081816110128587611799565b61101c91906117b6565b6110269190611799565b61103091906117b6565b61103a90876117d8565b9550505050505b600101610ef1565b506001600160a01b038416600090815260066020526040812054900361107457506000199392505050565b6001600160a01b03841660009081526006602052604090205461109f82670de0b6b3a7640000611799565b6110a991906117b6565b949350505050565b6001600160a01b03821660009081526002602052604090205460ff166111075760405162461bcd60e51b815260206004820152600b60248201526a1393d517d0531313d5d15160aa1b60448201526064016105e3565b600081116111455760405162461bcd60e51b815260206004820152600b60248201526a414d4f554e545f5a45524f60a81b60448201526064016105e3565b6040516323b872dd60e01b815282906001600160a01b038216906323b872dd9061117790339030908790600401611847565b6020604051808303816000875af1158015611196573d6000803e3d6000fd5b505050506040513d601f19601f820116820180604052508101906111ba91906117fe565b6111d65760405162461bcd60e51b81526004016105e390611820565b3360009081526007602090815260408083206001600160a01b0387168452909152812080548492906112099084906117d8565b9091555050505050565b6000546001600160a01b0316331461123d5760405162461bcd60e51b81526004016105e390611897565b60405163a9059cbb60e01b8152336004820152602481018290527f00000000000000000000000000000000000000000000000000000000000000006001600160a01b03169063a9059cbb906044016109bd565b6112993361151c565b600081116112d75760405162461bcd60e51b815260206004820152600b60248201526a414d4f554e545f5a45524f60a81b60448201526064016105e3565b60006112e233610d85565b3360009081526006602052604090205490915081906113029084906117d8565b111561133e5760405162461bcd60e51b815260206004820152600b60248201526a22ac21a2a2a229afa62a2b60a91b60448201526064016105e3565b336000908152600660205260408120805484929061135d9084906117d8565b909155505033600081815260096020526040908190204290555163a9059cbb60e01b81526004810191909152602481018390526001600160a01b037f0000000000000000000000000000000000000000000000000000000000000000169063a9059cbb906044016020604051808303816000875af11580156113e3573d6000803e3d6000fd5b505050506040513d601f19601f8201168201806040525081019061140791906117fe565b6106ff5760405162461bcd60e51b81526004016105e39061186b565b6000546001600160a01b0316331461144d5760405162461bcd60e51b81526004016105e390611897565b6001600160a01b0381166114925760405162461bcd60e51b815260206004820152600c60248201526b5a45524f5f4144445245535360a01b60448201526064016105e3565b600080546040516001600160a01b03808516939216917f8be0079c531659141344cd1fd0a4f28419497f9722a3daafe3b4186f6b6457e091a3600080546001600160a01b0319166001600160a01b0392909216919091179055565b6000546001600160a01b031633146115175760405162461bcd60e51b81526004016105e390611897565b600855565b6001600160a01b0381166000908152600960205260408120549081900361155a57506001600160a01b03166000908152600960205260409020429055565b600061156682426117eb565b90508060000361157557505050565b6008546001600160a01b0384166000908152600660205260408120549091670de0b6b3a7640000916301e133809185916115af9190611799565b6115b99190611799565b6115c391906117b6565b6115cd91906117b6565b6001600160a01b0385166000908152600660205260408120805492935083929091906115fa9084906117d8565b9091555050506001600160a01b0390921660009081526009602052604090204290555050565b80356001600160a01b038116811461163757600080fd5b919050565b60006020828403121561164e57600080fd5b61165782611620565b9392505050565b60006020828403121561167057600080fd5b5035919050565b6000806040838503121561168a57600080fd5b61169383611620565b946020939093013593505050565b600080600080608085870312156116b757600080fd5b6116c085611620565b966020860135965060408601359560600135945092505050565b6000806000606084860312156116ef57600080fd5b6116f884611620565b92506020840135915061170d60408501611620565b90509250925092565b6000806040838503121561172957600080fd5b61173283611620565b915061174060208401611620565b90509250929050565b634e487b7160e01b600052603260045260246000fd5b6000806040838503121561177257600080fd5b505080516020909101519092909150565b634e487b7160e01b600052601160045260246000fd5b80820281158282048414176117b0576117b0611783565b92915050565b6000826117d357634e487b7160e01b600052601260045260246000fd5b500490565b808201808211156117b0576117b0611783565b818103818111156117b0576117b0611783565b60006020828403121561181057600080fd5b8151801515811461165757600080fd5b6020808252600d908201526c1514905394d1915497d1905253609a1b604082015260600190565b6001600160a01b039384168152919092166020820152604081019190915260600190565b6020808252601290820152711554d110d7d514905394d1915497d190525360721b604082015260600190565b6020808252600990820152682727aa2fa7aba722a960b91b60408201526060019056fea26469706673582212207625f690e4a73c47744453e6165b7a88f468ca8ed959378b34f7401e459b66a364736f6c63430008170033",
  "linkReferences": {},
  "deployedLinkReferences": {}
}