{
  "_format": "hh-sol-artifact-1",
  "contractName": "PriceOracle",
  "sourceName": "contracts/PriceOracle.sol",
  "abi": [
    {
      "inputs": [],
      "stateMutability": "nonpayable",
      "type": "constructor"
    },
    {
      "anonymous": false,
      "inputs": [
        {
          "indexed": true,
          "internalType": "address",
          "name": "asset",
          "type": "address"
        },
        {
          "indexed": true,
          "internalType": "address",
          "name": "feed",
          "type": "address"
        }
      ],
      "name": "FeedSet",
      "type": "event"
    },
    {
      "anonymous": false,
      "inputs": [
        {
          "indexed": true,
          "internalType": "address",
          "name": "asset",
          "type": "address"
        },
        {
          "indexed": false,
          "internalType": "uint256",
          "name": "price1e18",
          "type": "uint256"
        }
      ],
      "name": "ManualPriceSet",
      "type": "event"
    },
    {
      "anonymous": false,
      "inputs": [
        {
          "indexed": true,
          "internalType": "address",
          "name": "previousOwner",
          "type": "address"
        },
        {
          "indexed": true,
          "internalType": "address",
          "name": "newOwner",
          "type": "address"
        }
      ],
      "name": "OwnershipTransferred",
      "type": "event"
    },
    {
      "inputs": [
        {
          "internalType": "address",
          "name": "",
          "type": "address"
        }
      ],
      "name": "feeds",
      "outputs": [
        {
          "internalType": "address",
          "name": "",
          "type": "address"
        }
      ],
      "stateMutability": "view",
      "type": "function"
    },
    {
      "inputs": [
        {
          "internalType": "address",
          "name": "asset",
          "type": "address"
        }
      ],
      "name": "getPrice",
      "outputs": [
        {
          "internalType": "uint256",
          "name": "price1e18",
          "type": "uint256"
        },
        {
          "internalType": "uint256",
          "name": "updatedAt",
          "type": "uint256"
        }
      ],
      "stateMutability": "view",
      "type": "function"
    },
    {
      "inputs": [
        {
          "internalType": "address",
          "name": "",
          "type": "address"
        }
      ],
      "name": "manualPrice",
      "outputs": [
        {
          "internalType": "uint256",
          "name": "",
          "type": "uint256"
        }
      ],
      "stateMutability": "view",
      "type": "function"
    },
    {
      "inputs": [],
      "name": "owner",
      "outputs": [
        {
          "internalType": "address",
          "name": "",
          "type": "address"
        }
      ],
      "stateMutability": "view",
      "type": "function"
    },
    {
      "inputs": [
        {
          "internalType": "address",
          "name": "asset",
          "type": "address"
        },
        {
          "internalType": "address",
          "name": "feed",
          "type": "address"
        }
      ],
      "name": "setFeed",
      "outputs": [],
      "stateMutability": "nonpayable",
      "type": "function"
    },
    {
      "inputs": [
        {
          "internalType": "address",
          "name": "asset",
          "type": "address"
        },
        {
          "internalType": "uint256",
          "name": "price1e18",
          "type": "uint256"
        }
      ],
      "name": "setManualPrice",
      "outputs": [],
      "stateMutability": "nonpayable",
      "type": "function"
    },
    {
      "inputs": [
        {
          "internalType": "address",
          "name": "newOwner",
          "type": "address"
        }
      ],
      "name": "transferOwnership",
      "outputs": [],
      "stateMutability": "nonpayable",
      "type": "function"
    }
  ],
  "bytecode": "0x608060405234801561001057600080fd5b50600080546001600160a01b0319163390811782556040519091907f8be0079c531659141344cd1fd0a4f28419497f9722a3daafe3b4186f6b6457e0908290a36107ed8061005f6000396000f3fe608060405234801561001057600080fd5b506004361061007d5760003560e01c806341976e091161005b57806341976e091461010b5780638da5cb5b14610133578063a95121b514610146578063f2fde38b1461015957600080fd5b806321673e5a146100825780632fba4aa9146100b557806340b1eb10146100f6575b600080fd5b6100a2610090366004610527565b60026020526000908152604090205481565b6040519081526020015b60405180910390f35b6100de6100c3366004610527565b6001602052600090815260409020546001600160a01b031681565b6040516001600160a01b0390911681526020016100ac565b610109610104366004610549565b61016c565b005b61011e610119366004610527565b6101f6565b604080519283526020830191909152016100ac565b6000546100de906001600160a01b031681565b61010961015436600461057c565b6103be565b610109610167366004610527565b610441565b6000546001600160a01b0316331461019f5760405162461bcd60e51b8152600401610196906105a6565b60405180910390fd5b6001600160a01b0382811660008181526001602052604080822080546001600160a01b0319169486169485179055517f3206e79c8cb385b303820bc579358c388d2f7539de2fa2f24644faf6bd0354d19190a35050565b6001600160a01b038082166000908152600160205260408120549091829116801561039e576000819050600080826001600160a01b031663feaf968c6040518163ffffffff1660e01b815260040160a060405180830381865afa158015610261573d6000803e3d6000fd5b505050506040513d601f19601f8201168201806040525081019061028591906105e3565b50935050925050600082136102c75760405162461bcd60e51b815260206004820152600860248201526710905117d191515160c21b6044820152606401610196565b6000836001600160a01b031663313ce5676040518163ffffffff1660e01b8152600401602060405180830381865afa158015610307573d6000803e3d6000fd5b505050506040513d601f19601f8201168201806040525081019061032b9190610633565b905082601260ff831610156103615761034582601261066c565b61035090600a61076f565b61035a908261077e565b9050610390565b60128260ff1611156103905761037860128361066c565b61038390600a61076f565b61038d9082610795565b90505b989197509095505050505050565b5050506001600160a01b0316600090815260026020526040902054904290565b6000546001600160a01b031633146103e85760405162461bcd60e51b8152600401610196906105a6565b6001600160a01b03821660008181526002602052604090819020839055517f469ff3a7ada7a8c122e2729e7041dfdabfc5e8b26802fa04d7f00706149c4e24906104359084815260200190565b60405180910390a25050565b6000546001600160a01b0316331461046b5760405162461bcd60e51b8152600401610196906105a6565b6001600160a01b0381166104b05760405162461bcd60e51b815260206004820152600c60248201526b5a45524f5f4144445245535360a01b6044820152606401610196565b600080546040516001600160a01b03808516939216917f8be0079c531659141344cd1fd0a4f28419497f9722a3daafe3b4186f6b6457e091a3600080546001600160a01b0319166001600160a01b0392909216919091179055565b80356001600160a01b038116811461052257600080fd5b919050565b60006020828403121561053957600080fd5b6105428261050b565b9392505050565b6000806040838503121561055c57600080fd5b6105658361050b565b91506105736020840161050b565b90509250929050565b6000806040838503121561058f57600080fd5b6105988361050b565b946020939093013593505050565b6020808252600990820152682727aa2fa7aba722a960b91b604082015260600190565b805169ffffffffffffffffffff8116811461052257600080fd5b600080600080600060a086880312156105fb57600080fd5b610604866105c9565b9450602086015193506040860151925060608601519150610627608087016105c9565b90509295509295909350565b60006020828403121561064557600080fd5b815160ff8116811461054257600080fd5b634e487b7160e01b600052601160045260246000fd5b60ff828116828216039081111561068557610685610656565b92915050565b600181815b808511156106c65781600019048211156106ac576106ac610656565b808516156106b957918102915b93841c9390800290610690565b509250929050565b6000826106dd57506001610685565b816106ea57506000610685565b8160018114610700576002811461070a57610726565b6001915050610685565b60ff84111561071b5761071b610656565b50506001821b610685565b5060208310610133831016604e8410600b8410161715610749575081810a610685565b610753838361068b565b806000190482111561076757610767610656565b029392505050565b600061054260ff8416836106ce565b808202811582820484141761068557610685610656565b6000826107b257634e487b7160e01b600052601260045260246000fd5b50049056fea2646970667358221220900bcd49930933bdc9e0a94517347835a1a6363a49683b90426f93704ff9d6db64736f6c63430008170033",
  "linkReferences": {},
  "deployedLinkReferences": {}
}